{
  "contracts/HertanateDonate.sol": {
    "HertanateDonate": {
      "abi": [
        {
          "inputs": [
            {
              "internalType": "address",
              "name": "initialForwarder",
              "type": "address"
            },
            {
              "internalType": "address[]",
              "name": "_initialAllowedTokens",
              "type": "address[]"
            },
            {
              "internalType": "address[]",
              "name": "_initialOwners",
              "type": "address[]"
            }
          ],
          "stateMutability": "nonpayable",
          "type": "constructor"
        },
        {
          "inputs": [
            {
              "internalType": "address",
              "name": "token",
              "type": "address"
            }
          ],
          "name": "SafeERC20FailedOperation",
          "type": "error"
        },
        {
          "anonymous": false,
          "inputs": [
            {
              "indexed": false,
              "internalType": "address",
              "name": "token",
              "type": "address"
            }
          ],
          "name": "AllowedTokenAdded",
          "type": "event"
        },
        {
          "anonymous": false,
          "inputs": [
            {
              "indexed": true,
              "internalType": "address",
              "name": "creator",
              "type": "address"
            },
            {
              "indexed": false,
              "internalType": "string",
              "name": "name",
              "type": "string"
            },
            {
              "indexed": false,
              "internalType": "string",
              "name": "image",
              "type": "string"
            },
            {
              "indexed": false,
              "internalType": "string",
              "name": "bio",
              "type": "string"
            },
            {
              "indexed": false,
              "internalType": "string",
              "name": "socials",
              "type": "string"
            },
            {
              "indexed": false,
              "internalType": "uint256",
              "name": "timestamp",
              "type": "uint256"
            }
          ],
          "name": "CreatorProfileUpdated",
          "type": "event"
        },
        {
          "anonymous": false,
          "inputs": [
            {
              "indexed": true,
              "internalType": "address",
              "name": "creator",
              "type": "address"
            },
            {
              "indexed": false,
              "internalType": "string",
              "name": "username",
              "type": "string"
            }
          ],
          "name": "CreatorRegistered",
          "type": "event"
        },
        {
          "anonymous": false,
          "inputs": [
            {
              "indexed": true,
              "internalType": "address",
              "name": "from",
              "type": "address"
            },
            {
              "indexed": true,
              "internalType": "address",
              "name": "creator",
              "type": "address"
            },
            {
              "indexed": false,
              "internalType": "uint256",
              "name": "amount",
              "type": "uint256"
            },
            {
              "indexed": false,
              "internalType": "uint256",
              "name": "feeAmount",
              "type": "uint256"
            },
            {
              "indexed": false,
              "internalType": "string",
              "name": "message",
              "type": "string"
            },
            {
              "indexed": false,
              "internalType": "uint256",
              "name": "timestamp",
              "type": "uint256"
            }
          ],
          "name": "DonationSent",
          "type": "event"
        },
        {
          "anonymous": false,
          "inputs": [
            {
              "indexed": true,
              "internalType": "address",
              "name": "creator",
              "type": "address"
            },
            {
              "indexed": false,
              "internalType": "string",
              "name": "oldUsername",
              "type": "string"
            },
            {
              "indexed": false,
              "internalType": "string",
              "name": "newUsername",
              "type": "string"
            },
            {
              "indexed": false,
              "internalType": "uint256",
              "name": "timestamp",
              "type": "uint256"
            }
          ],
          "name": "UsernameChanged",
          "type": "event"
        },
        {
          "inputs": [
            {
              "internalType": "address",
              "name": "_token",
              "type": "address"
            }
          ],
          "name": "addAllowedToken",
          "outputs": [],
          "stateMutability": "nonpayable",
          "type": "function"
        },
        {
          "inputs": [
            {
              "internalType": "address",
              "name": "",
              "type": "address"
            }
          ],
          "name": "allowedTokens",
          "outputs": [
            {
              "internalType": "bool",
              "name": "",
              "type": "bool"
            }
          ],
          "stateMutability": "view",
          "type": "function"
        },
        {
          "inputs": [
            {
              "internalType": "string",
              "name": "_newUsername",
              "type": "string"
            }
          ],
          "name": "changeUsername",
          "outputs": [],
          "stateMutability": "nonpayable",
          "type": "function"
        },
        {
          "inputs": [
            {
              "internalType": "address",
              "name": "",
              "type": "address"
            }
          ],
          "name": "creators",
          "outputs": [
            {
              "internalType": "string",
              "name": "username",
              "type": "string"
            },
            {
              "components": [
                {
                  "internalType": "string",
                  "name": "image",
                  "type": "string"
                },
                {
                  "internalType": "string",
                  "name": "name",
                  "type": "string"
                },
                {
                  "internalType": "string",
                  "name": "bio",
                  "type": "string"
                },
                {
                  "internalType": "string",
                  "name": "socials",
                  "type": "string"
                }
              ],
              "internalType": "struct HertanateDonate.CreatorDetail",
              "name": "detail",
              "type": "tuple"
            },
            {
              "internalType": "uint256",
              "name": "totalReceived",
              "type": "uint256"
            },
            {
              "internalType": "bool",
              "name": "isActive",
              "type": "bool"
            }
          ],
          "stateMutability": "view",
          "type": "function"
        },
        {
          "inputs": [
            {
              "internalType": "address",
              "name": "_creator",
              "type": "address"
            },
            {
              "internalType": "uint256",
              "name": "_amount",
              "type": "uint256"
            },
            {
              "internalType": "address",
              "name": "_token",
              "type": "address"
            },
            {
              "internalType": "string",
              "name": "_message",
              "type": "string"
            }
          ],
          "name": "donateToCreator",
          "outputs": [],
          "stateMutability": "payable",
          "type": "function"
        },
        {
          "inputs": [
            {
              "internalType": "string",
              "name": "_name",
              "type": "string"
            },
            {
              "internalType": "string",
              "name": "_image",
              "type": "string"
            },
            {
              "internalType": "string",
              "name": "_bio",
              "type": "string"
            },
            {
              "internalType": "string",
              "name": "_socials",
              "type": "string"
            }
          ],
          "name": "editCreatorProfile",
          "outputs": [],
          "stateMutability": "nonpayable",
          "type": "function"
        },
        {
          "inputs": [],
          "name": "fee",
          "outputs": [
            {
              "internalType": "uint8",
              "name": "",
              "type": "uint8"
            }
          ],
          "stateMutability": "view",
          "type": "function"
        },
        {
          "inputs": [
            {
              "internalType": "address",
              "name": "_creator",
              "type": "address"
            }
          ],
          "name": "getCreator",
          "outputs": [
            {
              "internalType": "string",
              "name": "username",
              "type": "string"
            },
            {
              "internalType": "string",
              "name": "name",
              "type": "string"
            },
            {
              "internalType": "string",
              "name": "bio",
              "type": "string"
            },
            {
              "internalType": "string",
              "name": "socials",
              "type": "string"
            },
            {
              "internalType": "uint256",
              "name": "totalReceived",
              "type": "uint256"
            }
          ],
          "stateMutability": "view",
          "type": "function"
        },
        {
          "inputs": [
            {
              "internalType": "address",
              "name": "forwarder",
              "type": "address"
            }
          ],
          "name": "isTrustedForwarder",
          "outputs": [
            {
              "internalType": "bool",
              "name": "",
              "type": "bool"
            }
          ],
          "stateMutability": "view",
          "type": "function"
        },
        {
          "inputs": [
            {
              "internalType": "uint256",
              "name": "",
              "type": "uint256"
            }
          ],
          "name": "owners",
          "outputs": [
            {
              "internalType": "address payable",
              "name": "",
              "type": "address"
            }
          ],
          "stateMutability": "view",
          "type": "function"
        },
        {
          "inputs": [
            {
              "internalType": "uint8",
              "name": "_newFee",
              "type": "uint8"
            }
          ],
          "name": "setFee",
          "outputs": [],
          "stateMutability": "nonpayable",
          "type": "function"
        },
        {
          "inputs": [
            {
              "internalType": "address",
              "name": "newForwarder",
              "type": "address"
            }
          ],
          "name": "setTrustedForwarder",
          "outputs": [],
          "stateMutability": "nonpayable",
          "type": "function"
        },
        {
          "inputs": [
            {
              "internalType": "string",
              "name": "_username",
              "type": "string"
            },
            {
              "internalType": "string",
              "name": "_name",
              "type": "string"
            },
            {
              "internalType": "string",
              "name": "_image",
              "type": "string"
            },
            {
              "internalType": "string",
              "name": "_bio",
              "type": "string"
            },
            {
              "internalType": "string",
              "name": "_socials",
              "type": "string"
            }
          ],
          "name": "signupCreator",
          "outputs": [],
          "stateMutability": "nonpayable",
          "type": "function"
        },
        {
          "inputs": [],
          "name": "trustedForwarder",
          "outputs": [
            {
              "internalType": "address",
              "name": "",
              "type": "address"
            }
          ],
          "stateMutability": "view",
          "type": "function"
        },
        {
          "inputs": [
            {
              "internalType": "string",
              "name": "",
              "type": "string"
            }
          ],
          "name": "usernames",
          "outputs": [
            {
              "internalType": "bool",
              "name": "",
              "type": "bool"
            }
          ],
          "stateMutability": "view",
          "type": "function"
        }
      ],
      "evm": {
        "bytecode": {
          "linkReferences": {},
          "object": "60a06040526005600160006101000a81548160ff021916908360ff16021790555034801561002c57600080fd5b50604051613d35380380613d35833981810160405281019061004e9190610510565b828073ffffffffffffffffffffffffffffffffffffffff1660808173ffffffffffffffffffffffffffffffffffffffff16815250505060008151116100c8576040517f08c379a00000000000000000000000000000000000000000000000000000000081526004016100bf906105f8565b60405180910390fd5b826001806101000a81548173ffffffffffffffffffffffffffffffffffffffff021916908373ffffffffffffffffffffffffffffffffffffffff16021790555060005b815181101561022757600073ffffffffffffffffffffffffffffffffffffffff1682828151811061013f5761013e610618565b5b602002602001015173ffffffffffffffffffffffffffffffffffffffff160361019d576040517f08c379a000000000000000000000000000000000000000000000000000000000815260040161019490610693565b60405180910390fd5b60008282815181106101b2576101b1610618565b5b60200260200101519080600181540180825580915050600190039060005260206000200160009091909190916101000a81548173ffffffffffffffffffffffffffffffffffffffff021916908373ffffffffffffffffffffffffffffffffffffffff160217905550808060010191505061010b565b5060005b825181101561033c57600073ffffffffffffffffffffffffffffffffffffffff1683828151811061025f5761025e610618565b5b602002602001015173ffffffffffffffffffffffffffffffffffffffff16036102bd576040517f08c379a00000000000000000000000000000000000000000000000000000000081526004016102b4906106ff565b60405180910390fd5b6001600460008584815181106102d6576102d5610618565b5b602002602001015173ffffffffffffffffffffffffffffffffffffffff1673ffffffffffffffffffffffffffffffffffffffff16815260200190815260200160002060006101000a81548160ff021916908315150217905550808060010191505061022b565b5050505061071f565b6000604051905090565b600080fd5b600080fd5b600073ffffffffffffffffffffffffffffffffffffffff82169050919050565b600061038482610359565b9050919050565b61039481610379565b811461039f57600080fd5b50565b6000815190506103b18161038b565b92915050565b600080fd5b6000601f19601f8301169050919050565b7f4e487b7100000000000000000000000000000000000000000000000000000000600052604160045260246000fd5b610405826103bc565b810181811067ffffffffffffffff82111715610424576104236103cd565b5b80604052505050565b6000610437610345565b905061044382826103fc565b919050565b600067ffffffffffffffff821115610463576104626103cd565b5b602082029050602081019050919050565b600080fd5b600061048c61048784610448565b61042d565b905080838252602082019050602084028301858111156104af576104ae610474565b5b835b818110156104d857806104c488826103a2565b8452602084019350506020810190506104b1565b5050509392505050565b600082601f8301126104f7576104f66103b7565b5b8151610507848260208601610479565b91505092915050565b6000806000606084860312156105295761052861034f565b5b6000610537868287016103a2565b935050602084015167ffffffffffffffff81111561055857610557610354565b5b610564868287016104e2565b925050604084015167ffffffffffffffff81111561058557610584610354565b5b610591868287016104e2565b9150509250925092565b600082825260208201905092915050565b7f4174206c65617374206f6e65206f776e65720000000000000000000000000000600082015250565b60006105e260128361059b565b91506105ed826105ac565b602082019050919050565b60006020820190508181036000830152610611816105d5565b9050919050565b7f4e487b7100000000000000000000000000000000000000000000000000000000600052603260045260246000fd5b7f496e76616c6964206f776e657200000000000000000000000000000000000000600082015250565b600061067d600d8361059b565b915061068882610647565b602082019050919050565b600060208201905081810360008301526106ac81610670565b9050919050565b7f496e76616c696420746f6b656e00000000000000000000000000000000000000600082015250565b60006106e9600d8361059b565b91506106f4826106b3565b602082019050919050565b60006020820190508181036000830152610718816106dc565b9050919050565b6080516135fb61073a6000396000610f7a01526135fb6000f3fe6080604052600436106100e85760003560e01c8063933166e11161008a578063cb122a0911610059578063cb122a0914610310578063da74222814610339578063ddca3f4314610362578063e744092e1461038d576100e8565b8063933166e114610236578063a021030914610276578063aaee301f146102b7578063b6605063146102f4576100e8565b8063572b6c05116100c6578063572b6c051461017c57806366c74fb4146101b957806377c846af146101e25780637da0a8771461020b576100e8565b8063025e7c27146100ed5780632a7fe0cc1461012a5780634178617f14610153575b600080fd5b3480156100f957600080fd5b50610114600480360381019061010f9190611f0e565b6103ca565b6040516101219190611f7c565b60405180910390f35b34801561013657600080fd5b50610151600480360381019061014c9190611ffc565b610409565b005b34801561015f57600080fd5b5061017a60048036038101906101759190612157565b610875565b005b34801561018857600080fd5b506101a3600480360381019061019e9190612157565b610a29565b6040516101b0919061219f565b60405180910390f35b3480156101c557600080fd5b506101e060048036038101906101db91906121ba565b610a81565b005b3480156101ee57600080fd5b50610209600480360381019061020491906122a3565b610c2d565b005b34801561021757600080fd5b50610220610f76565b60405161022d91906122ff565b60405180910390f35b34801561024257600080fd5b5061025d60048036038101906102589190612157565b610f9e565b60405161026d949392919061247b565b60405180910390f35b34801561028257600080fd5b5061029d60048036038101906102989190612157565b6112b5565b6040516102ae9594939291906124ce565b60405180910390f35b3480156102c357600080fd5b506102de60048036038101906102d9919061266d565b6115f1565b6040516102eb919061219f565b60405180910390f35b61030e600480360381019061030991906126b6565b611627565b005b34801561031c57600080fd5b5061033760048036038101906103329190612777565b6119ce565b005b34801561034557600080fd5b50610360600480360381019061035b9190612157565b611af4565b005b34801561036e57600080fd5b50610377611c59565b60405161038491906127b3565b60405180910390f35b34801561039957600080fd5b506103b460048036038101906103af9190612157565b611c6c565b6040516103c1919061219f565b60405180910390f35b600081815481106103da57600080fd5b906000526020600020016000915054906101000a900473ffffffffffffffffffffffffffffffffffffffff1681565b60008a8a90501161044f576040517f08c379a00000000000000000000000000000000000000000000000000000000081526004016104469061281a565b60405180910390fd5b6002600061045b611c8c565b73ffffffffffffffffffffffffffffffffffffffff1673ffffffffffffffffffffffffffffffffffffffff16815260200190815260200160002060060160009054906101000a900460ff16156104e6576040517f08c379a00000000000000000000000000000000000000000000000000000000081526004016104dd90612886565b60405180910390fd5b60038a8a6040516104f89291906128d6565b908152602001604051809103902060009054906101000a900460ff1615610554576040517f08c379a000000000000000000000000000000000000000000000000000000000815260040161054b9061293b565b60405180910390fd5b60405180608001604052808b8b8080601f016020809104026020016040519081016040528093929190818152602001838380828437600081840152601f19601f820116905080830192505050505050508152602001604051806080016040528089898080601f016020809104026020016040519081016040528093929190818152602001838380828437600081840152601f19601f8201169050808301925050505050505081526020018b8b8080601f016020809104026020016040519081016040528093929190818152602001838380828437600081840152601f19601f82011690508083019250505050505050815260200187878080601f016020809104026020016040519081016040528093929190818152602001838380828437600081840152601f19601f82011690508083019250505050505050815260200185858080601f016020809104026020016040519081016040528093929190818152602001838380828437600081840152601f19601f8201169050808301925050505050505081525081526020016000815260200160011515815250600260006106f9611c8c565b73ffffffffffffffffffffffffffffffffffffffff1673ffffffffffffffffffffffffffffffffffffffff16815260200190815260200160002060008201518160000190816107489190612b67565b5060208201518160010160008201518160000190816107679190612b67565b50602082015181600101908161077d9190612b67565b5060408201518160020190816107939190612b67565b5060608201518160030190816107a99190612b67565b5050506040820151816005015560608201518160060160006101000a81548160ff021916908315150217905550905050600160038b8b6040516107ed9291906128d6565b908152602001604051809103902060006101000a81548160ff02191690831515021790555061081a611c8c565b73ffffffffffffffffffffffffffffffffffffffff167f436a110767b6510e398091d7e698dbc3a574692ec743e8e40f4fb1ccefc00fc88b8b604051610861929190612c66565b60405180910390a250505050505050505050565b6000808154811061088957610888612c8a565b5b9060005260206000200160009054906101000a900473ffffffffffffffffffffffffffffffffffffffff1673ffffffffffffffffffffffffffffffffffffffff166108d2611c8c565b73ffffffffffffffffffffffffffffffffffffffff1614610928576040517f08c379a000000000000000000000000000000000000000000000000000000000815260040161091f90612d05565b60405180910390fd5b600073ffffffffffffffffffffffffffffffffffffffff168173ffffffffffffffffffffffffffffffffffffffff1603610997576040517f08c379a000000000000000000000000000000000000000000000000000000000815260040161098e90612d71565b60405180910390fd5b6001600460008373ffffffffffffffffffffffffffffffffffffffff1673ffffffffffffffffffffffffffffffffffffffff16815260200190815260200160002060006101000a81548160ff0219169083151502179055507ff849d00bc67e9e4bf072df9680646c59b8c5380160834c2e1d4896ce5ec81f7581604051610a1e91906122ff565b60405180910390a150565b600060018054906101000a900473ffffffffffffffffffffffffffffffffffffffff1673ffffffffffffffffffffffffffffffffffffffff168273ffffffffffffffffffffffffffffffffffffffff16149050919050565b60026000610a8d611c8c565b73ffffffffffffffffffffffffffffffffffffffff1673ffffffffffffffffffffffffffffffffffffffff16815260200190815260200160002060060160009054906101000a900460ff16610b17576040517f08c379a0000000000000000000000000000000000000000000000000000000008152600401610b0e90612ddd565b60405180910390fd5b600060026000610b25611c8c565b73ffffffffffffffffffffffffffffffffffffffff1673ffffffffffffffffffffffffffffffffffffffff16815260200190815260200160002090508888826001016001019182610b77929190612e08565b508686826001016000019182610b8e929190612e08565b508484826001016002019182610ba5929190612e08565b508282826001016003019182610bbc929190612e08565b50610bc5611c8c565b73ffffffffffffffffffffffffffffffffffffffff167f07110c32e00f50dcdaa7b59af3e326ffd2df520373d7e74fbc3f05a91a4e4a388a8a8a8a8a8a8a8a42604051610c1a99989796959493929190612ed8565b60405180910390a2505050505050505050565b60008282905011610c73576040517f08c379a0000000000000000000000000000000000000000000000000000000008152600401610c6a9061281a565b60405180910390fd5b60026000610c7f611c8c565b73ffffffffffffffffffffffffffffffffffffffff1673ffffffffffffffffffffffffffffffffffffffff16815260200190815260200160002060060160009054906101000a900460ff16610d09576040517f08c379a0000000000000000000000000000000000000000000000000000000008152600401610d0090612ddd565b60405180910390fd5b60038282604051610d1b9291906128d6565b908152602001604051809103902060009054906101000a900460ff1615610d77576040517f08c379a0000000000000000000000000000000000000000000000000000000008152600401610d6e90612f9b565b60405180910390fd5b600060026000610d85611c8c565b73ffffffffffffffffffffffffffffffffffffffff1673ffffffffffffffffffffffffffffffffffffffff1681526020019081526020016000206000018054610dcd9061298a565b80601f0160208091040260200160405190810160405280929190818152602001828054610df99061298a565b8015610e465780601f10610e1b57610100808354040283529160200191610e46565b820191906000526020600020905b815481529060010190602001808311610e2957829003601f168201915b505050505090506000600382604051610e5f9190612fec565b908152602001604051809103902060006101000a81548160ff021916908315150217905550828260026000610e92611c8c565b73ffffffffffffffffffffffffffffffffffffffff1673ffffffffffffffffffffffffffffffffffffffff1681526020019081526020016000206000019182610edc929190612e08565b50600160038484604051610ef19291906128d6565b908152602001604051809103902060006101000a81548160ff021916908315150217905550610f1e611c8c565b73ffffffffffffffffffffffffffffffffffffffff167f81b7c40eb5c177b2597ea463def0a1737f3689c6ae06b5d350bd97348a1e000782858542604051610f699493929190613003565b60405180910390a2505050565b60007f0000000000000000000000000000000000000000000000000000000000000000905090565b6002602052806000526040600020600091509050806000018054610fc19061298a565b80601f0160208091040260200160405190810160405280929190818152602001828054610fed9061298a565b801561103a5780601f1061100f5761010080835404028352916020019161103a565b820191906000526020600020905b81548152906001019060200180831161101d57829003601f168201915b5050505050908060010160405180608001604052908160008201805461105f9061298a565b80601f016020809104026020016040519081016040528092919081815260200182805461108b9061298a565b80156110d85780601f106110ad576101008083540402835291602001916110d8565b820191906000526020600020905b8154815290600101906020018083116110bb57829003601f168201915b505050505081526020016001820180546110f19061298a565b80601f016020809104026020016040519081016040528092919081815260200182805461111d9061298a565b801561116a5780601f1061113f5761010080835404028352916020019161116a565b820191906000526020600020905b81548152906001019060200180831161114d57829003601f168201915b505050505081526020016002820180546111839061298a565b80601f01602080910402602001604051908101604052809291908181526020018280546111af9061298a565b80156111fc5780601f106111d1576101008083540402835291602001916111fc565b820191906000526020600020905b8154815290600101906020018083116111df57829003601f168201915b505050505081526020016003820180546112159061298a565b80601f01602080910402602001604051908101604052809291908181526020018280546112419061298a565b801561128e5780601f106112635761010080835404028352916020019161128e565b820191906000526020600020905b81548152906001019060200180831161127157829003601f168201915b505050505081525050908060050154908060060160009054906101000a900460ff16905084565b6060806060806000600260008773ffffffffffffffffffffffffffffffffffffffff1673ffffffffffffffffffffffffffffffffffffffff16815260200190815260200160002060060160009054906101000a900460ff1661134c576040517f08c379a000000000000000000000000000000000000000000000000000000000815260040161134390613096565b60405180910390fd5b6000600260008873ffffffffffffffffffffffffffffffffffffffff1673ffffffffffffffffffffffffffffffffffffffff16815260200190815260200160002090508060000181600101600101826001016002018360010160030184600501548480546113b99061298a565b80601f01602080910402602001604051908101604052809291908181526020018280546113e59061298a565b80156114325780601f1061140757610100808354040283529160200191611432565b820191906000526020600020905b81548152906001019060200180831161141557829003601f168201915b505050505094508380546114459061298a565b80601f01602080910402602001604051908101604052809291908181526020018280546114719061298a565b80156114be5780601f10611493576101008083540402835291602001916114be565b820191906000526020600020905b8154815290600101906020018083116114a157829003601f168201915b505050505093508280546114d19061298a565b80601f01602080910402602001604051908101604052809291908181526020018280546114fd9061298a565b801561154a5780601f1061151f5761010080835404028352916020019161154a565b820191906000526020600020905b81548152906001019060200180831161152d57829003601f168201915b5050505050925081805461155d9061298a565b80601f01602080910402602001604051908101604052809291908181526020018280546115899061298a565b80156115d65780601f106115ab576101008083540402835291602001916115d6565b820191906000526020600020905b8154815290600101906020018083116115b957829003601f168201915b50505050509150955095509550955095505091939590929450565b6003818051602081018201805184825260208301602085012081835280955050505050506000915054906101000a900460ff1681565b600260008673ffffffffffffffffffffffffffffffffffffffff1673ffffffffffffffffffffffffffffffffffffffff16815260200190815260200160002060060160009054906101000a900460ff166116b6576040517f08c379a00000000000000000000000000000000000000000000000000000000081526004016116ad90613096565b60405180910390fd5b600084116116f9576040517f08c379a00000000000000000000000000000000000000000000000000000000081526004016116f090613102565b60405180910390fd5b600460008473ffffffffffffffffffffffffffffffffffffffff1673ffffffffffffffffffffffffffffffffffffffff16815260200190815260200160002060009054906101000a900460ff16611785576040517f08c379a000000000000000000000000000000000000000000000000000000000815260040161177c9061316e565b60405180910390fd5b60008390506117be611795611c8c565b30878473ffffffffffffffffffffffffffffffffffffffff16611c9b909392919063ffffffff16565b60006064600160009054906101000a900460ff1660ff16876117e091906131bd565b6117ea919061322e565b9050600081876117fa919061325f565b905061182788828573ffffffffffffffffffffffffffffffffffffffff16611d1d9092919063ffffffff16565b6000808054905083611839919061322e565b9050600080805490508461184d9190613293565b905060005b6000805490508110156118f457600080821461186e578361187b565b828461187a91906132c4565b5b90506118e66000838154811061189457611893612c8a565b5b9060005260206000200160009054906101000a900473ffffffffffffffffffffffffffffffffffffffff16828973ffffffffffffffffffffffffffffffffffffffff16611d1d9092919063ffffffff16565b508080600101915050611852565b5082600260008c73ffffffffffffffffffffffffffffffffffffffff1673ffffffffffffffffffffffffffffffffffffffff168152602001908152602001600020600501600082825461194791906132c4565b925050819055508973ffffffffffffffffffffffffffffffffffffffff1661196d611c8c565b73ffffffffffffffffffffffffffffffffffffffff167f28a9fd849105f4b4cc8f3312fd943a75051e466bd1b800c8a4ad91b2c7ccaa268b878b8b426040516119ba9594939291906132f8565b60405180910390a350505050505050505050565b600080815481106119e2576119e1612c8a565b5b9060005260206000200160009054906101000a900473ffffffffffffffffffffffffffffffffffffffff1673ffffffffffffffffffffffffffffffffffffffff16611a2b611c8c565b73ffffffffffffffffffffffffffffffffffffffff1614611a81576040517f08c379a0000000000000000000000000000000000000000000000000000000008152600401611a7890613392565b60405180910390fd5b60008160ff16118015611a97575060648160ff16105b611ad6576040517f08c379a0000000000000000000000000000000000000000000000000000000008152600401611acd906133fe565b60405180910390fd5b80600160006101000a81548160ff021916908360ff16021790555050565b60008081548110611b0857611b07612c8a565b5b9060005260206000200160009054906101000a900473ffffffffffffffffffffffffffffffffffffffff1673ffffffffffffffffffffffffffffffffffffffff16611b51611c8c565b73ffffffffffffffffffffffffffffffffffffffff1614611ba7576040517f08c379a0000000000000000000000000000000000000000000000000000000008152600401611b9e9061346a565b60405180910390fd5b600073ffffffffffffffffffffffffffffffffffffffff168173ffffffffffffffffffffffffffffffffffffffff1603611c16576040517f08c379a0000000000000000000000000000000000000000000000000000000008152600401611c0d90612d71565b60405180910390fd5b806001806101000a81548173ffffffffffffffffffffffffffffffffffffffff021916908373ffffffffffffffffffffffffffffffffffffffff16021790555050565b600160009054906101000a900460ff1681565b60046020528060005260406000206000915054906101000a900460ff1681565b6000611c96611d9c565b905090565b611d17848573ffffffffffffffffffffffffffffffffffffffff166323b872dd868686604051602401611cd09392919061348a565b604051602081830303815290604052915060e01b6020820180517bffffffffffffffffffffffffffffffffffffffffffffffffffffffff8381831617835250505050611e11565b50505050565b611d97838473ffffffffffffffffffffffffffffffffffffffff1663a9059cbb8585604051602401611d509291906134c1565b604051602081830303815290604052915060e01b6020820180517bffffffffffffffffffffffffffffffffffffffffffffffffffffffff8381831617835250505050611e11565b505050565b600080600036905090506000611db0611eb3565b9050611dbb33610a29565b8015611dc75750808210155b15611e01576000368284611ddb919061325f565b908092611dea939291906134f4565b90611df59190613566565b60601c92505050611e0e565b611e09611ebc565b925050505b90565b600080602060008451602086016000885af180611e34576040513d6000823e3d81fd5b3d925060005191505060008214611e4f576001811415611e6b565b60008473ffffffffffffffffffffffffffffffffffffffff163b145b15611ead57836040517f5274afe7000000000000000000000000000000000000000000000000000000008152600401611ea491906122ff565b60405180910390fd5b50505050565b60006014905090565b600033905090565b6000604051905090565b600080fd5b600080fd5b6000819050919050565b611eeb81611ed8565b8114611ef657600080fd5b50565b600081359050611f0881611ee2565b92915050565b600060208284031215611f2457611f23611ece565b5b6000611f3284828501611ef9565b91505092915050565b600073ffffffffffffffffffffffffffffffffffffffff82169050919050565b6000611f6682611f3b565b9050919050565b611f7681611f5b565b82525050565b6000602082019050611f916000830184611f6d565b92915050565b600080fd5b600080fd5b600080fd5b60008083601f840112611fbc57611fbb611f97565b5b8235905067ffffffffffffffff811115611fd957611fd8611f9c565b5b602083019150836001820283011115611ff557611ff4611fa1565b5b9250929050565b60008060008060008060008060008060a08b8d03121561201f5761201e611ece565b5b60008b013567ffffffffffffffff81111561203d5761203c611ed3565b5b6120498d828e01611fa6565b9a509a505060208b013567ffffffffffffffff81111561206c5761206b611ed3565b5b6120788d828e01611fa6565b985098505060408b013567ffffffffffffffff81111561209b5761209a611ed3565b5b6120a78d828e01611fa6565b965096505060608b013567ffffffffffffffff8111156120ca576120c9611ed3565b5b6120d68d828e01611fa6565b945094505060808b013567ffffffffffffffff8111156120f9576120f8611ed3565b5b6121058d828e01611fa6565b92509250509295989b9194979a5092959850565b600061212482611f3b565b9050919050565b61213481612119565b811461213f57600080fd5b50565b6000813590506121518161212b565b92915050565b60006020828403121561216d5761216c611ece565b5b600061217b84828501612142565b91505092915050565b60008115159050919050565b61219981612184565b82525050565b60006020820190506121b46000830184612190565b92915050565b6000806000806000806000806080898b0312156121da576121d9611ece565b5b600089013567ffffffffffffffff8111156121f8576121f7611ed3565b5b6122048b828c01611fa6565b9850985050602089013567ffffffffffffffff81111561222757612226611ed3565b5b6122338b828c01611fa6565b9650965050604089013567ffffffffffffffff81111561225657612255611ed3565b5b6122628b828c01611fa6565b9450945050606089013567ffffffffffffffff81111561228557612284611ed3565b5b6122918b828c01611fa6565b92509250509295985092959890939650565b600080602083850312156122ba576122b9611ece565b5b600083013567ffffffffffffffff8111156122d8576122d7611ed3565b5b6122e485828601611fa6565b92509250509250929050565b6122f981612119565b82525050565b600060208201905061231460008301846122f0565b92915050565b600081519050919050565b600082825260208201905092915050565b60005b83811015612354578082015181840152602081019050612339565b60008484015250505050565b6000601f19601f8301169050919050565b600061237c8261231a565b6123868185612325565b9350612396818560208601612336565b61239f81612360565b840191505092915050565b600082825260208201905092915050565b60006123c68261231a565b6123d081856123aa565b93506123e0818560208601612336565b6123e981612360565b840191505092915050565b6000608083016000830151848203600086015261241182826123bb565b9150506020830151848203602086015261242b82826123bb565b9150506040830151848203604086015261244582826123bb565b9150506060830151848203606086015261245f82826123bb565b9150508091505092915050565b61247581611ed8565b82525050565b600060808201905081810360008301526124958187612371565b905081810360208301526124a981866123f4565b90506124b8604083018561246c565b6124c56060830184612190565b95945050505050565b600060a08201905081810360008301526124e88188612371565b905081810360208301526124fc8187612371565b905081810360408301526125108186612371565b905081810360608301526125248185612371565b9050612533608083018461246c565b9695505050505050565b600080fd5b7f4e487b7100000000000000000000000000000000000000000000000000000000600052604160045260246000fd5b61257a82612360565b810181811067ffffffffffffffff8211171561259957612598612542565b5b80604052505050565b60006125ac611ec4565b90506125b88282612571565b919050565b600067ffffffffffffffff8211156125d8576125d7612542565b5b6125e182612360565b9050602081019050919050565b82818337600083830152505050565b600061261061260b846125bd565b6125a2565b90508281526020810184848401111561262c5761262b61253d565b5b6126378482856125ee565b509392505050565b600082601f83011261265457612653611f97565b5b81356126648482602086016125fd565b91505092915050565b60006020828403121561268357612682611ece565b5b600082013567ffffffffffffffff8111156126a1576126a0611ed3565b5b6126ad8482850161263f565b91505092915050565b6000806000806000608086880312156126d2576126d1611ece565b5b60006126e088828901612142565b95505060206126f188828901611ef9565b945050604061270288828901612142565b935050606086013567ffffffffffffffff81111561272357612722611ed3565b5b61272f88828901611fa6565b92509250509295509295909350565b600060ff82169050919050565b6127548161273e565b811461275f57600080fd5b50565b6000813590506127718161274b565b92915050565b60006020828403121561278d5761278c611ece565b5b600061279b84828501612762565b91505092915050565b6127ad8161273e565b82525050565b60006020820190506127c860008301846127a4565b92915050565b7f557365726e616d652063616e6e6f7420626520656d7074790000000000000000600082015250565b6000612804601883612325565b915061280f826127ce565b602082019050919050565b60006020820190508181036000830152612833816127f7565b9050919050565b7f416c726561647920726567697374657265640000000000000000000000000000600082015250565b6000612870601283612325565b915061287b8261283a565b602082019050919050565b6000602082019050818103600083015261289f81612863565b9050919050565b600081905092915050565b60006128bd83856128a6565b93506128ca8385846125ee565b82840190509392505050565b60006128e38284866128b1565b91508190509392505050565b7f557365726e616d652074616b656e000000000000000000000000000000000000600082015250565b6000612925600e83612325565b9150612930826128ef565b602082019050919050565b6000602082019050818103600083015261295481612918565b9050919050565b7f4e487b7100000000000000000000000000000000000000000000000000000000600052602260045260246000fd5b600060028204905060018216806129a257607f821691505b6020821081036129b5576129b461295b565b5b50919050565b60008190508160005260206000209050919050565b60006020601f8301049050919050565b600082821b905092915050565b600060088302612a1d7fffffffffffffffffffffffffffffffffffffffffffffffffffffffffffffffff826129e0565b612a2786836129e0565b95508019841693508086168417925050509392505050565b6000819050919050565b6000612a64612a5f612a5a84611ed8565b612a3f565b611ed8565b9050919050565b6000819050919050565b612a7e83612a49565b612a92612a8a82612a6b565b8484546129ed565b825550505050565b600090565b612aa7612a9a565b612ab2818484612a75565b505050565b5b81811015612ad657612acb600082612a9f565b600181019050612ab8565b5050565b601f821115612b1b57612aec816129bb565b612af5846129d0565b81016020851015612b04578190505b612b18612b10856129d0565b830182612ab7565b50505b505050565b600082821c905092915050565b6000612b3e60001984600802612b20565b1980831691505092915050565b6000612b578383612b2d565b9150826002028217905092915050565b612b708261231a565b67ffffffffffffffff811115612b8957612b88612542565b5b612b93825461298a565b612b9e828285612ada565b600060209050601f831160018114612bd15760008415612bbf578287015190505b612bc98582612b4b565b865550612c31565b601f198416612bdf866129bb565b60005b82811015612c0757848901518255600182019150602085019450602081019050612be2565b86831015612c245784890151612c20601f891682612b2d565b8355505b6001600288020188555050505b505050505050565b6000612c458385612325565b9350612c528385846125ee565b612c5b83612360565b840190509392505050565b60006020820190508181036000830152612c81818486612c39565b90509392505050565b7f4e487b7100000000000000000000000000000000000000000000000000000000600052603260045260246000fd5b7f4f6e6c79206f776e65722063616e2061646420746f6b656e0000000000000000600082015250565b6000612cef601883612325565b9150612cfa82612cb9565b602082019050919050565b60006020820190508181036000830152612d1e81612ce2565b9050919050565b7f496e76616c696420616464726573730000000000000000000000000000000000600082015250565b6000612d5b600f83612325565b9150612d6682612d25565b602082019050919050565b60006020820190508181036000830152612d8a81612d4e565b9050919050565b7f4e6f7420726567697374657265642061732063726561746f7200000000000000600082015250565b6000612dc7601983612325565b9150612dd282612d91565b602082019050919050565b60006020820190508181036000830152612df681612dba565b9050919050565b600082905092915050565b612e128383612dfd565b67ffffffffffffffff811115612e2b57612e2a612542565b5b612e35825461298a565b612e40828285612ada565b6000601f831160018114612e6f5760008415612e5d578287013590505b612e678582612b4b565b865550612ecf565b601f198416612e7d866129bb565b60005b82811015612ea557848901358255600182019150602085019450602081019050612e80565b86831015612ec25784890135612ebe601f891682612b2d565b8355505b6001600288020188555050505b50505050505050565b600060a0820190508181036000830152612ef3818b8d612c39565b90508181036020830152612f0881898b612c39565b90508181036040830152612f1d818789612c39565b90508181036060830152612f32818587612c39565b9050612f41608083018461246c565b9a9950505050505050505050565b7f557365726e616d6520616c72656164792074616b656e00000000000000000000600082015250565b6000612f85601683612325565b9150612f9082612f4f565b602082019050919050565b60006020820190508181036000830152612fb481612f78565b9050919050565b6000612fc68261231a565b612fd081856128a6565b9350612fe0818560208601612336565b80840191505092915050565b6000612ff88284612fbb565b915081905092915050565b6000606082019050818103600083015261301d8187612371565b90508181036020830152613032818587612c39565b9050613041604083018461246c565b95945050505050565b7f43726561746f72206e6f7420666f756e64000000000000000000000000000000600082015250565b6000613080601183612325565b915061308b8261304a565b602082019050919050565b600060208201905081810360008301526130af81613073565b9050919050565b7f416d6f756e74206d75737420626520706f736974697665000000000000000000600082015250565b60006130ec601783612325565b91506130f7826130b6565b602082019050919050565b6000602082019050818103600083015261311b816130df565b9050919050565b7f546f6b656e206e6f7420737570706f7274656400000000000000000000000000600082015250565b6000613158601383612325565b915061316382613122565b602082019050919050565b600060208201905081810360008301526131878161314b565b9050919050565b7f4e487b7100000000000000000000000000000000000000000000000000000000600052601160045260246000fd5b60006131c882611ed8565b91506131d383611ed8565b92508282026131e181611ed8565b915082820484148315176131f8576131f761318e565b5b5092915050565b7f4e487b7100000000000000000000000000000000000000000000000000000000600052601260045260246000fd5b600061323982611ed8565b915061324483611ed8565b925082613254576132536131ff565b5b828204905092915050565b600061326a82611ed8565b915061327583611ed8565b925082820390508181111561328d5761328c61318e565b5b92915050565b600061329e82611ed8565b91506132a983611ed8565b9250826132b9576132b86131ff565b5b828206905092915050565b60006132cf82611ed8565b91506132da83611ed8565b92508282019050808211156132f2576132f161318e565b5b92915050565b600060808201905061330d600083018861246c565b61331a602083018761246c565b818103604083015261332d818587612c39565b905061333c606083018461246c565b9695505050505050565b7f4f6e6c79206f776e65722063616e207365742066656500000000000000000000600082015250565b600061337c601683612325565b915061338782613346565b602082019050919050565b600060208201905081810360008301526133ab8161336f565b9050919050565b7f496e76616c6964206665652072616e6765000000000000000000000000000000600082015250565b60006133e8601183612325565b91506133f3826133b2565b602082019050919050565b60006020820190508181036000830152613417816133db565b9050919050565b7f4f6e6c79206f776e65722063616e206368616e676520666f7277617264657200600082015250565b6000613454601f83612325565b915061345f8261341e565b602082019050919050565b6000602082019050818103600083015261348381613447565b9050919050565b600060608201905061349f60008301866122f0565b6134ac60208301856122f0565b6134b9604083018461246c565b949350505050565b60006040820190506134d660008301856122f0565b6134e3602083018461246c565b9392505050565b600080fd5b600080fd5b60008085851115613508576135076134ea565b5b83861115613519576135186134ef565b5b6001850283019150848603905094509492505050565b600082905092915050565b60007fffffffffffffffffffffffffffffffffffffffff00000000000000000000000082169050919050565b6000613572838361352f565b8261357d813561353a565b925060148210156135bd576135b87fffffffffffffffffffffffffffffffffffffffff000000000000000000000000836014036008026129e0565b831692505b50509291505056fea26469706673582212202c2fd8e74cd7ecf0239b5f64497ca3c030246da0d14c5778a0be385ce99d280764736f6c634300081c0033",
          "opcodes": "PUSH1 0xA0 PUSH1 0x40 MSTORE PUSH1 0x5 PUSH1 0x1 PUSH1 0x0 PUSH2 0x100 EXP DUP2 SLOAD DUP2 PUSH1 0xFF MUL NOT AND SWAP1 DUP4 PUSH1 0xFF AND MUL OR SWAP1 SSTORE POP CALLVALUE DUP1 ISZERO PUSH2 0x2C JUMPI PUSH1 0x0 DUP1 REVERT JUMPDEST POP PUSH1 0x40 MLOAD PUSH2 0x3D35 CODESIZE SUB DUP1 PUSH2 0x3D35 DUP4 CODECOPY DUP2 DUP2 ADD PUSH1 0x40 MSTORE DUP2 ADD SWAP1 PUSH2 0x4E SWAP2 SWAP1 PUSH2 0x510 JUMP JUMPDEST DUP3 DUP1 PUSH20 0xFFFFFFFFFFFFFFFFFFFFFFFFFFFFFFFFFFFFFFFF AND PUSH1 0x80 DUP2 PUSH20 0xFFFFFFFFFFFFFFFFFFFFFFFFFFFFFFFFFFFFFFFF AND DUP2 MSTORE POP POP POP PUSH1 0x0 DUP2 MLOAD GT PUSH2 0xC8 JUMPI PUSH1 0x40 MLOAD PUSH32 0x8C379A000000000000000000000000000000000000000000000000000000000 DUP2 MSTORE PUSH1 0x4 ADD PUSH2 0xBF SWAP1 PUSH2 0x5F8 JUMP JUMPDEST PUSH1 0x40 MLOAD DUP1 SWAP2 SUB SWAP1 REVERT JUMPDEST DUP3 PUSH1 0x1 DUP1 PUSH2 0x100 EXP DUP2 SLOAD DUP2 PUSH20 0xFFFFFFFFFFFFFFFFFFFFFFFFFFFFFFFFFFFFFFFF MUL NOT AND SWAP1 DUP4 PUSH20 0xFFFFFFFFFFFFFFFFFFFFFFFFFFFFFFFFFFFFFFFF AND MUL OR SWAP1 SSTORE POP PUSH1 0x0 JUMPDEST DUP2 MLOAD DUP2 LT ISZERO PUSH2 0x227 JUMPI PUSH1 0x0 PUSH20 0xFFFFFFFFFFFFFFFFFFFFFFFFFFFFFFFFFFFFFFFF AND DUP3 DUP3 DUP2 MLOAD DUP2 LT PUSH2 0x13F JUMPI PUSH2 0x13E PUSH2 0x618 JUMP JUMPDEST JUMPDEST PUSH1 0x20 MUL PUSH1 0x20 ADD ADD MLOAD PUSH20 0xFFFFFFFFFFFFFFFFFFFFFFFFFFFFFFFFFFFFFFFF AND SUB PUSH2 0x19D JUMPI PUSH1 0x40 MLOAD PUSH32 0x8C379A000000000000000000000000000000000000000000000000000000000 DUP2 MSTORE PUSH1 0x4 ADD PUSH2 0x194 SWAP1 PUSH2 0x693 JUMP JUMPDEST PUSH1 0x40 MLOAD DUP1 SWAP2 SUB SWAP1 REVERT JUMPDEST PUSH1 0x0 DUP3 DUP3 DUP2 MLOAD DUP2 LT PUSH2 0x1B2 JUMPI PUSH2 0x1B1 PUSH2 0x618 JUMP JUMPDEST JUMPDEST PUSH1 0x20 MUL PUSH1 0x20 ADD ADD MLOAD SWAP1 DUP1 PUSH1 0x1 DUP2 SLOAD ADD DUP1 DUP3 SSTORE DUP1 SWAP2 POP POP PUSH1 0x1 SWAP1 SUB SWAP1 PUSH1 0x0 MSTORE PUSH1 0x20 PUSH1 0x0 KECCAK256 ADD PUSH1 0x0 SWAP1 SWAP2 SWAP1 SWAP2 SWAP1 SWAP2 PUSH2 0x100 EXP DUP2 SLOAD DUP2 PUSH20 0xFFFFFFFFFFFFFFFFFFFFFFFFFFFFFFFFFFFFFFFF MUL NOT AND SWAP1 DUP4 PUSH20 0xFFFFFFFFFFFFFFFFFFFFFFFFFFFFFFFFFFFFFFFF AND MUL OR SWAP1 SSTORE POP DUP1 DUP1 PUSH1 0x1 ADD SWAP2 POP POP PUSH2 0x10B JUMP JUMPDEST POP PUSH1 0x0 JUMPDEST DUP3 MLOAD DUP2 LT ISZERO PUSH2 0x33C JUMPI PUSH1 0x0 PUSH20 0xFFFFFFFFFFFFFFFFFFFFFFFFFFFFFFFFFFFFFFFF AND DUP4 DUP3 DUP2 MLOAD DUP2 LT PUSH2 0x25F JUMPI PUSH2 0x25E PUSH2 0x618 JUMP JUMPDEST JUMPDEST PUSH1 0x20 MUL PUSH1 0x20 ADD ADD MLOAD PUSH20 0xFFFFFFFFFFFFFFFFFFFFFFFFFFFFFFFFFFFFFFFF AND SUB PUSH2 0x2BD JUMPI PUSH1 0x40 MLOAD PUSH32 0x8C379A000000000000000000000000000000000000000000000000000000000 DUP2 MSTORE PUSH1 0x4 ADD PUSH2 0x2B4 SWAP1 PUSH2 0x6FF JUMP JUMPDEST PUSH1 0x40 MLOAD DUP1 SWAP2 SUB SWAP1 REVERT JUMPDEST PUSH1 0x1 PUSH1 0x4 PUSH1 0x0 DUP6 DUP5 DUP2 MLOAD DUP2 LT PUSH2 0x2D6 JUMPI PUSH2 0x2D5 PUSH2 0x618 JUMP JUMPDEST JUMPDEST PUSH1 0x20 MUL PUSH1 0x20 ADD ADD MLOAD PUSH20 0xFFFFFFFFFFFFFFFFFFFFFFFFFFFFFFFFFFFFFFFF AND PUSH20 0xFFFFFFFFFFFFFFFFFFFFFFFFFFFFFFFFFFFFFFFF AND DUP2 MSTORE PUSH1 0x20 ADD SWAP1 DUP2 MSTORE PUSH1 0x20 ADD PUSH1 0x0 KECCAK256 PUSH1 0x0 PUSH2 0x100 EXP DUP2 SLOAD DUP2 PUSH1 0xFF MUL NOT AND SWAP1 DUP4 ISZERO ISZERO MUL OR SWAP1 SSTORE POP DUP1 DUP1 PUSH1 0x1 ADD SWAP2 POP POP PUSH2 0x22B JUMP JUMPDEST POP POP POP POP PUSH2 0x71F JUMP JUMPDEST PUSH1 0x0 PUSH1 0x40 MLOAD SWAP1 POP SWAP1 JUMP JUMPDEST PUSH1 0x0 DUP1 REVERT JUMPDEST PUSH1 0x0 DUP1 REVERT JUMPDEST PUSH1 0x0 PUSH20 0xFFFFFFFFFFFFFFFFFFFFFFFFFFFFFFFFFFFFFFFF DUP3 AND SWAP1 POP SWAP2 SWAP1 POP JUMP JUMPDEST PUSH1 0x0 PUSH2 0x384 DUP3 PUSH2 0x359 JUMP JUMPDEST SWAP1 POP SWAP2 SWAP1 POP JUMP JUMPDEST PUSH2 0x394 DUP2 PUSH2 0x379 JUMP JUMPDEST DUP2 EQ PUSH2 0x39F JUMPI PUSH1 0x0 DUP1 REVERT JUMPDEST POP JUMP JUMPDEST PUSH1 0x0 DUP2 MLOAD SWAP1 POP PUSH2 0x3B1 DUP2 PUSH2 0x38B JUMP JUMPDEST SWAP3 SWAP2 POP POP JUMP JUMPDEST PUSH1 0x0 DUP1 REVERT JUMPDEST PUSH1 0x0 PUSH1 0x1F NOT PUSH1 0x1F DUP4 ADD AND SWAP1 POP SWAP2 SWAP1 POP JUMP JUMPDEST PUSH32 0x4E487B7100000000000000000000000000000000000000000000000000000000 PUSH1 0x0 MSTORE PUSH1 0x41 PUSH1 0x4 MSTORE PUSH1 0x24 PUSH1 0x0 REVERT JUMPDEST PUSH2 0x405 DUP3 PUSH2 0x3BC JUMP JUMPDEST DUP2 ADD DUP2 DUP2 LT PUSH8 0xFFFFFFFFFFFFFFFF DUP3 GT OR ISZERO PUSH2 0x424 JUMPI PUSH2 0x423 PUSH2 0x3CD JUMP JUMPDEST JUMPDEST DUP1 PUSH1 0x40 MSTORE POP POP POP JUMP JUMPDEST PUSH1 0x0 PUSH2 0x437 PUSH2 0x345 JUMP JUMPDEST SWAP1 POP PUSH2 0x443 DUP3 DUP3 PUSH2 0x3FC JUMP JUMPDEST SWAP2 SWAP1 POP JUMP JUMPDEST PUSH1 0x0 PUSH8 0xFFFFFFFFFFFFFFFF DUP3 GT ISZERO PUSH2 0x463 JUMPI PUSH2 0x462 PUSH2 0x3CD JUMP JUMPDEST JUMPDEST PUSH1 0x20 DUP3 MUL SWAP1 POP PUSH1 0x20 DUP2 ADD SWAP1 POP SWAP2 SWAP1 POP JUMP JUMPDEST PUSH1 0x0 DUP1 REVERT JUMPDEST PUSH1 0x0 PUSH2 0x48C PUSH2 0x487 DUP5 PUSH2 0x448 JUMP JUMPDEST PUSH2 0x42D JUMP JUMPDEST SWAP1 POP DUP1 DUP4 DUP3 MSTORE PUSH1 0x20 DUP3 ADD SWAP1 POP PUSH1 0x20 DUP5 MUL DUP4 ADD DUP6 DUP2 GT ISZERO PUSH2 0x4AF JUMPI PUSH2 0x4AE PUSH2 0x474 JUMP JUMPDEST JUMPDEST DUP4 JUMPDEST DUP2 DUP2 LT ISZERO PUSH2 0x4D8 JUMPI DUP1 PUSH2 0x4C4 DUP9 DUP3 PUSH2 0x3A2 JUMP JUMPDEST DUP5 MSTORE PUSH1 0x20 DUP5 ADD SWAP4 POP POP PUSH1 0x20 DUP2 ADD SWAP1 POP PUSH2 0x4B1 JUMP JUMPDEST POP POP POP SWAP4 SWAP3 POP POP POP JUMP JUMPDEST PUSH1 0x0 DUP3 PUSH1 0x1F DUP4 ADD SLT PUSH2 0x4F7 JUMPI PUSH2 0x4F6 PUSH2 0x3B7 JUMP JUMPDEST JUMPDEST DUP2 MLOAD PUSH2 0x507 DUP5 DUP3 PUSH1 0x20 DUP7 ADD PUSH2 0x479 JUMP JUMPDEST SWAP2 POP POP SWAP3 SWAP2 POP POP JUMP JUMPDEST PUSH1 0x0 DUP1 PUSH1 0x0 PUSH1 0x60 DUP5 DUP7 SUB SLT ISZERO PUSH2 0x529 JUMPI PUSH2 0x528 PUSH2 0x34F JUMP JUMPDEST JUMPDEST PUSH1 0x0 PUSH2 0x537 DUP7 DUP3 DUP8 ADD PUSH2 0x3A2 JUMP JUMPDEST SWAP4 POP POP PUSH1 0x20 DUP5 ADD MLOAD PUSH8 0xFFFFFFFFFFFFFFFF DUP2 GT ISZERO PUSH2 0x558 JUMPI PUSH2 0x557 PUSH2 0x354 JUMP JUMPDEST JUMPDEST PUSH2 0x564 DUP7 DUP3 DUP8 ADD PUSH2 0x4E2 JUMP JUMPDEST SWAP3 POP POP PUSH1 0x40 DUP5 ADD MLOAD PUSH8 0xFFFFFFFFFFFFFFFF DUP2 GT ISZERO PUSH2 0x585 JUMPI PUSH2 0x584 PUSH2 0x354 JUMP JUMPDEST JUMPDEST PUSH2 0x591 DUP7 DUP3 DUP8 ADD PUSH2 0x4E2 JUMP JUMPDEST SWAP2 POP POP SWAP3 POP SWAP3 POP SWAP3 JUMP JUMPDEST PUSH1 0x0 DUP3 DUP3 MSTORE PUSH1 0x20 DUP3 ADD SWAP1 POP SWAP3 SWAP2 POP POP JUMP JUMPDEST PUSH32 0x4174206C65617374206F6E65206F776E65720000000000000000000000000000 PUSH1 0x0 DUP3 ADD MSTORE POP JUMP JUMPDEST PUSH1 0x0 PUSH2 0x5E2 PUSH1 0x12 DUP4 PUSH2 0x59B JUMP JUMPDEST SWAP2 POP PUSH2 0x5ED DUP3 PUSH2 0x5AC JUMP JUMPDEST PUSH1 0x20 DUP3 ADD SWAP1 POP SWAP2 SWAP1 POP JUMP JUMPDEST PUSH1 0x0 PUSH1 0x20 DUP3 ADD SWAP1 POP DUP2 DUP2 SUB PUSH1 0x0 DUP4 ADD MSTORE PUSH2 0x611 DUP2 PUSH2 0x5D5 JUMP JUMPDEST SWAP1 POP SWAP2 SWAP1 POP JUMP JUMPDEST PUSH32 0x4E487B7100000000000000000000000000000000000000000000000000000000 PUSH1 0x0 MSTORE PUSH1 0x32 PUSH1 0x4 MSTORE PUSH1 0x24 PUSH1 0x0 REVERT JUMPDEST PUSH32 0x496E76616C6964206F776E657200000000000000000000000000000000000000 PUSH1 0x0 DUP3 ADD MSTORE POP JUMP JUMPDEST PUSH1 0x0 PUSH2 0x67D PUSH1 0xD DUP4 PUSH2 0x59B JUMP JUMPDEST SWAP2 POP PUSH2 0x688 DUP3 PUSH2 0x647 JUMP JUMPDEST PUSH1 0x20 DUP3 ADD SWAP1 POP SWAP2 SWAP1 POP JUMP JUMPDEST PUSH1 0x0 PUSH1 0x20 DUP3 ADD SWAP1 POP DUP2 DUP2 SUB PUSH1 0x0 DUP4 ADD MSTORE PUSH2 0x6AC DUP2 PUSH2 0x670 JUMP JUMPDEST SWAP1 POP SWAP2 SWAP1 POP JUMP JUMPDEST PUSH32 0x496E76616C696420746F6B656E00000000000000000000000000000000000000 PUSH1 0x0 DUP3 ADD MSTORE POP JUMP JUMPDEST PUSH1 0x0 PUSH2 0x6E9 PUSH1 0xD DUP4 PUSH2 0x59B JUMP JUMPDEST SWAP2 POP PUSH2 0x6F4 DUP3 PUSH2 0x6B3 JUMP JUMPDEST PUSH1 0x20 DUP3 ADD SWAP1 POP SWAP2 SWAP1 POP JUMP JUMPDEST PUSH1 0x0 PUSH1 0x20 DUP3 ADD SWAP1 POP DUP2 DUP2 SUB PUSH1 0x0 DUP4 ADD MSTORE PUSH2 0x718 DUP2 PUSH2 0x6DC JUMP JUMPDEST SWAP1 POP SWAP2 SWAP1 POP JUMP JUMPDEST PUSH1 0x80 MLOAD PUSH2 0x35FB PUSH2 0x73A PUSH1 0x0 CODECOPY PUSH1 0x0 PUSH2 0xF7A ADD MSTORE PUSH2 0x35FB PUSH1 0x0 RETURN INVALID PUSH1 0x80 PUSH1 0x40 MSTORE PUSH1 0x4 CALLDATASIZE LT PUSH2 0xE8 JUMPI PUSH1 0x0 CALLDATALOAD PUSH1 0xE0 SHR DUP1 PUSH4 0x933166E1 GT PUSH2 0x8A JUMPI DUP1 PUSH4 0xCB122A09 GT PUSH2 0x59 JUMPI DUP1 PUSH4 0xCB122A09 EQ PUSH2 0x310 JUMPI DUP1 PUSH4 0xDA742228 EQ PUSH2 0x339 JUMPI DUP1 PUSH4 0xDDCA3F43 EQ PUSH2 0x362 JUMPI DUP1 PUSH4 0xE744092E EQ PUSH2 0x38D JUMPI PUSH2 0xE8 JUMP JUMPDEST DUP1 PUSH4 0x933166E1 EQ PUSH2 0x236 JUMPI DUP1 PUSH4 0xA0210309 EQ PUSH2 0x276 JUMPI DUP1 PUSH4 0xAAEE301F EQ PUSH2 0x2B7 JUMPI DUP1 PUSH4 0xB6605063 EQ PUSH2 0x2F4 JUMPI PUSH2 0xE8 JUMP JUMPDEST DUP1 PUSH4 0x572B6C05 GT PUSH2 0xC6 JUMPI DUP1 PUSH4 0x572B6C05 EQ PUSH2 0x17C JUMPI DUP1 PUSH4 0x66C74FB4 EQ PUSH2 0x1B9 JUMPI DUP1 PUSH4 0x77C846AF EQ PUSH2 0x1E2 JUMPI DUP1 PUSH4 0x7DA0A877 EQ PUSH2 0x20B JUMPI PUSH2 0xE8 JUMP JUMPDEST DUP1 PUSH4 0x25E7C27 EQ PUSH2 0xED JUMPI DUP1 PUSH4 0x2A7FE0CC EQ PUSH2 0x12A JUMPI DUP1 PUSH4 0x4178617F EQ PUSH2 0x153 JUMPI JUMPDEST PUSH1 0x0 DUP1 REVERT JUMPDEST CALLVALUE DUP1 ISZERO PUSH2 0xF9 JUMPI PUSH1 0x0 DUP1 REVERT JUMPDEST POP PUSH2 0x114 PUSH1 0x4 DUP1 CALLDATASIZE SUB DUP2 ADD SWAP1 PUSH2 0x10F SWAP2 SWAP1 PUSH2 0x1F0E JUMP JUMPDEST PUSH2 0x3CA JUMP JUMPDEST PUSH1 0x40 MLOAD PUSH2 0x121 SWAP2 SWAP1 PUSH2 0x1F7C JUMP JUMPDEST PUSH1 0x40 MLOAD DUP1 SWAP2 SUB SWAP1 RETURN JUMPDEST CALLVALUE DUP1 ISZERO PUSH2 0x136 JUMPI PUSH1 0x0 DUP1 REVERT JUMPDEST POP PUSH2 0x151 PUSH1 0x4 DUP1 CALLDATASIZE SUB DUP2 ADD SWAP1 PUSH2 0x14C SWAP2 SWAP1 PUSH2 0x1FFC JUMP JUMPDEST PUSH2 0x409 JUMP JUMPDEST STOP JUMPDEST CALLVALUE DUP1 ISZERO PUSH2 0x15F JUMPI PUSH1 0x0 DUP1 REVERT JUMPDEST POP PUSH2 0x17A PUSH1 0x4 DUP1 CALLDATASIZE SUB DUP2 ADD SWAP1 PUSH2 0x175 SWAP2 SWAP1 PUSH2 0x2157 JUMP JUMPDEST PUSH2 0x875 JUMP JUMPDEST STOP JUMPDEST CALLVALUE DUP1 ISZERO PUSH2 0x188 JUMPI PUSH1 0x0 DUP1 REVERT JUMPDEST POP PUSH2 0x1A3 PUSH1 0x4 DUP1 CALLDATASIZE SUB DUP2 ADD SWAP1 PUSH2 0x19E SWAP2 SWAP1 PUSH2 0x2157 JUMP JUMPDEST PUSH2 0xA29 JUMP JUMPDEST PUSH1 0x40 MLOAD PUSH2 0x1B0 SWAP2 SWAP1 PUSH2 0x219F JUMP JUMPDEST PUSH1 0x40 MLOAD DUP1 SWAP2 SUB SWAP1 RETURN JUMPDEST CALLVALUE DUP1 ISZERO PUSH2 0x1C5 JUMPI PUSH1 0x0 DUP1 REVERT JUMPDEST POP PUSH2 0x1E0 PUSH1 0x4 DUP1 CALLDATASIZE SUB DUP2 ADD SWAP1 PUSH2 0x1DB SWAP2 SWAP1 PUSH2 0x21BA JUMP JUMPDEST PUSH2 0xA81 JUMP JUMPDEST STOP JUMPDEST CALLVALUE DUP1 ISZERO PUSH2 0x1EE JUMPI PUSH1 0x0 DUP1 REVERT JUMPDEST POP PUSH2 0x209 PUSH1 0x4 DUP1 CALLDATASIZE SUB DUP2 ADD SWAP1 PUSH2 0x204 SWAP2 SWAP1 PUSH2 0x22A3 JUMP JUMPDEST PUSH2 0xC2D JUMP JUMPDEST STOP JUMPDEST CALLVALUE DUP1 ISZERO PUSH2 0x217 JUMPI PUSH1 0x0 DUP1 REVERT JUMPDEST POP PUSH2 0x220 PUSH2 0xF76 JUMP JUMPDEST PUSH1 0x40 MLOAD PUSH2 0x22D SWAP2 SWAP1 PUSH2 0x22FF JUMP JUMPDEST PUSH1 0x40 MLOAD DUP1 SWAP2 SUB SWAP1 RETURN JUMPDEST CALLVALUE DUP1 ISZERO PUSH2 0x242 JUMPI PUSH1 0x0 DUP1 REVERT JUMPDEST POP PUSH2 0x25D PUSH1 0x4 DUP1 CALLDATASIZE SUB DUP2 ADD SWAP1 PUSH2 0x258 SWAP2 SWAP1 PUSH2 0x2157 JUMP JUMPDEST PUSH2 0xF9E JUMP JUMPDEST PUSH1 0x40 MLOAD PUSH2 0x26D SWAP5 SWAP4 SWAP3 SWAP2 SWAP1 PUSH2 0x247B JUMP JUMPDEST PUSH1 0x40 MLOAD DUP1 SWAP2 SUB SWAP1 RETURN JUMPDEST CALLVALUE DUP1 ISZERO PUSH2 0x282 JUMPI PUSH1 0x0 DUP1 REVERT JUMPDEST POP PUSH2 0x29D PUSH1 0x4 DUP1 CALLDATASIZE SUB DUP2 ADD SWAP1 PUSH2 0x298 SWAP2 SWAP1 PUSH2 0x2157 JUMP JUMPDEST PUSH2 0x12B5 JUMP JUMPDEST PUSH1 0x40 MLOAD PUSH2 0x2AE SWAP6 SWAP5 SWAP4 SWAP3 SWAP2 SWAP1 PUSH2 0x24CE JUMP JUMPDEST PUSH1 0x40 MLOAD DUP1 SWAP2 SUB SWAP1 RETURN JUMPDEST CALLVALUE DUP1 ISZERO PUSH2 0x2C3 JUMPI PUSH1 0x0 DUP1 REVERT JUMPDEST POP PUSH2 0x2DE PUSH1 0x4 DUP1 CALLDATASIZE SUB DUP2 ADD SWAP1 PUSH2 0x2D9 SWAP2 SWAP1 PUSH2 0x266D JUMP JUMPDEST PUSH2 0x15F1 JUMP JUMPDEST PUSH1 0x40 MLOAD PUSH2 0x2EB SWAP2 SWAP1 PUSH2 0x219F JUMP JUMPDEST PUSH1 0x40 MLOAD DUP1 SWAP2 SUB SWAP1 RETURN JUMPDEST PUSH2 0x30E PUSH1 0x4 DUP1 CALLDATASIZE SUB DUP2 ADD SWAP1 PUSH2 0x309 SWAP2 SWAP1 PUSH2 0x26B6 JUMP JUMPDEST PUSH2 0x1627 JUMP JUMPDEST STOP JUMPDEST CALLVALUE DUP1 ISZERO PUSH2 0x31C JUMPI PUSH1 0x0 DUP1 REVERT JUMPDEST POP PUSH2 0x337 PUSH1 0x4 DUP1 CALLDATASIZE SUB DUP2 ADD SWAP1 PUSH2 0x332 SWAP2 SWAP1 PUSH2 0x2777 JUMP JUMPDEST PUSH2 0x19CE JUMP JUMPDEST STOP JUMPDEST CALLVALUE DUP1 ISZERO PUSH2 0x345 JUMPI PUSH1 0x0 DUP1 REVERT JUMPDEST POP PUSH2 0x360 PUSH1 0x4 DUP1 CALLDATASIZE SUB DUP2 ADD SWAP1 PUSH2 0x35B SWAP2 SWAP1 PUSH2 0x2157 JUMP JUMPDEST PUSH2 0x1AF4 JUMP JUMPDEST STOP JUMPDEST CALLVALUE DUP1 ISZERO PUSH2 0x36E JUMPI PUSH1 0x0 DUP1 REVERT JUMPDEST POP PUSH2 0x377 PUSH2 0x1C59 JUMP JUMPDEST PUSH1 0x40 MLOAD PUSH2 0x384 SWAP2 SWAP1 PUSH2 0x27B3 JUMP JUMPDEST PUSH1 0x40 MLOAD DUP1 SWAP2 SUB SWAP1 RETURN JUMPDEST CALLVALUE DUP1 ISZERO PUSH2 0x399 JUMPI PUSH1 0x0 DUP1 REVERT JUMPDEST POP PUSH2 0x3B4 PUSH1 0x4 DUP1 CALLDATASIZE SUB DUP2 ADD SWAP1 PUSH2 0x3AF SWAP2 SWAP1 PUSH2 0x2157 JUMP JUMPDEST PUSH2 0x1C6C JUMP JUMPDEST PUSH1 0x40 MLOAD PUSH2 0x3C1 SWAP2 SWAP1 PUSH2 0x219F JUMP JUMPDEST PUSH1 0x40 MLOAD DUP1 SWAP2 SUB SWAP1 RETURN JUMPDEST PUSH1 0x0 DUP2 DUP2 SLOAD DUP2 LT PUSH2 0x3DA JUMPI PUSH1 0x0 DUP1 REVERT JUMPDEST SWAP1 PUSH1 0x0 MSTORE PUSH1 0x20 PUSH1 0x0 KECCAK256 ADD PUSH1 0x0 SWAP2 POP SLOAD SWAP1 PUSH2 0x100 EXP SWAP1 DIV PUSH20 0xFFFFFFFFFFFFFFFFFFFFFFFFFFFFFFFFFFFFFFFF AND DUP2 JUMP JUMPDEST PUSH1 0x0 DUP11 DUP11 SWAP1 POP GT PUSH2 0x44F JUMPI PUSH1 0x40 MLOAD PUSH32 0x8C379A000000000000000000000000000000000000000000000000000000000 DUP2 MSTORE PUSH1 0x4 ADD PUSH2 0x446 SWAP1 PUSH2 0x281A JUMP JUMPDEST PUSH1 0x40 MLOAD DUP1 SWAP2 SUB SWAP1 REVERT JUMPDEST PUSH1 0x2 PUSH1 0x0 PUSH2 0x45B PUSH2 0x1C8C JUMP JUMPDEST PUSH20 0xFFFFFFFFFFFFFFFFFFFFFFFFFFFFFFFFFFFFFFFF AND PUSH20 0xFFFFFFFFFFFFFFFFFFFFFFFFFFFFFFFFFFFFFFFF AND DUP2 MSTORE PUSH1 0x20 ADD SWAP1 DUP2 MSTORE PUSH1 0x20 ADD PUSH1 0x0 KECCAK256 PUSH1 0x6 ADD PUSH1 0x0 SWAP1 SLOAD SWAP1 PUSH2 0x100 EXP SWAP1 DIV PUSH1 0xFF AND ISZERO PUSH2 0x4E6 JUMPI PUSH1 0x40 MLOAD PUSH32 0x8C379A000000000000000000000000000000000000000000000000000000000 DUP2 MSTORE PUSH1 0x4 ADD PUSH2 0x4DD SWAP1 PUSH2 0x2886 JUMP JUMPDEST PUSH1 0x40 MLOAD DUP1 SWAP2 SUB SWAP1 REVERT JUMPDEST PUSH1 0x3 DUP11 DUP11 PUSH1 0x40 MLOAD PUSH2 0x4F8 SWAP3 SWAP2 SWAP1 PUSH2 0x28D6 JUMP JUMPDEST SWAP1 DUP2 MSTORE PUSH1 0x20 ADD PUSH1 0x40 MLOAD DUP1 SWAP2 SUB SWAP1 KECCAK256 PUSH1 0x0 SWAP1 SLOAD SWAP1 PUSH2 0x100 EXP SWAP1 DIV PUSH1 0xFF AND ISZERO PUSH2 0x554 JUMPI PUSH1 0x40 MLOAD PUSH32 0x8C379A000000000000000000000000000000000000000000000000000000000 DUP2 MSTORE PUSH1 0x4 ADD PUSH2 0x54B SWAP1 PUSH2 0x293B JUMP JUMPDEST PUSH1 0x40 MLOAD DUP1 SWAP2 SUB SWAP1 REVERT JUMPDEST PUSH1 0x40 MLOAD DUP1 PUSH1 0x80 ADD PUSH1 0x40 MSTORE DUP1 DUP12 DUP12 DUP1 DUP1 PUSH1 0x1F ADD PUSH1 0x20 DUP1 SWAP2 DIV MUL PUSH1 0x20 ADD PUSH1 0x40 MLOAD SWAP1 DUP2 ADD PUSH1 0x40 MSTORE DUP1 SWAP4 SWAP3 SWAP2 SWAP1 DUP2 DUP2 MSTORE PUSH1 0x20 ADD DUP4 DUP4 DUP1 DUP3 DUP5 CALLDATACOPY PUSH1 0x0 DUP2 DUP5 ADD MSTORE PUSH1 0x1F NOT PUSH1 0x1F DUP3 ADD AND SWAP1 POP DUP1 DUP4 ADD SWAP3 POP POP POP POP POP POP POP DUP2 MSTORE PUSH1 0x20 ADD PUSH1 0x40 MLOAD DUP1 PUSH1 0x80 ADD PUSH1 0x40 MSTORE DUP1 DUP10 DUP10 DUP1 DUP1 PUSH1 0x1F ADD PUSH1 0x20 DUP1 SWAP2 DIV MUL PUSH1 0x20 ADD PUSH1 0x40 MLOAD SWAP1 DUP2 ADD PUSH1 0x40 MSTORE DUP1 SWAP4 SWAP3 SWAP2 SWAP1 DUP2 DUP2 MSTORE PUSH1 0x20 ADD DUP4 DUP4 DUP1 DUP3 DUP5 CALLDATACOPY PUSH1 0x0 DUP2 DUP5 ADD MSTORE PUSH1 0x1F NOT PUSH1 0x1F DUP3 ADD AND SWAP1 POP DUP1 DUP4 ADD SWAP3 POP POP POP POP POP POP POP DUP2 MSTORE PUSH1 0x20 ADD DUP12 DUP12 DUP1 DUP1 PUSH1 0x1F ADD PUSH1 0x20 DUP1 SWAP2 DIV MUL PUSH1 0x20 ADD PUSH1 0x40 MLOAD SWAP1 DUP2 ADD PUSH1 0x40 MSTORE DUP1 SWAP4 SWAP3 SWAP2 SWAP1 DUP2 DUP2 MSTORE PUSH1 0x20 ADD DUP4 DUP4 DUP1 DUP3 DUP5 CALLDATACOPY PUSH1 0x0 DUP2 DUP5 ADD MSTORE PUSH1 0x1F NOT PUSH1 0x1F DUP3 ADD AND SWAP1 POP DUP1 DUP4 ADD SWAP3 POP POP POP POP POP POP POP DUP2 MSTORE PUSH1 0x20 ADD DUP8 DUP8 DUP1 DUP1 PUSH1 0x1F ADD PUSH1 0x20 DUP1 SWAP2 DIV MUL PUSH1 0x20 ADD PUSH1 0x40 MLOAD SWAP1 DUP2 ADD PUSH1 0x40 MSTORE DUP1 SWAP4 SWAP3 SWAP2 SWAP1 DUP2 DUP2 MSTORE PUSH1 0x20 ADD DUP4 DUP4 DUP1 DUP3 DUP5 CALLDATACOPY PUSH1 0x0 DUP2 DUP5 ADD MSTORE PUSH1 0x1F NOT PUSH1 0x1F DUP3 ADD AND SWAP1 POP DUP1 DUP4 ADD SWAP3 POP POP POP POP POP POP POP DUP2 MSTORE PUSH1 0x20 ADD DUP6 DUP6 DUP1 DUP1 PUSH1 0x1F ADD PUSH1 0x20 DUP1 SWAP2 DIV MUL PUSH1 0x20 ADD PUSH1 0x40 MLOAD SWAP1 DUP2 ADD PUSH1 0x40 MSTORE DUP1 SWAP4 SWAP3 SWAP2 SWAP1 DUP2 DUP2 MSTORE PUSH1 0x20 ADD DUP4 DUP4 DUP1 DUP3 DUP5 CALLDATACOPY PUSH1 0x0 DUP2 DUP5 ADD MSTORE PUSH1 0x1F NOT PUSH1 0x1F DUP3 ADD AND SWAP1 POP DUP1 DUP4 ADD SWAP3 POP POP POP POP POP POP POP DUP2 MSTORE POP DUP2 MSTORE PUSH1 0x20 ADD PUSH1 0x0 DUP2 MSTORE PUSH1 0x20 ADD PUSH1 0x1 ISZERO ISZERO DUP2 MSTORE POP PUSH1 0x2 PUSH1 0x0 PUSH2 0x6F9 PUSH2 0x1C8C JUMP JUMPDEST PUSH20 0xFFFFFFFFFFFFFFFFFFFFFFFFFFFFFFFFFFFFFFFF AND PUSH20 0xFFFFFFFFFFFFFFFFFFFFFFFFFFFFFFFFFFFFFFFF AND DUP2 MSTORE PUSH1 0x20 ADD SWAP1 DUP2 MSTORE PUSH1 0x20 ADD PUSH1 0x0 KECCAK256 PUSH1 0x0 DUP3 ADD MLOAD DUP2 PUSH1 0x0 ADD SWAP1 DUP2 PUSH2 0x748 SWAP2 SWAP1 PUSH2 0x2B67 JUMP JUMPDEST POP PUSH1 0x20 DUP3 ADD MLOAD DUP2 PUSH1 0x1 ADD PUSH1 0x0 DUP3 ADD MLOAD DUP2 PUSH1 0x0 ADD SWAP1 DUP2 PUSH2 0x767 SWAP2 SWAP1 PUSH2 0x2B67 JUMP JUMPDEST POP PUSH1 0x20 DUP3 ADD MLOAD DUP2 PUSH1 0x1 ADD SWAP1 DUP2 PUSH2 0x77D SWAP2 SWAP1 PUSH2 0x2B67 JUMP JUMPDEST POP PUSH1 0x40 DUP3 ADD MLOAD DUP2 PUSH1 0x2 ADD SWAP1 DUP2 PUSH2 0x793 SWAP2 SWAP1 PUSH2 0x2B67 JUMP JUMPDEST POP PUSH1 0x60 DUP3 ADD MLOAD DUP2 PUSH1 0x3 ADD SWAP1 DUP2 PUSH2 0x7A9 SWAP2 SWAP1 PUSH2 0x2B67 JUMP JUMPDEST POP POP POP PUSH1 0x40 DUP3 ADD MLOAD DUP2 PUSH1 0x5 ADD SSTORE PUSH1 0x60 DUP3 ADD MLOAD DUP2 PUSH1 0x6 ADD PUSH1 0x0 PUSH2 0x100 EXP DUP2 SLOAD DUP2 PUSH1 0xFF MUL NOT AND SWAP1 DUP4 ISZERO ISZERO MUL OR SWAP1 SSTORE POP SWAP1 POP POP PUSH1 0x1 PUSH1 0x3 DUP12 DUP12 PUSH1 0x40 MLOAD PUSH2 0x7ED SWAP3 SWAP2 SWAP1 PUSH2 0x28D6 JUMP JUMPDEST SWAP1 DUP2 MSTORE PUSH1 0x20 ADD PUSH1 0x40 MLOAD DUP1 SWAP2 SUB SWAP1 KECCAK256 PUSH1 0x0 PUSH2 0x100 EXP DUP2 SLOAD DUP2 PUSH1 0xFF MUL NOT AND SWAP1 DUP4 ISZERO ISZERO MUL OR SWAP1 SSTORE POP PUSH2 0x81A PUSH2 0x1C8C JUMP JUMPDEST PUSH20 0xFFFFFFFFFFFFFFFFFFFFFFFFFFFFFFFFFFFFFFFF AND PUSH32 0x436A110767B6510E398091D7E698DBC3A574692EC743E8E40F4FB1CCEFC00FC8 DUP12 DUP12 PUSH1 0x40 MLOAD PUSH2 0x861 SWAP3 SWAP2 SWAP1 PUSH2 0x2C66 JUMP JUMPDEST PUSH1 0x40 MLOAD DUP1 SWAP2 SUB SWAP1 LOG2 POP POP POP POP POP POP POP POP POP POP JUMP JUMPDEST PUSH1 0x0 DUP1 DUP2 SLOAD DUP2 LT PUSH2 0x889 JUMPI PUSH2 0x888 PUSH2 0x2C8A JUMP JUMPDEST JUMPDEST SWAP1 PUSH1 0x0 MSTORE PUSH1 0x20 PUSH1 0x0 KECCAK256 ADD PUSH1 0x0 SWAP1 SLOAD SWAP1 PUSH2 0x100 EXP SWAP1 DIV PUSH20 0xFFFFFFFFFFFFFFFFFFFFFFFFFFFFFFFFFFFFFFFF AND PUSH20 0xFFFFFFFFFFFFFFFFFFFFFFFFFFFFFFFFFFFFFFFF AND PUSH2 0x8D2 PUSH2 0x1C8C JUMP JUMPDEST PUSH20 0xFFFFFFFFFFFFFFFFFFFFFFFFFFFFFFFFFFFFFFFF AND EQ PUSH2 0x928 JUMPI PUSH1 0x40 MLOAD PUSH32 0x8C379A000000000000000000000000000000000000000000000000000000000 DUP2 MSTORE PUSH1 0x4 ADD PUSH2 0x91F SWAP1 PUSH2 0x2D05 JUMP JUMPDEST PUSH1 0x40 MLOAD DUP1 SWAP2 SUB SWAP1 REVERT JUMPDEST PUSH1 0x0 PUSH20 0xFFFFFFFFFFFFFFFFFFFFFFFFFFFFFFFFFFFFFFFF AND DUP2 PUSH20 0xFFFFFFFFFFFFFFFFFFFFFFFFFFFFFFFFFFFFFFFF AND SUB PUSH2 0x997 JUMPI PUSH1 0x40 MLOAD PUSH32 0x8C379A000000000000000000000000000000000000000000000000000000000 DUP2 MSTORE PUSH1 0x4 ADD PUSH2 0x98E SWAP1 PUSH2 0x2D71 JUMP JUMPDEST PUSH1 0x40 MLOAD DUP1 SWAP2 SUB SWAP1 REVERT JUMPDEST PUSH1 0x1 PUSH1 0x4 PUSH1 0x0 DUP4 PUSH20 0xFFFFFFFFFFFFFFFFFFFFFFFFFFFFFFFFFFFFFFFF AND PUSH20 0xFFFFFFFFFFFFFFFFFFFFFFFFFFFFFFFFFFFFFFFF AND DUP2 MSTORE PUSH1 0x20 ADD SWAP1 DUP2 MSTORE PUSH1 0x20 ADD PUSH1 0x0 KECCAK256 PUSH1 0x0 PUSH2 0x100 EXP DUP2 SLOAD DUP2 PUSH1 0xFF MUL NOT AND SWAP1 DUP4 ISZERO ISZERO MUL OR SWAP1 SSTORE POP PUSH32 0xF849D00BC67E9E4BF072DF9680646C59B8C5380160834C2E1D4896CE5EC81F75 DUP2 PUSH1 0x40 MLOAD PUSH2 0xA1E SWAP2 SWAP1 PUSH2 0x22FF JUMP JUMPDEST PUSH1 0x40 MLOAD DUP1 SWAP2 SUB SWAP1 LOG1 POP JUMP JUMPDEST PUSH1 0x0 PUSH1 0x1 DUP1 SLOAD SWAP1 PUSH2 0x100 EXP SWAP1 DIV PUSH20 0xFFFFFFFFFFFFFFFFFFFFFFFFFFFFFFFFFFFFFFFF AND PUSH20 0xFFFFFFFFFFFFFFFFFFFFFFFFFFFFFFFFFFFFFFFF AND DUP3 PUSH20 0xFFFFFFFFFFFFFFFFFFFFFFFFFFFFFFFFFFFFFFFF AND EQ SWAP1 POP SWAP2 SWAP1 POP JUMP JUMPDEST PUSH1 0x2 PUSH1 0x0 PUSH2 0xA8D PUSH2 0x1C8C JUMP JUMPDEST PUSH20 0xFFFFFFFFFFFFFFFFFFFFFFFFFFFFFFFFFFFFFFFF AND PUSH20 0xFFFFFFFFFFFFFFFFFFFFFFFFFFFFFFFFFFFFFFFF AND DUP2 MSTORE PUSH1 0x20 ADD SWAP1 DUP2 MSTORE PUSH1 0x20 ADD PUSH1 0x0 KECCAK256 PUSH1 0x6 ADD PUSH1 0x0 SWAP1 SLOAD SWAP1 PUSH2 0x100 EXP SWAP1 DIV PUSH1 0xFF AND PUSH2 0xB17 JUMPI PUSH1 0x40 MLOAD PUSH32 0x8C379A000000000000000000000000000000000000000000000000000000000 DUP2 MSTORE PUSH1 0x4 ADD PUSH2 0xB0E SWAP1 PUSH2 0x2DDD JUMP JUMPDEST PUSH1 0x40 MLOAD DUP1 SWAP2 SUB SWAP1 REVERT JUMPDEST PUSH1 0x0 PUSH1 0x2 PUSH1 0x0 PUSH2 0xB25 PUSH2 0x1C8C JUMP JUMPDEST PUSH20 0xFFFFFFFFFFFFFFFFFFFFFFFFFFFFFFFFFFFFFFFF AND PUSH20 0xFFFFFFFFFFFFFFFFFFFFFFFFFFFFFFFFFFFFFFFF AND DUP2 MSTORE PUSH1 0x20 ADD SWAP1 DUP2 MSTORE PUSH1 0x20 ADD PUSH1 0x0 KECCAK256 SWAP1 POP DUP9 DUP9 DUP3 PUSH1 0x1 ADD PUSH1 0x1 ADD SWAP2 DUP3 PUSH2 0xB77 SWAP3 SWAP2 SWAP1 PUSH2 0x2E08 JUMP JUMPDEST POP DUP7 DUP7 DUP3 PUSH1 0x1 ADD PUSH1 0x0 ADD SWAP2 DUP3 PUSH2 0xB8E SWAP3 SWAP2 SWAP1 PUSH2 0x2E08 JUMP JUMPDEST POP DUP5 DUP5 DUP3 PUSH1 0x1 ADD PUSH1 0x2 ADD SWAP2 DUP3 PUSH2 0xBA5 SWAP3 SWAP2 SWAP1 PUSH2 0x2E08 JUMP JUMPDEST POP DUP3 DUP3 DUP3 PUSH1 0x1 ADD PUSH1 0x3 ADD SWAP2 DUP3 PUSH2 0xBBC SWAP3 SWAP2 SWAP1 PUSH2 0x2E08 JUMP JUMPDEST POP PUSH2 0xBC5 PUSH2 0x1C8C JUMP JUMPDEST PUSH20 0xFFFFFFFFFFFFFFFFFFFFFFFFFFFFFFFFFFFFFFFF AND PUSH32 0x7110C32E00F50DCDAA7B59AF3E326FFD2DF520373D7E74FBC3F05A91A4E4A38 DUP11 DUP11 DUP11 DUP11 DUP11 DUP11 DUP11 DUP11 TIMESTAMP PUSH1 0x40 MLOAD PUSH2 0xC1A SWAP10 SWAP9 SWAP8 SWAP7 SWAP6 SWAP5 SWAP4 SWAP3 SWAP2 SWAP1 PUSH2 0x2ED8 JUMP JUMPDEST PUSH1 0x40 MLOAD DUP1 SWAP2 SUB SWAP1 LOG2 POP POP POP POP POP POP POP POP POP JUMP JUMPDEST PUSH1 0x0 DUP3 DUP3 SWAP1 POP GT PUSH2 0xC73 JUMPI PUSH1 0x40 MLOAD PUSH32 0x8C379A000000000000000000000000000000000000000000000000000000000 DUP2 MSTORE PUSH1 0x4 ADD PUSH2 0xC6A SWAP1 PUSH2 0x281A JUMP JUMPDEST PUSH1 0x40 MLOAD DUP1 SWAP2 SUB SWAP1 REVERT JUMPDEST PUSH1 0x2 PUSH1 0x0 PUSH2 0xC7F PUSH2 0x1C8C JUMP JUMPDEST PUSH20 0xFFFFFFFFFFFFFFFFFFFFFFFFFFFFFFFFFFFFFFFF AND PUSH20 0xFFFFFFFFFFFFFFFFFFFFFFFFFFFFFFFFFFFFFFFF AND DUP2 MSTORE PUSH1 0x20 ADD SWAP1 DUP2 MSTORE PUSH1 0x20 ADD PUSH1 0x0 KECCAK256 PUSH1 0x6 ADD PUSH1 0x0 SWAP1 SLOAD SWAP1 PUSH2 0x100 EXP SWAP1 DIV PUSH1 0xFF AND PUSH2 0xD09 JUMPI PUSH1 0x40 MLOAD PUSH32 0x8C379A000000000000000000000000000000000000000000000000000000000 DUP2 MSTORE PUSH1 0x4 ADD PUSH2 0xD00 SWAP1 PUSH2 0x2DDD JUMP JUMPDEST PUSH1 0x40 MLOAD DUP1 SWAP2 SUB SWAP1 REVERT JUMPDEST PUSH1 0x3 DUP3 DUP3 PUSH1 0x40 MLOAD PUSH2 0xD1B SWAP3 SWAP2 SWAP1 PUSH2 0x28D6 JUMP JUMPDEST SWAP1 DUP2 MSTORE PUSH1 0x20 ADD PUSH1 0x40 MLOAD DUP1 SWAP2 SUB SWAP1 KECCAK256 PUSH1 0x0 SWAP1 SLOAD SWAP1 PUSH2 0x100 EXP SWAP1 DIV PUSH1 0xFF AND ISZERO PUSH2 0xD77 JUMPI PUSH1 0x40 MLOAD PUSH32 0x8C379A000000000000000000000000000000000000000000000000000000000 DUP2 MSTORE PUSH1 0x4 ADD PUSH2 0xD6E SWAP1 PUSH2 0x2F9B JUMP JUMPDEST PUSH1 0x40 MLOAD DUP1 SWAP2 SUB SWAP1 REVERT JUMPDEST PUSH1 0x0 PUSH1 0x2 PUSH1 0x0 PUSH2 0xD85 PUSH2 0x1C8C JUMP JUMPDEST PUSH20 0xFFFFFFFFFFFFFFFFFFFFFFFFFFFFFFFFFFFFFFFF AND PUSH20 0xFFFFFFFFFFFFFFFFFFFFFFFFFFFFFFFFFFFFFFFF AND DUP2 MSTORE PUSH1 0x20 ADD SWAP1 DUP2 MSTORE PUSH1 0x20 ADD PUSH1 0x0 KECCAK256 PUSH1 0x0 ADD DUP1 SLOAD PUSH2 0xDCD SWAP1 PUSH2 0x298A JUMP JUMPDEST DUP1 PUSH1 0x1F ADD PUSH1 0x20 DUP1 SWAP2 DIV MUL PUSH1 0x20 ADD PUSH1 0x40 MLOAD SWAP1 DUP2 ADD PUSH1 0x40 MSTORE DUP1 SWAP3 SWAP2 SWAP1 DUP2 DUP2 MSTORE PUSH1 0x20 ADD DUP3 DUP1 SLOAD PUSH2 0xDF9 SWAP1 PUSH2 0x298A JUMP JUMPDEST DUP1 ISZERO PUSH2 0xE46 JUMPI DUP1 PUSH1 0x1F LT PUSH2 0xE1B JUMPI PUSH2 0x100 DUP1 DUP4 SLOAD DIV MUL DUP4 MSTORE SWAP2 PUSH1 0x20 ADD SWAP2 PUSH2 0xE46 JUMP JUMPDEST DUP3 ADD SWAP2 SWAP1 PUSH1 0x0 MSTORE PUSH1 0x20 PUSH1 0x0 KECCAK256 SWAP1 JUMPDEST DUP2 SLOAD DUP2 MSTORE SWAP1 PUSH1 0x1 ADD SWAP1 PUSH1 0x20 ADD DUP1 DUP4 GT PUSH2 0xE29 JUMPI DUP3 SWAP1 SUB PUSH1 0x1F AND DUP3 ADD SWAP2 JUMPDEST POP POP POP POP POP SWAP1 POP PUSH1 0x0 PUSH1 0x3 DUP3 PUSH1 0x40 MLOAD PUSH2 0xE5F SWAP2 SWAP1 PUSH2 0x2FEC JUMP JUMPDEST SWAP1 DUP2 MSTORE PUSH1 0x20 ADD PUSH1 0x40 MLOAD DUP1 SWAP2 SUB SWAP1 KECCAK256 PUSH1 0x0 PUSH2 0x100 EXP DUP2 SLOAD DUP2 PUSH1 0xFF MUL NOT AND SWAP1 DUP4 ISZERO ISZERO MUL OR SWAP1 SSTORE POP DUP3 DUP3 PUSH1 0x2 PUSH1 0x0 PUSH2 0xE92 PUSH2 0x1C8C JUMP JUMPDEST PUSH20 0xFFFFFFFFFFFFFFFFFFFFFFFFFFFFFFFFFFFFFFFF AND PUSH20 0xFFFFFFFFFFFFFFFFFFFFFFFFFFFFFFFFFFFFFFFF AND DUP2 MSTORE PUSH1 0x20 ADD SWAP1 DUP2 MSTORE PUSH1 0x20 ADD PUSH1 0x0 KECCAK256 PUSH1 0x0 ADD SWAP2 DUP3 PUSH2 0xEDC SWAP3 SWAP2 SWAP1 PUSH2 0x2E08 JUMP JUMPDEST POP PUSH1 0x1 PUSH1 0x3 DUP5 DUP5 PUSH1 0x40 MLOAD PUSH2 0xEF1 SWAP3 SWAP2 SWAP1 PUSH2 0x28D6 JUMP JUMPDEST SWAP1 DUP2 MSTORE PUSH1 0x20 ADD PUSH1 0x40 MLOAD DUP1 SWAP2 SUB SWAP1 KECCAK256 PUSH1 0x0 PUSH2 0x100 EXP DUP2 SLOAD DUP2 PUSH1 0xFF MUL NOT AND SWAP1 DUP4 ISZERO ISZERO MUL OR SWAP1 SSTORE POP PUSH2 0xF1E PUSH2 0x1C8C JUMP JUMPDEST PUSH20 0xFFFFFFFFFFFFFFFFFFFFFFFFFFFFFFFFFFFFFFFF AND PUSH32 0x81B7C40EB5C177B2597EA463DEF0A1737F3689C6AE06B5D350BD97348A1E0007 DUP3 DUP6 DUP6 TIMESTAMP PUSH1 0x40 MLOAD PUSH2 0xF69 SWAP5 SWAP4 SWAP3 SWAP2 SWAP1 PUSH2 0x3003 JUMP JUMPDEST PUSH1 0x40 MLOAD DUP1 SWAP2 SUB SWAP1 LOG2 POP POP POP JUMP JUMPDEST PUSH1 0x0 PUSH32 0x0 SWAP1 POP SWAP1 JUMP JUMPDEST PUSH1 0x2 PUSH1 0x20 MSTORE DUP1 PUSH1 0x0 MSTORE PUSH1 0x40 PUSH1 0x0 KECCAK256 PUSH1 0x0 SWAP2 POP SWAP1 POP DUP1 PUSH1 0x0 ADD DUP1 SLOAD PUSH2 0xFC1 SWAP1 PUSH2 0x298A JUMP JUMPDEST DUP1 PUSH1 0x1F ADD PUSH1 0x20 DUP1 SWAP2 DIV MUL PUSH1 0x20 ADD PUSH1 0x40 MLOAD SWAP1 DUP2 ADD PUSH1 0x40 MSTORE DUP1 SWAP3 SWAP2 SWAP1 DUP2 DUP2 MSTORE PUSH1 0x20 ADD DUP3 DUP1 SLOAD PUSH2 0xFED SWAP1 PUSH2 0x298A JUMP JUMPDEST DUP1 ISZERO PUSH2 0x103A JUMPI DUP1 PUSH1 0x1F LT PUSH2 0x100F JUMPI PUSH2 0x100 DUP1 DUP4 SLOAD DIV MUL DUP4 MSTORE SWAP2 PUSH1 0x20 ADD SWAP2 PUSH2 0x103A JUMP JUMPDEST DUP3 ADD SWAP2 SWAP1 PUSH1 0x0 MSTORE PUSH1 0x20 PUSH1 0x0 KECCAK256 SWAP1 JUMPDEST DUP2 SLOAD DUP2 MSTORE SWAP1 PUSH1 0x1 ADD SWAP1 PUSH1 0x20 ADD DUP1 DUP4 GT PUSH2 0x101D JUMPI DUP3 SWAP1 SUB PUSH1 0x1F AND DUP3 ADD SWAP2 JUMPDEST POP POP POP POP POP SWAP1 DUP1 PUSH1 0x1 ADD PUSH1 0x40 MLOAD DUP1 PUSH1 0x80 ADD PUSH1 0x40 MSTORE SWAP1 DUP2 PUSH1 0x0 DUP3 ADD DUP1 SLOAD PUSH2 0x105F SWAP1 PUSH2 0x298A JUMP JUMPDEST DUP1 PUSH1 0x1F ADD PUSH1 0x20 DUP1 SWAP2 DIV MUL PUSH1 0x20 ADD PUSH1 0x40 MLOAD SWAP1 DUP2 ADD PUSH1 0x40 MSTORE DUP1 SWAP3 SWAP2 SWAP1 DUP2 DUP2 MSTORE PUSH1 0x20 ADD DUP3 DUP1 SLOAD PUSH2 0x108B SWAP1 PUSH2 0x298A JUMP JUMPDEST DUP1 ISZERO PUSH2 0x10D8 JUMPI DUP1 PUSH1 0x1F LT PUSH2 0x10AD JUMPI PUSH2 0x100 DUP1 DUP4 SLOAD DIV MUL DUP4 MSTORE SWAP2 PUSH1 0x20 ADD SWAP2 PUSH2 0x10D8 JUMP JUMPDEST DUP3 ADD SWAP2 SWAP1 PUSH1 0x0 MSTORE PUSH1 0x20 PUSH1 0x0 KECCAK256 SWAP1 JUMPDEST DUP2 SLOAD DUP2 MSTORE SWAP1 PUSH1 0x1 ADD SWAP1 PUSH1 0x20 ADD DUP1 DUP4 GT PUSH2 0x10BB JUMPI DUP3 SWAP1 SUB PUSH1 0x1F AND DUP3 ADD SWAP2 JUMPDEST POP POP POP POP POP DUP2 MSTORE PUSH1 0x20 ADD PUSH1 0x1 DUP3 ADD DUP1 SLOAD PUSH2 0x10F1 SWAP1 PUSH2 0x298A JUMP JUMPDEST DUP1 PUSH1 0x1F ADD PUSH1 0x20 DUP1 SWAP2 DIV MUL PUSH1 0x20 ADD PUSH1 0x40 MLOAD SWAP1 DUP2 ADD PUSH1 0x40 MSTORE DUP1 SWAP3 SWAP2 SWAP1 DUP2 DUP2 MSTORE PUSH1 0x20 ADD DUP3 DUP1 SLOAD PUSH2 0x111D SWAP1 PUSH2 0x298A JUMP JUMPDEST DUP1 ISZERO PUSH2 0x116A JUMPI DUP1 PUSH1 0x1F LT PUSH2 0x113F JUMPI PUSH2 0x100 DUP1 DUP4 SLOAD DIV MUL DUP4 MSTORE SWAP2 PUSH1 0x20 ADD SWAP2 PUSH2 0x116A JUMP JUMPDEST DUP3 ADD SWAP2 SWAP1 PUSH1 0x0 MSTORE PUSH1 0x20 PUSH1 0x0 KECCAK256 SWAP1 JUMPDEST DUP2 SLOAD DUP2 MSTORE SWAP1 PUSH1 0x1 ADD SWAP1 PUSH1 0x20 ADD DUP1 DUP4 GT PUSH2 0x114D JUMPI DUP3 SWAP1 SUB PUSH1 0x1F AND DUP3 ADD SWAP2 JUMPDEST POP POP POP POP POP DUP2 MSTORE PUSH1 0x20 ADD PUSH1 0x2 DUP3 ADD DUP1 SLOAD PUSH2 0x1183 SWAP1 PUSH2 0x298A JUMP JUMPDEST DUP1 PUSH1 0x1F ADD PUSH1 0x20 DUP1 SWAP2 DIV MUL PUSH1 0x20 ADD PUSH1 0x40 MLOAD SWAP1 DUP2 ADD PUSH1 0x40 MSTORE DUP1 SWAP3 SWAP2 SWAP1 DUP2 DUP2 MSTORE PUSH1 0x20 ADD DUP3 DUP1 SLOAD PUSH2 0x11AF SWAP1 PUSH2 0x298A JUMP JUMPDEST DUP1 ISZERO PUSH2 0x11FC JUMPI DUP1 PUSH1 0x1F LT PUSH2 0x11D1 JUMPI PUSH2 0x100 DUP1 DUP4 SLOAD DIV MUL DUP4 MSTORE SWAP2 PUSH1 0x20 ADD SWAP2 PUSH2 0x11FC JUMP JUMPDEST DUP3 ADD SWAP2 SWAP1 PUSH1 0x0 MSTORE PUSH1 0x20 PUSH1 0x0 KECCAK256 SWAP1 JUMPDEST DUP2 SLOAD DUP2 MSTORE SWAP1 PUSH1 0x1 ADD SWAP1 PUSH1 0x20 ADD DUP1 DUP4 GT PUSH2 0x11DF JUMPI DUP3 SWAP1 SUB PUSH1 0x1F AND DUP3 ADD SWAP2 JUMPDEST POP POP POP POP POP DUP2 MSTORE PUSH1 0x20 ADD PUSH1 0x3 DUP3 ADD DUP1 SLOAD PUSH2 0x1215 SWAP1 PUSH2 0x298A JUMP JUMPDEST DUP1 PUSH1 0x1F ADD PUSH1 0x20 DUP1 SWAP2 DIV MUL PUSH1 0x20 ADD PUSH1 0x40 MLOAD SWAP1 DUP2 ADD PUSH1 0x40 MSTORE DUP1 SWAP3 SWAP2 SWAP1 DUP2 DUP2 MSTORE PUSH1 0x20 ADD DUP3 DUP1 SLOAD PUSH2 0x1241 SWAP1 PUSH2 0x298A JUMP JUMPDEST DUP1 ISZERO PUSH2 0x128E JUMPI DUP1 PUSH1 0x1F LT PUSH2 0x1263 JUMPI PUSH2 0x100 DUP1 DUP4 SLOAD DIV MUL DUP4 MSTORE SWAP2 PUSH1 0x20 ADD SWAP2 PUSH2 0x128E JUMP JUMPDEST DUP3 ADD SWAP2 SWAP1 PUSH1 0x0 MSTORE PUSH1 0x20 PUSH1 0x0 KECCAK256 SWAP1 JUMPDEST DUP2 SLOAD DUP2 MSTORE SWAP1 PUSH1 0x1 ADD SWAP1 PUSH1 0x20 ADD DUP1 DUP4 GT PUSH2 0x1271 JUMPI DUP3 SWAP1 SUB PUSH1 0x1F AND DUP3 ADD SWAP2 JUMPDEST POP POP POP POP POP DUP2 MSTORE POP POP SWAP1 DUP1 PUSH1 0x5 ADD SLOAD SWAP1 DUP1 PUSH1 0x6 ADD PUSH1 0x0 SWAP1 SLOAD SWAP1 PUSH2 0x100 EXP SWAP1 DIV PUSH1 0xFF AND SWAP1 POP DUP5 JUMP JUMPDEST PUSH1 0x60 DUP1 PUSH1 0x60 DUP1 PUSH1 0x0 PUSH1 0x2 PUSH1 0x0 DUP8 PUSH20 0xFFFFFFFFFFFFFFFFFFFFFFFFFFFFFFFFFFFFFFFF AND PUSH20 0xFFFFFFFFFFFFFFFFFFFFFFFFFFFFFFFFFFFFFFFF AND DUP2 MSTORE PUSH1 0x20 ADD SWAP1 DUP2 MSTORE PUSH1 0x20 ADD PUSH1 0x0 KECCAK256 PUSH1 0x6 ADD PUSH1 0x0 SWAP1 SLOAD SWAP1 PUSH2 0x100 EXP SWAP1 DIV PUSH1 0xFF AND PUSH2 0x134C JUMPI PUSH1 0x40 MLOAD PUSH32 0x8C379A000000000000000000000000000000000000000000000000000000000 DUP2 MSTORE PUSH1 0x4 ADD PUSH2 0x1343 SWAP1 PUSH2 0x3096 JUMP JUMPDEST PUSH1 0x40 MLOAD DUP1 SWAP2 SUB SWAP1 REVERT JUMPDEST PUSH1 0x0 PUSH1 0x2 PUSH1 0x0 DUP9 PUSH20 0xFFFFFFFFFFFFFFFFFFFFFFFFFFFFFFFFFFFFFFFF AND PUSH20 0xFFFFFFFFFFFFFFFFFFFFFFFFFFFFFFFFFFFFFFFF AND DUP2 MSTORE PUSH1 0x20 ADD SWAP1 DUP2 MSTORE PUSH1 0x20 ADD PUSH1 0x0 KECCAK256 SWAP1 POP DUP1 PUSH1 0x0 ADD DUP2 PUSH1 0x1 ADD PUSH1 0x1 ADD DUP3 PUSH1 0x1 ADD PUSH1 0x2 ADD DUP4 PUSH1 0x1 ADD PUSH1 0x3 ADD DUP5 PUSH1 0x5 ADD SLOAD DUP5 DUP1 SLOAD PUSH2 0x13B9 SWAP1 PUSH2 0x298A JUMP JUMPDEST DUP1 PUSH1 0x1F ADD PUSH1 0x20 DUP1 SWAP2 DIV MUL PUSH1 0x20 ADD PUSH1 0x40 MLOAD SWAP1 DUP2 ADD PUSH1 0x40 MSTORE DUP1 SWAP3 SWAP2 SWAP1 DUP2 DUP2 MSTORE PUSH1 0x20 ADD DUP3 DUP1 SLOAD PUSH2 0x13E5 SWAP1 PUSH2 0x298A JUMP JUMPDEST DUP1 ISZERO PUSH2 0x1432 JUMPI DUP1 PUSH1 0x1F LT PUSH2 0x1407 JUMPI PUSH2 0x100 DUP1 DUP4 SLOAD DIV MUL DUP4 MSTORE SWAP2 PUSH1 0x20 ADD SWAP2 PUSH2 0x1432 JUMP JUMPDEST DUP3 ADD SWAP2 SWAP1 PUSH1 0x0 MSTORE PUSH1 0x20 PUSH1 0x0 KECCAK256 SWAP1 JUMPDEST DUP2 SLOAD DUP2 MSTORE SWAP1 PUSH1 0x1 ADD SWAP1 PUSH1 0x20 ADD DUP1 DUP4 GT PUSH2 0x1415 JUMPI DUP3 SWAP1 SUB PUSH1 0x1F AND DUP3 ADD SWAP2 JUMPDEST POP POP POP POP POP SWAP5 POP DUP4 DUP1 SLOAD PUSH2 0x1445 SWAP1 PUSH2 0x298A JUMP JUMPDEST DUP1 PUSH1 0x1F ADD PUSH1 0x20 DUP1 SWAP2 DIV MUL PUSH1 0x20 ADD PUSH1 0x40 MLOAD SWAP1 DUP2 ADD PUSH1 0x40 MSTORE DUP1 SWAP3 SWAP2 SWAP1 DUP2 DUP2 MSTORE PUSH1 0x20 ADD DUP3 DUP1 SLOAD PUSH2 0x1471 SWAP1 PUSH2 0x298A JUMP JUMPDEST DUP1 ISZERO PUSH2 0x14BE JUMPI DUP1 PUSH1 0x1F LT PUSH2 0x1493 JUMPI PUSH2 0x100 DUP1 DUP4 SLOAD DIV MUL DUP4 MSTORE SWAP2 PUSH1 0x20 ADD SWAP2 PUSH2 0x14BE JUMP JUMPDEST DUP3 ADD SWAP2 SWAP1 PUSH1 0x0 MSTORE PUSH1 0x20 PUSH1 0x0 KECCAK256 SWAP1 JUMPDEST DUP2 SLOAD DUP2 MSTORE SWAP1 PUSH1 0x1 ADD SWAP1 PUSH1 0x20 ADD DUP1 DUP4 GT PUSH2 0x14A1 JUMPI DUP3 SWAP1 SUB PUSH1 0x1F AND DUP3 ADD SWAP2 JUMPDEST POP POP POP POP POP SWAP4 POP DUP3 DUP1 SLOAD PUSH2 0x14D1 SWAP1 PUSH2 0x298A JUMP JUMPDEST DUP1 PUSH1 0x1F ADD PUSH1 0x20 DUP1 SWAP2 DIV MUL PUSH1 0x20 ADD PUSH1 0x40 MLOAD SWAP1 DUP2 ADD PUSH1 0x40 MSTORE DUP1 SWAP3 SWAP2 SWAP1 DUP2 DUP2 MSTORE PUSH1 0x20 ADD DUP3 DUP1 SLOAD PUSH2 0x14FD SWAP1 PUSH2 0x298A JUMP JUMPDEST DUP1 ISZERO PUSH2 0x154A JUMPI DUP1 PUSH1 0x1F LT PUSH2 0x151F JUMPI PUSH2 0x100 DUP1 DUP4 SLOAD DIV MUL DUP4 MSTORE SWAP2 PUSH1 0x20 ADD SWAP2 PUSH2 0x154A JUMP JUMPDEST DUP3 ADD SWAP2 SWAP1 PUSH1 0x0 MSTORE PUSH1 0x20 PUSH1 0x0 KECCAK256 SWAP1 JUMPDEST DUP2 SLOAD DUP2 MSTORE SWAP1 PUSH1 0x1 ADD SWAP1 PUSH1 0x20 ADD DUP1 DUP4 GT PUSH2 0x152D JUMPI DUP3 SWAP1 SUB PUSH1 0x1F AND DUP3 ADD SWAP2 JUMPDEST POP POP POP POP POP SWAP3 POP DUP2 DUP1 SLOAD PUSH2 0x155D SWAP1 PUSH2 0x298A JUMP JUMPDEST DUP1 PUSH1 0x1F ADD PUSH1 0x20 DUP1 SWAP2 DIV MUL PUSH1 0x20 ADD PUSH1 0x40 MLOAD SWAP1 DUP2 ADD PUSH1 0x40 MSTORE DUP1 SWAP3 SWAP2 SWAP1 DUP2 DUP2 MSTORE PUSH1 0x20 ADD DUP3 DUP1 SLOAD PUSH2 0x1589 SWAP1 PUSH2 0x298A JUMP JUMPDEST DUP1 ISZERO PUSH2 0x15D6 JUMPI DUP1 PUSH1 0x1F LT PUSH2 0x15AB JUMPI PUSH2 0x100 DUP1 DUP4 SLOAD DIV MUL DUP4 MSTORE SWAP2 PUSH1 0x20 ADD SWAP2 PUSH2 0x15D6 JUMP JUMPDEST DUP3 ADD SWAP2 SWAP1 PUSH1 0x0 MSTORE PUSH1 0x20 PUSH1 0x0 KECCAK256 SWAP1 JUMPDEST DUP2 SLOAD DUP2 MSTORE SWAP1 PUSH1 0x1 ADD SWAP1 PUSH1 0x20 ADD DUP1 DUP4 GT PUSH2 0x15B9 JUMPI DUP3 SWAP1 SUB PUSH1 0x1F AND DUP3 ADD SWAP2 JUMPDEST POP POP POP POP POP SWAP2 POP SWAP6 POP SWAP6 POP SWAP6 POP SWAP6 POP SWAP6 POP POP SWAP2 SWAP4 SWAP6 SWAP1 SWAP3 SWAP5 POP JUMP JUMPDEST PUSH1 0x3 DUP2 DUP1 MLOAD PUSH1 0x20 DUP2 ADD DUP3 ADD DUP1 MLOAD DUP5 DUP3 MSTORE PUSH1 0x20 DUP4 ADD PUSH1 0x20 DUP6 ADD KECCAK256 DUP2 DUP4 MSTORE DUP1 SWAP6 POP POP POP POP POP POP PUSH1 0x0 SWAP2 POP SLOAD SWAP1 PUSH2 0x100 EXP SWAP1 DIV PUSH1 0xFF AND DUP2 JUMP JUMPDEST PUSH1 0x2 PUSH1 0x0 DUP7 PUSH20 0xFFFFFFFFFFFFFFFFFFFFFFFFFFFFFFFFFFFFFFFF AND PUSH20 0xFFFFFFFFFFFFFFFFFFFFFFFFFFFFFFFFFFFFFFFF AND DUP2 MSTORE PUSH1 0x20 ADD SWAP1 DUP2 MSTORE PUSH1 0x20 ADD PUSH1 0x0 KECCAK256 PUSH1 0x6 ADD PUSH1 0x0 SWAP1 SLOAD SWAP1 PUSH2 0x100 EXP SWAP1 DIV PUSH1 0xFF AND PUSH2 0x16B6 JUMPI PUSH1 0x40 MLOAD PUSH32 0x8C379A000000000000000000000000000000000000000000000000000000000 DUP2 MSTORE PUSH1 0x4 ADD PUSH2 0x16AD SWAP1 PUSH2 0x3096 JUMP JUMPDEST PUSH1 0x40 MLOAD DUP1 SWAP2 SUB SWAP1 REVERT JUMPDEST PUSH1 0x0 DUP5 GT PUSH2 0x16F9 JUMPI PUSH1 0x40 MLOAD PUSH32 0x8C379A000000000000000000000000000000000000000000000000000000000 DUP2 MSTORE PUSH1 0x4 ADD PUSH2 0x16F0 SWAP1 PUSH2 0x3102 JUMP JUMPDEST PUSH1 0x40 MLOAD DUP1 SWAP2 SUB SWAP1 REVERT JUMPDEST PUSH1 0x4 PUSH1 0x0 DUP5 PUSH20 0xFFFFFFFFFFFFFFFFFFFFFFFFFFFFFFFFFFFFFFFF AND PUSH20 0xFFFFFFFFFFFFFFFFFFFFFFFFFFFFFFFFFFFFFFFF AND DUP2 MSTORE PUSH1 0x20 ADD SWAP1 DUP2 MSTORE PUSH1 0x20 ADD PUSH1 0x0 KECCAK256 PUSH1 0x0 SWAP1 SLOAD SWAP1 PUSH2 0x100 EXP SWAP1 DIV PUSH1 0xFF AND PUSH2 0x1785 JUMPI PUSH1 0x40 MLOAD PUSH32 0x8C379A000000000000000000000000000000000000000000000000000000000 DUP2 MSTORE PUSH1 0x4 ADD PUSH2 0x177C SWAP1 PUSH2 0x316E JUMP JUMPDEST PUSH1 0x40 MLOAD DUP1 SWAP2 SUB SWAP1 REVERT JUMPDEST PUSH1 0x0 DUP4 SWAP1 POP PUSH2 0x17BE PUSH2 0x1795 PUSH2 0x1C8C JUMP JUMPDEST ADDRESS DUP8 DUP5 PUSH20 0xFFFFFFFFFFFFFFFFFFFFFFFFFFFFFFFFFFFFFFFF AND PUSH2 0x1C9B SWAP1 SWAP4 SWAP3 SWAP2 SWAP1 PUSH4 0xFFFFFFFF AND JUMP JUMPDEST PUSH1 0x0 PUSH1 0x64 PUSH1 0x1 PUSH1 0x0 SWAP1 SLOAD SWAP1 PUSH2 0x100 EXP SWAP1 DIV PUSH1 0xFF AND PUSH1 0xFF AND DUP8 PUSH2 0x17E0 SWAP2 SWAP1 PUSH2 0x31BD JUMP JUMPDEST PUSH2 0x17EA SWAP2 SWAP1 PUSH2 0x322E JUMP JUMPDEST SWAP1 POP PUSH1 0x0 DUP2 DUP8 PUSH2 0x17FA SWAP2 SWAP1 PUSH2 0x325F JUMP JUMPDEST SWAP1 POP PUSH2 0x1827 DUP9 DUP3 DUP6 PUSH20 0xFFFFFFFFFFFFFFFFFFFFFFFFFFFFFFFFFFFFFFFF AND PUSH2 0x1D1D SWAP1 SWAP3 SWAP2 SWAP1 PUSH4 0xFFFFFFFF AND JUMP JUMPDEST PUSH1 0x0 DUP1 DUP1 SLOAD SWAP1 POP DUP4 PUSH2 0x1839 SWAP2 SWAP1 PUSH2 0x322E JUMP JUMPDEST SWAP1 POP PUSH1 0x0 DUP1 DUP1 SLOAD SWAP1 POP DUP5 PUSH2 0x184D SWAP2 SWAP1 PUSH2 0x3293 JUMP JUMPDEST SWAP1 POP PUSH1 0x0 JUMPDEST PUSH1 0x0 DUP1 SLOAD SWAP1 POP DUP2 LT ISZERO PUSH2 0x18F4 JUMPI PUSH1 0x0 DUP1 DUP3 EQ PUSH2 0x186E JUMPI DUP4 PUSH2 0x187B JUMP JUMPDEST DUP3 DUP5 PUSH2 0x187A SWAP2 SWAP1 PUSH2 0x32C4 JUMP JUMPDEST JUMPDEST SWAP1 POP PUSH2 0x18E6 PUSH1 0x0 DUP4 DUP2 SLOAD DUP2 LT PUSH2 0x1894 JUMPI PUSH2 0x1893 PUSH2 0x2C8A JUMP JUMPDEST JUMPDEST SWAP1 PUSH1 0x0 MSTORE PUSH1 0x20 PUSH1 0x0 KECCAK256 ADD PUSH1 0x0 SWAP1 SLOAD SWAP1 PUSH2 0x100 EXP SWAP1 DIV PUSH20 0xFFFFFFFFFFFFFFFFFFFFFFFFFFFFFFFFFFFFFFFF AND DUP3 DUP10 PUSH20 0xFFFFFFFFFFFFFFFFFFFFFFFFFFFFFFFFFFFFFFFF AND PUSH2 0x1D1D SWAP1 SWAP3 SWAP2 SWAP1 PUSH4 0xFFFFFFFF AND JUMP JUMPDEST POP DUP1 DUP1 PUSH1 0x1 ADD SWAP2 POP POP PUSH2 0x1852 JUMP JUMPDEST POP DUP3 PUSH1 0x2 PUSH1 0x0 DUP13 PUSH20 0xFFFFFFFFFFFFFFFFFFFFFFFFFFFFFFFFFFFFFFFF AND PUSH20 0xFFFFFFFFFFFFFFFFFFFFFFFFFFFFFFFFFFFFFFFF AND DUP2 MSTORE PUSH1 0x20 ADD SWAP1 DUP2 MSTORE PUSH1 0x20 ADD PUSH1 0x0 KECCAK256 PUSH1 0x5 ADD PUSH1 0x0 DUP3 DUP3 SLOAD PUSH2 0x1947 SWAP2 SWAP1 PUSH2 0x32C4 JUMP JUMPDEST SWAP3 POP POP DUP2 SWAP1 SSTORE POP DUP10 PUSH20 0xFFFFFFFFFFFFFFFFFFFFFFFFFFFFFFFFFFFFFFFF AND PUSH2 0x196D PUSH2 0x1C8C JUMP JUMPDEST PUSH20 0xFFFFFFFFFFFFFFFFFFFFFFFFFFFFFFFFFFFFFFFF AND PUSH32 0x28A9FD849105F4B4CC8F3312FD943A75051E466BD1B800C8A4AD91B2C7CCAA26 DUP12 DUP8 DUP12 DUP12 TIMESTAMP PUSH1 0x40 MLOAD PUSH2 0x19BA SWAP6 SWAP5 SWAP4 SWAP3 SWAP2 SWAP1 PUSH2 0x32F8 JUMP JUMPDEST PUSH1 0x40 MLOAD DUP1 SWAP2 SUB SWAP1 LOG3 POP POP POP POP POP POP POP POP POP POP JUMP JUMPDEST PUSH1 0x0 DUP1 DUP2 SLOAD DUP2 LT PUSH2 0x19E2 JUMPI PUSH2 0x19E1 PUSH2 0x2C8A JUMP JUMPDEST JUMPDEST SWAP1 PUSH1 0x0 MSTORE PUSH1 0x20 PUSH1 0x0 KECCAK256 ADD PUSH1 0x0 SWAP1 SLOAD SWAP1 PUSH2 0x100 EXP SWAP1 DIV PUSH20 0xFFFFFFFFFFFFFFFFFFFFFFFFFFFFFFFFFFFFFFFF AND PUSH20 0xFFFFFFFFFFFFFFFFFFFFFFFFFFFFFFFFFFFFFFFF AND PUSH2 0x1A2B PUSH2 0x1C8C JUMP JUMPDEST PUSH20 0xFFFFFFFFFFFFFFFFFFFFFFFFFFFFFFFFFFFFFFFF AND EQ PUSH2 0x1A81 JUMPI PUSH1 0x40 MLOAD PUSH32 0x8C379A000000000000000000000000000000000000000000000000000000000 DUP2 MSTORE PUSH1 0x4 ADD PUSH2 0x1A78 SWAP1 PUSH2 0x3392 JUMP JUMPDEST PUSH1 0x40 MLOAD DUP1 SWAP2 SUB SWAP1 REVERT JUMPDEST PUSH1 0x0 DUP2 PUSH1 0xFF AND GT DUP1 ISZERO PUSH2 0x1A97 JUMPI POP PUSH1 0x64 DUP2 PUSH1 0xFF AND LT JUMPDEST PUSH2 0x1AD6 JUMPI PUSH1 0x40 MLOAD PUSH32 0x8C379A000000000000000000000000000000000000000000000000000000000 DUP2 MSTORE PUSH1 0x4 ADD PUSH2 0x1ACD SWAP1 PUSH2 0x33FE JUMP JUMPDEST PUSH1 0x40 MLOAD DUP1 SWAP2 SUB SWAP1 REVERT JUMPDEST DUP1 PUSH1 0x1 PUSH1 0x0 PUSH2 0x100 EXP DUP2 SLOAD DUP2 PUSH1 0xFF MUL NOT AND SWAP1 DUP4 PUSH1 0xFF AND MUL OR SWAP1 SSTORE POP POP JUMP JUMPDEST PUSH1 0x0 DUP1 DUP2 SLOAD DUP2 LT PUSH2 0x1B08 JUMPI PUSH2 0x1B07 PUSH2 0x2C8A JUMP JUMPDEST JUMPDEST SWAP1 PUSH1 0x0 MSTORE PUSH1 0x20 PUSH1 0x0 KECCAK256 ADD PUSH1 0x0 SWAP1 SLOAD SWAP1 PUSH2 0x100 EXP SWAP1 DIV PUSH20 0xFFFFFFFFFFFFFFFFFFFFFFFFFFFFFFFFFFFFFFFF AND PUSH20 0xFFFFFFFFFFFFFFFFFFFFFFFFFFFFFFFFFFFFFFFF AND PUSH2 0x1B51 PUSH2 0x1C8C JUMP JUMPDEST PUSH20 0xFFFFFFFFFFFFFFFFFFFFFFFFFFFFFFFFFFFFFFFF AND EQ PUSH2 0x1BA7 JUMPI PUSH1 0x40 MLOAD PUSH32 0x8C379A000000000000000000000000000000000000000000000000000000000 DUP2 MSTORE PUSH1 0x4 ADD PUSH2 0x1B9E SWAP1 PUSH2 0x346A JUMP JUMPDEST PUSH1 0x40 MLOAD DUP1 SWAP2 SUB SWAP1 REVERT JUMPDEST PUSH1 0x0 PUSH20 0xFFFFFFFFFFFFFFFFFFFFFFFFFFFFFFFFFFFFFFFF AND DUP2 PUSH20 0xFFFFFFFFFFFFFFFFFFFFFFFFFFFFFFFFFFFFFFFF AND SUB PUSH2 0x1C16 JUMPI PUSH1 0x40 MLOAD PUSH32 0x8C379A000000000000000000000000000000000000000000000000000000000 DUP2 MSTORE PUSH1 0x4 ADD PUSH2 0x1C0D SWAP1 PUSH2 0x2D71 JUMP JUMPDEST PUSH1 0x40 MLOAD DUP1 SWAP2 SUB SWAP1 REVERT JUMPDEST DUP1 PUSH1 0x1 DUP1 PUSH2 0x100 EXP DUP2 SLOAD DUP2 PUSH20 0xFFFFFFFFFFFFFFFFFFFFFFFFFFFFFFFFFFFFFFFF MUL NOT AND SWAP1 DUP4 PUSH20 0xFFFFFFFFFFFFFFFFFFFFFFFFFFFFFFFFFFFFFFFF AND MUL OR SWAP1 SSTORE POP POP JUMP JUMPDEST PUSH1 0x1 PUSH1 0x0 SWAP1 SLOAD SWAP1 PUSH2 0x100 EXP SWAP1 DIV PUSH1 0xFF AND DUP2 JUMP JUMPDEST PUSH1 0x4 PUSH1 0x20 MSTORE DUP1 PUSH1 0x0 MSTORE PUSH1 0x40 PUSH1 0x0 KECCAK256 PUSH1 0x0 SWAP2 POP SLOAD SWAP1 PUSH2 0x100 EXP SWAP1 DIV PUSH1 0xFF AND DUP2 JUMP JUMPDEST PUSH1 0x0 PUSH2 0x1C96 PUSH2 0x1D9C JUMP JUMPDEST SWAP1 POP SWAP1 JUMP JUMPDEST PUSH2 0x1D17 DUP5 DUP6 PUSH20 0xFFFFFFFFFFFFFFFFFFFFFFFFFFFFFFFFFFFFFFFF AND PUSH4 0x23B872DD DUP7 DUP7 DUP7 PUSH1 0x40 MLOAD PUSH1 0x24 ADD PUSH2 0x1CD0 SWAP4 SWAP3 SWAP2 SWAP1 PUSH2 0x348A JUMP JUMPDEST PUSH1 0x40 MLOAD PUSH1 0x20 DUP2 DUP4 SUB SUB DUP2 MSTORE SWAP1 PUSH1 0x40 MSTORE SWAP2 POP PUSH1 0xE0 SHL PUSH1 0x20 DUP3 ADD DUP1 MLOAD PUSH28 0xFFFFFFFFFFFFFFFFFFFFFFFFFFFFFFFFFFFFFFFFFFFFFFFFFFFFFFFF DUP4 DUP2 DUP4 AND OR DUP4 MSTORE POP POP POP POP PUSH2 0x1E11 JUMP JUMPDEST POP POP POP POP JUMP JUMPDEST PUSH2 0x1D97 DUP4 DUP5 PUSH20 0xFFFFFFFFFFFFFFFFFFFFFFFFFFFFFFFFFFFFFFFF AND PUSH4 0xA9059CBB DUP6 DUP6 PUSH1 0x40 MLOAD PUSH1 0x24 ADD PUSH2 0x1D50 SWAP3 SWAP2 SWAP1 PUSH2 0x34C1 JUMP JUMPDEST PUSH1 0x40 MLOAD PUSH1 0x20 DUP2 DUP4 SUB SUB DUP2 MSTORE SWAP1 PUSH1 0x40 MSTORE SWAP2 POP PUSH1 0xE0 SHL PUSH1 0x20 DUP3 ADD DUP1 MLOAD PUSH28 0xFFFFFFFFFFFFFFFFFFFFFFFFFFFFFFFFFFFFFFFFFFFFFFFFFFFFFFFF DUP4 DUP2 DUP4 AND OR DUP4 MSTORE POP POP POP POP PUSH2 0x1E11 JUMP JUMPDEST POP POP POP JUMP JUMPDEST PUSH1 0x0 DUP1 PUSH1 0x0 CALLDATASIZE SWAP1 POP SWAP1 POP PUSH1 0x0 PUSH2 0x1DB0 PUSH2 0x1EB3 JUMP JUMPDEST SWAP1 POP PUSH2 0x1DBB CALLER PUSH2 0xA29 JUMP JUMPDEST DUP1 ISZERO PUSH2 0x1DC7 JUMPI POP DUP1 DUP3 LT ISZERO JUMPDEST ISZERO PUSH2 0x1E01 JUMPI PUSH1 0x0 CALLDATASIZE DUP3 DUP5 PUSH2 0x1DDB SWAP2 SWAP1 PUSH2 0x325F JUMP JUMPDEST SWAP1 DUP1 SWAP3 PUSH2 0x1DEA SWAP4 SWAP3 SWAP2 SWAP1 PUSH2 0x34F4 JUMP JUMPDEST SWAP1 PUSH2 0x1DF5 SWAP2 SWAP1 PUSH2 0x3566 JUMP JUMPDEST PUSH1 0x60 SHR SWAP3 POP POP POP PUSH2 0x1E0E JUMP JUMPDEST PUSH2 0x1E09 PUSH2 0x1EBC JUMP JUMPDEST SWAP3 POP POP POP JUMPDEST SWAP1 JUMP JUMPDEST PUSH1 0x0 DUP1 PUSH1 0x20 PUSH1 0x0 DUP5 MLOAD PUSH1 0x20 DUP7 ADD PUSH1 0x0 DUP9 GAS CALL DUP1 PUSH2 0x1E34 JUMPI PUSH1 0x40 MLOAD RETURNDATASIZE PUSH1 0x0 DUP3 RETURNDATACOPY RETURNDATASIZE DUP2 REVERT JUMPDEST RETURNDATASIZE SWAP3 POP PUSH1 0x0 MLOAD SWAP2 POP POP PUSH1 0x0 DUP3 EQ PUSH2 0x1E4F JUMPI PUSH1 0x1 DUP2 EQ ISZERO PUSH2 0x1E6B JUMP JUMPDEST PUSH1 0x0 DUP5 PUSH20 0xFFFFFFFFFFFFFFFFFFFFFFFFFFFFFFFFFFFFFFFF AND EXTCODESIZE EQ JUMPDEST ISZERO PUSH2 0x1EAD JUMPI DUP4 PUSH1 0x40 MLOAD PUSH32 0x5274AFE700000000000000000000000000000000000000000000000000000000 DUP2 MSTORE PUSH1 0x4 ADD PUSH2 0x1EA4 SWAP2 SWAP1 PUSH2 0x22FF JUMP JUMPDEST PUSH1 0x40 MLOAD DUP1 SWAP2 SUB SWAP1 REVERT JUMPDEST POP POP POP POP JUMP JUMPDEST PUSH1 0x0 PUSH1 0x14 SWAP1 POP SWAP1 JUMP JUMPDEST PUSH1 0x0 CALLER SWAP1 POP SWAP1 JUMP JUMPDEST PUSH1 0x0 PUSH1 0x40 MLOAD SWAP1 POP SWAP1 JUMP JUMPDEST PUSH1 0x0 DUP1 REVERT JUMPDEST PUSH1 0x0 DUP1 REVERT JUMPDEST PUSH1 0x0 DUP2 SWAP1 POP SWAP2 SWAP1 POP JUMP JUMPDEST PUSH2 0x1EEB DUP2 PUSH2 0x1ED8 JUMP JUMPDEST DUP2 EQ PUSH2 0x1EF6 JUMPI PUSH1 0x0 DUP1 REVERT JUMPDEST POP JUMP JUMPDEST PUSH1 0x0 DUP2 CALLDATALOAD SWAP1 POP PUSH2 0x1F08 DUP2 PUSH2 0x1EE2 JUMP JUMPDEST SWAP3 SWAP2 POP POP JUMP JUMPDEST PUSH1 0x0 PUSH1 0x20 DUP3 DUP5 SUB SLT ISZERO PUSH2 0x1F24 JUMPI PUSH2 0x1F23 PUSH2 0x1ECE JUMP JUMPDEST JUMPDEST PUSH1 0x0 PUSH2 0x1F32 DUP5 DUP3 DUP6 ADD PUSH2 0x1EF9 JUMP JUMPDEST SWAP2 POP POP SWAP3 SWAP2 POP POP JUMP JUMPDEST PUSH1 0x0 PUSH20 0xFFFFFFFFFFFFFFFFFFFFFFFFFFFFFFFFFFFFFFFF DUP3 AND SWAP1 POP SWAP2 SWAP1 POP JUMP JUMPDEST PUSH1 0x0 PUSH2 0x1F66 DUP3 PUSH2 0x1F3B JUMP JUMPDEST SWAP1 POP SWAP2 SWAP1 POP JUMP JUMPDEST PUSH2 0x1F76 DUP2 PUSH2 0x1F5B JUMP JUMPDEST DUP3 MSTORE POP POP JUMP JUMPDEST PUSH1 0x0 PUSH1 0x20 DUP3 ADD SWAP1 POP PUSH2 0x1F91 PUSH1 0x0 DUP4 ADD DUP5 PUSH2 0x1F6D JUMP JUMPDEST SWAP3 SWAP2 POP POP JUMP JUMPDEST PUSH1 0x0 DUP1 REVERT JUMPDEST PUSH1 0x0 DUP1 REVERT JUMPDEST PUSH1 0x0 DUP1 REVERT JUMPDEST PUSH1 0x0 DUP1 DUP4 PUSH1 0x1F DUP5 ADD SLT PUSH2 0x1FBC JUMPI PUSH2 0x1FBB PUSH2 0x1F97 JUMP JUMPDEST JUMPDEST DUP3 CALLDATALOAD SWAP1 POP PUSH8 0xFFFFFFFFFFFFFFFF DUP2 GT ISZERO PUSH2 0x1FD9 JUMPI PUSH2 0x1FD8 PUSH2 0x1F9C JUMP JUMPDEST JUMPDEST PUSH1 0x20 DUP4 ADD SWAP2 POP DUP4 PUSH1 0x1 DUP3 MUL DUP4 ADD GT ISZERO PUSH2 0x1FF5 JUMPI PUSH2 0x1FF4 PUSH2 0x1FA1 JUMP JUMPDEST JUMPDEST SWAP3 POP SWAP3 SWAP1 POP JUMP JUMPDEST PUSH1 0x0 DUP1 PUSH1 0x0 DUP1 PUSH1 0x0 DUP1 PUSH1 0x0 DUP1 PUSH1 0x0 DUP1 PUSH1 0xA0 DUP12 DUP14 SUB SLT ISZERO PUSH2 0x201F JUMPI PUSH2 0x201E PUSH2 0x1ECE JUMP JUMPDEST JUMPDEST PUSH1 0x0 DUP12 ADD CALLDATALOAD PUSH8 0xFFFFFFFFFFFFFFFF DUP2 GT ISZERO PUSH2 0x203D JUMPI PUSH2 0x203C PUSH2 0x1ED3 JUMP JUMPDEST JUMPDEST PUSH2 0x2049 DUP14 DUP3 DUP15 ADD PUSH2 0x1FA6 JUMP JUMPDEST SWAP11 POP SWAP11 POP POP PUSH1 0x20 DUP12 ADD CALLDATALOAD PUSH8 0xFFFFFFFFFFFFFFFF DUP2 GT ISZERO PUSH2 0x206C JUMPI PUSH2 0x206B PUSH2 0x1ED3 JUMP JUMPDEST JUMPDEST PUSH2 0x2078 DUP14 DUP3 DUP15 ADD PUSH2 0x1FA6 JUMP JUMPDEST SWAP9 POP SWAP9 POP POP PUSH1 0x40 DUP12 ADD CALLDATALOAD PUSH8 0xFFFFFFFFFFFFFFFF DUP2 GT ISZERO PUSH2 0x209B JUMPI PUSH2 0x209A PUSH2 0x1ED3 JUMP JUMPDEST JUMPDEST PUSH2 0x20A7 DUP14 DUP3 DUP15 ADD PUSH2 0x1FA6 JUMP JUMPDEST SWAP7 POP SWAP7 POP POP PUSH1 0x60 DUP12 ADD CALLDATALOAD PUSH8 0xFFFFFFFFFFFFFFFF DUP2 GT ISZERO PUSH2 0x20CA JUMPI PUSH2 0x20C9 PUSH2 0x1ED3 JUMP JUMPDEST JUMPDEST PUSH2 0x20D6 DUP14 DUP3 DUP15 ADD PUSH2 0x1FA6 JUMP JUMPDEST SWAP5 POP SWAP5 POP POP PUSH1 0x80 DUP12 ADD CALLDATALOAD PUSH8 0xFFFFFFFFFFFFFFFF DUP2 GT ISZERO PUSH2 0x20F9 JUMPI PUSH2 0x20F8 PUSH2 0x1ED3 JUMP JUMPDEST JUMPDEST PUSH2 0x2105 DUP14 DUP3 DUP15 ADD PUSH2 0x1FA6 JUMP JUMPDEST SWAP3 POP SWAP3 POP POP SWAP3 SWAP6 SWAP9 SWAP12 SWAP2 SWAP5 SWAP8 SWAP11 POP SWAP3 SWAP6 SWAP9 POP JUMP JUMPDEST PUSH1 0x0 PUSH2 0x2124 DUP3 PUSH2 0x1F3B JUMP JUMPDEST SWAP1 POP SWAP2 SWAP1 POP JUMP JUMPDEST PUSH2 0x2134 DUP2 PUSH2 0x2119 JUMP JUMPDEST DUP2 EQ PUSH2 0x213F JUMPI PUSH1 0x0 DUP1 REVERT JUMPDEST POP JUMP JUMPDEST PUSH1 0x0 DUP2 CALLDATALOAD SWAP1 POP PUSH2 0x2151 DUP2 PUSH2 0x212B JUMP JUMPDEST SWAP3 SWAP2 POP POP JUMP JUMPDEST PUSH1 0x0 PUSH1 0x20 DUP3 DUP5 SUB SLT ISZERO PUSH2 0x216D JUMPI PUSH2 0x216C PUSH2 0x1ECE JUMP JUMPDEST JUMPDEST PUSH1 0x0 PUSH2 0x217B DUP5 DUP3 DUP6 ADD PUSH2 0x2142 JUMP JUMPDEST SWAP2 POP POP SWAP3 SWAP2 POP POP JUMP JUMPDEST PUSH1 0x0 DUP2 ISZERO ISZERO SWAP1 POP SWAP2 SWAP1 POP JUMP JUMPDEST PUSH2 0x2199 DUP2 PUSH2 0x2184 JUMP JUMPDEST DUP3 MSTORE POP POP JUMP JUMPDEST PUSH1 0x0 PUSH1 0x20 DUP3 ADD SWAP1 POP PUSH2 0x21B4 PUSH1 0x0 DUP4 ADD DUP5 PUSH2 0x2190 JUMP JUMPDEST SWAP3 SWAP2 POP POP JUMP JUMPDEST PUSH1 0x0 DUP1 PUSH1 0x0 DUP1 PUSH1 0x0 DUP1 PUSH1 0x0 DUP1 PUSH1 0x80 DUP10 DUP12 SUB SLT ISZERO PUSH2 0x21DA JUMPI PUSH2 0x21D9 PUSH2 0x1ECE JUMP JUMPDEST JUMPDEST PUSH1 0x0 DUP10 ADD CALLDATALOAD PUSH8 0xFFFFFFFFFFFFFFFF DUP2 GT ISZERO PUSH2 0x21F8 JUMPI PUSH2 0x21F7 PUSH2 0x1ED3 JUMP JUMPDEST JUMPDEST PUSH2 0x2204 DUP12 DUP3 DUP13 ADD PUSH2 0x1FA6 JUMP JUMPDEST SWAP9 POP SWAP9 POP POP PUSH1 0x20 DUP10 ADD CALLDATALOAD PUSH8 0xFFFFFFFFFFFFFFFF DUP2 GT ISZERO PUSH2 0x2227 JUMPI PUSH2 0x2226 PUSH2 0x1ED3 JUMP JUMPDEST JUMPDEST PUSH2 0x2233 DUP12 DUP3 DUP13 ADD PUSH2 0x1FA6 JUMP JUMPDEST SWAP7 POP SWAP7 POP POP PUSH1 0x40 DUP10 ADD CALLDATALOAD PUSH8 0xFFFFFFFFFFFFFFFF DUP2 GT ISZERO PUSH2 0x2256 JUMPI PUSH2 0x2255 PUSH2 0x1ED3 JUMP JUMPDEST JUMPDEST PUSH2 0x2262 DUP12 DUP3 DUP13 ADD PUSH2 0x1FA6 JUMP JUMPDEST SWAP5 POP SWAP5 POP POP PUSH1 0x60 DUP10 ADD CALLDATALOAD PUSH8 0xFFFFFFFFFFFFFFFF DUP2 GT ISZERO PUSH2 0x2285 JUMPI PUSH2 0x2284 PUSH2 0x1ED3 JUMP JUMPDEST JUMPDEST PUSH2 0x2291 DUP12 DUP3 DUP13 ADD PUSH2 0x1FA6 JUMP JUMPDEST SWAP3 POP SWAP3 POP POP SWAP3 SWAP6 SWAP9 POP SWAP3 SWAP6 SWAP9 SWAP1 SWAP4 SWAP7 POP JUMP JUMPDEST PUSH1 0x0 DUP1 PUSH1 0x20 DUP4 DUP6 SUB SLT ISZERO PUSH2 0x22BA JUMPI PUSH2 0x22B9 PUSH2 0x1ECE JUMP JUMPDEST JUMPDEST PUSH1 0x0 DUP4 ADD CALLDATALOAD PUSH8 0xFFFFFFFFFFFFFFFF DUP2 GT ISZERO PUSH2 0x22D8 JUMPI PUSH2 0x22D7 PUSH2 0x1ED3 JUMP JUMPDEST JUMPDEST PUSH2 0x22E4 DUP6 DUP3 DUP7 ADD PUSH2 0x1FA6 JUMP JUMPDEST SWAP3 POP SWAP3 POP POP SWAP3 POP SWAP3 SWAP1 POP JUMP JUMPDEST PUSH2 0x22F9 DUP2 PUSH2 0x2119 JUMP JUMPDEST DUP3 MSTORE POP POP JUMP JUMPDEST PUSH1 0x0 PUSH1 0x20 DUP3 ADD SWAP1 POP PUSH2 0x2314 PUSH1 0x0 DUP4 ADD DUP5 PUSH2 0x22F0 JUMP JUMPDEST SWAP3 SWAP2 POP POP JUMP JUMPDEST PUSH1 0x0 DUP2 MLOAD SWAP1 POP SWAP2 SWAP1 POP JUMP JUMPDEST PUSH1 0x0 DUP3 DUP3 MSTORE PUSH1 0x20 DUP3 ADD SWAP1 POP SWAP3 SWAP2 POP POP JUMP JUMPDEST PUSH1 0x0 JUMPDEST DUP4 DUP2 LT ISZERO PUSH2 0x2354 JUMPI DUP1 DUP3 ADD MLOAD DUP2 DUP5 ADD MSTORE PUSH1 0x20 DUP2 ADD SWAP1 POP PUSH2 0x2339 JUMP JUMPDEST PUSH1 0x0 DUP5 DUP5 ADD MSTORE POP POP POP POP JUMP JUMPDEST PUSH1 0x0 PUSH1 0x1F NOT PUSH1 0x1F DUP4 ADD AND SWAP1 POP SWAP2 SWAP1 POP JUMP JUMPDEST PUSH1 0x0 PUSH2 0x237C DUP3 PUSH2 0x231A JUMP JUMPDEST PUSH2 0x2386 DUP2 DUP6 PUSH2 0x2325 JUMP JUMPDEST SWAP4 POP PUSH2 0x2396 DUP2 DUP6 PUSH1 0x20 DUP7 ADD PUSH2 0x2336 JUMP JUMPDEST PUSH2 0x239F DUP2 PUSH2 0x2360 JUMP JUMPDEST DUP5 ADD SWAP2 POP POP SWAP3 SWAP2 POP POP JUMP JUMPDEST PUSH1 0x0 DUP3 DUP3 MSTORE PUSH1 0x20 DUP3 ADD SWAP1 POP SWAP3 SWAP2 POP POP JUMP JUMPDEST PUSH1 0x0 PUSH2 0x23C6 DUP3 PUSH2 0x231A JUMP JUMPDEST PUSH2 0x23D0 DUP2 DUP6 PUSH2 0x23AA JUMP JUMPDEST SWAP4 POP PUSH2 0x23E0 DUP2 DUP6 PUSH1 0x20 DUP7 ADD PUSH2 0x2336 JUMP JUMPDEST PUSH2 0x23E9 DUP2 PUSH2 0x2360 JUMP JUMPDEST DUP5 ADD SWAP2 POP POP SWAP3 SWAP2 POP POP JUMP JUMPDEST PUSH1 0x0 PUSH1 0x80 DUP4 ADD PUSH1 0x0 DUP4 ADD MLOAD DUP5 DUP3 SUB PUSH1 0x0 DUP7 ADD MSTORE PUSH2 0x2411 DUP3 DUP3 PUSH2 0x23BB JUMP JUMPDEST SWAP2 POP POP PUSH1 0x20 DUP4 ADD MLOAD DUP5 DUP3 SUB PUSH1 0x20 DUP7 ADD MSTORE PUSH2 0x242B DUP3 DUP3 PUSH2 0x23BB JUMP JUMPDEST SWAP2 POP POP PUSH1 0x40 DUP4 ADD MLOAD DUP5 DUP3 SUB PUSH1 0x40 DUP7 ADD MSTORE PUSH2 0x2445 DUP3 DUP3 PUSH2 0x23BB JUMP JUMPDEST SWAP2 POP POP PUSH1 0x60 DUP4 ADD MLOAD DUP5 DUP3 SUB PUSH1 0x60 DUP7 ADD MSTORE PUSH2 0x245F DUP3 DUP3 PUSH2 0x23BB JUMP JUMPDEST SWAP2 POP POP DUP1 SWAP2 POP POP SWAP3 SWAP2 POP POP JUMP JUMPDEST PUSH2 0x2475 DUP2 PUSH2 0x1ED8 JUMP JUMPDEST DUP3 MSTORE POP POP JUMP JUMPDEST PUSH1 0x0 PUSH1 0x80 DUP3 ADD SWAP1 POP DUP2 DUP2 SUB PUSH1 0x0 DUP4 ADD MSTORE PUSH2 0x2495 DUP2 DUP8 PUSH2 0x2371 JUMP JUMPDEST SWAP1 POP DUP2 DUP2 SUB PUSH1 0x20 DUP4 ADD MSTORE PUSH2 0x24A9 DUP2 DUP7 PUSH2 0x23F4 JUMP JUMPDEST SWAP1 POP PUSH2 0x24B8 PUSH1 0x40 DUP4 ADD DUP6 PUSH2 0x246C JUMP JUMPDEST PUSH2 0x24C5 PUSH1 0x60 DUP4 ADD DUP5 PUSH2 0x2190 JUMP JUMPDEST SWAP6 SWAP5 POP POP POP POP POP JUMP JUMPDEST PUSH1 0x0 PUSH1 0xA0 DUP3 ADD SWAP1 POP DUP2 DUP2 SUB PUSH1 0x0 DUP4 ADD MSTORE PUSH2 0x24E8 DUP2 DUP9 PUSH2 0x2371 JUMP JUMPDEST SWAP1 POP DUP2 DUP2 SUB PUSH1 0x20 DUP4 ADD MSTORE PUSH2 0x24FC DUP2 DUP8 PUSH2 0x2371 JUMP JUMPDEST SWAP1 POP DUP2 DUP2 SUB PUSH1 0x40 DUP4 ADD MSTORE PUSH2 0x2510 DUP2 DUP7 PUSH2 0x2371 JUMP JUMPDEST SWAP1 POP DUP2 DUP2 SUB PUSH1 0x60 DUP4 ADD MSTORE PUSH2 0x2524 DUP2 DUP6 PUSH2 0x2371 JUMP JUMPDEST SWAP1 POP PUSH2 0x2533 PUSH1 0x80 DUP4 ADD DUP5 PUSH2 0x246C JUMP JUMPDEST SWAP7 SWAP6 POP POP POP POP POP POP JUMP JUMPDEST PUSH1 0x0 DUP1 REVERT JUMPDEST PUSH32 0x4E487B7100000000000000000000000000000000000000000000000000000000 PUSH1 0x0 MSTORE PUSH1 0x41 PUSH1 0x4 MSTORE PUSH1 0x24 PUSH1 0x0 REVERT JUMPDEST PUSH2 0x257A DUP3 PUSH2 0x2360 JUMP JUMPDEST DUP2 ADD DUP2 DUP2 LT PUSH8 0xFFFFFFFFFFFFFFFF DUP3 GT OR ISZERO PUSH2 0x2599 JUMPI PUSH2 0x2598 PUSH2 0x2542 JUMP JUMPDEST JUMPDEST DUP1 PUSH1 0x40 MSTORE POP POP POP JUMP JUMPDEST PUSH1 0x0 PUSH2 0x25AC PUSH2 0x1EC4 JUMP JUMPDEST SWAP1 POP PUSH2 0x25B8 DUP3 DUP3 PUSH2 0x2571 JUMP JUMPDEST SWAP2 SWAP1 POP JUMP JUMPDEST PUSH1 0x0 PUSH8 0xFFFFFFFFFFFFFFFF DUP3 GT ISZERO PUSH2 0x25D8 JUMPI PUSH2 0x25D7 PUSH2 0x2542 JUMP JUMPDEST JUMPDEST PUSH2 0x25E1 DUP3 PUSH2 0x2360 JUMP JUMPDEST SWAP1 POP PUSH1 0x20 DUP2 ADD SWAP1 POP SWAP2 SWAP1 POP JUMP JUMPDEST DUP3 DUP2 DUP4 CALLDATACOPY PUSH1 0x0 DUP4 DUP4 ADD MSTORE POP POP POP JUMP JUMPDEST PUSH1 0x0 PUSH2 0x2610 PUSH2 0x260B DUP5 PUSH2 0x25BD JUMP JUMPDEST PUSH2 0x25A2 JUMP JUMPDEST SWAP1 POP DUP3 DUP2 MSTORE PUSH1 0x20 DUP2 ADD DUP5 DUP5 DUP5 ADD GT ISZERO PUSH2 0x262C JUMPI PUSH2 0x262B PUSH2 0x253D JUMP JUMPDEST JUMPDEST PUSH2 0x2637 DUP5 DUP3 DUP6 PUSH2 0x25EE JUMP JUMPDEST POP SWAP4 SWAP3 POP POP POP JUMP JUMPDEST PUSH1 0x0 DUP3 PUSH1 0x1F DUP4 ADD SLT PUSH2 0x2654 JUMPI PUSH2 0x2653 PUSH2 0x1F97 JUMP JUMPDEST JUMPDEST DUP2 CALLDATALOAD PUSH2 0x2664 DUP5 DUP3 PUSH1 0x20 DUP7 ADD PUSH2 0x25FD JUMP JUMPDEST SWAP2 POP POP SWAP3 SWAP2 POP POP JUMP JUMPDEST PUSH1 0x0 PUSH1 0x20 DUP3 DUP5 SUB SLT ISZERO PUSH2 0x2683 JUMPI PUSH2 0x2682 PUSH2 0x1ECE JUMP JUMPDEST JUMPDEST PUSH1 0x0 DUP3 ADD CALLDATALOAD PUSH8 0xFFFFFFFFFFFFFFFF DUP2 GT ISZERO PUSH2 0x26A1 JUMPI PUSH2 0x26A0 PUSH2 0x1ED3 JUMP JUMPDEST JUMPDEST PUSH2 0x26AD DUP5 DUP3 DUP6 ADD PUSH2 0x263F JUMP JUMPDEST SWAP2 POP POP SWAP3 SWAP2 POP POP JUMP JUMPDEST PUSH1 0x0 DUP1 PUSH1 0x0 DUP1 PUSH1 0x0 PUSH1 0x80 DUP7 DUP9 SUB SLT ISZERO PUSH2 0x26D2 JUMPI PUSH2 0x26D1 PUSH2 0x1ECE JUMP JUMPDEST JUMPDEST PUSH1 0x0 PUSH2 0x26E0 DUP9 DUP3 DUP10 ADD PUSH2 0x2142 JUMP JUMPDEST SWAP6 POP POP PUSH1 0x20 PUSH2 0x26F1 DUP9 DUP3 DUP10 ADD PUSH2 0x1EF9 JUMP JUMPDEST SWAP5 POP POP PUSH1 0x40 PUSH2 0x2702 DUP9 DUP3 DUP10 ADD PUSH2 0x2142 JUMP JUMPDEST SWAP4 POP POP PUSH1 0x60 DUP7 ADD CALLDATALOAD PUSH8 0xFFFFFFFFFFFFFFFF DUP2 GT ISZERO PUSH2 0x2723 JUMPI PUSH2 0x2722 PUSH2 0x1ED3 JUMP JUMPDEST JUMPDEST PUSH2 0x272F DUP9 DUP3 DUP10 ADD PUSH2 0x1FA6 JUMP JUMPDEST SWAP3 POP SWAP3 POP POP SWAP3 SWAP6 POP SWAP3 SWAP6 SWAP1 SWAP4 POP JUMP JUMPDEST PUSH1 0x0 PUSH1 0xFF DUP3 AND SWAP1 POP SWAP2 SWAP1 POP JUMP JUMPDEST PUSH2 0x2754 DUP2 PUSH2 0x273E JUMP JUMPDEST DUP2 EQ PUSH2 0x275F JUMPI PUSH1 0x0 DUP1 REVERT JUMPDEST POP JUMP JUMPDEST PUSH1 0x0 DUP2 CALLDATALOAD SWAP1 POP PUSH2 0x2771 DUP2 PUSH2 0x274B JUMP JUMPDEST SWAP3 SWAP2 POP POP JUMP JUMPDEST PUSH1 0x0 PUSH1 0x20 DUP3 DUP5 SUB SLT ISZERO PUSH2 0x278D JUMPI PUSH2 0x278C PUSH2 0x1ECE JUMP JUMPDEST JUMPDEST PUSH1 0x0 PUSH2 0x279B DUP5 DUP3 DUP6 ADD PUSH2 0x2762 JUMP JUMPDEST SWAP2 POP POP SWAP3 SWAP2 POP POP JUMP JUMPDEST PUSH2 0x27AD DUP2 PUSH2 0x273E JUMP JUMPDEST DUP3 MSTORE POP POP JUMP JUMPDEST PUSH1 0x0 PUSH1 0x20 DUP3 ADD SWAP1 POP PUSH2 0x27C8 PUSH1 0x0 DUP4 ADD DUP5 PUSH2 0x27A4 JUMP JUMPDEST SWAP3 SWAP2 POP POP JUMP JUMPDEST PUSH32 0x557365726E616D652063616E6E6F7420626520656D7074790000000000000000 PUSH1 0x0 DUP3 ADD MSTORE POP JUMP JUMPDEST PUSH1 0x0 PUSH2 0x2804 PUSH1 0x18 DUP4 PUSH2 0x2325 JUMP JUMPDEST SWAP2 POP PUSH2 0x280F DUP3 PUSH2 0x27CE JUMP JUMPDEST PUSH1 0x20 DUP3 ADD SWAP1 POP SWAP2 SWAP1 POP JUMP JUMPDEST PUSH1 0x0 PUSH1 0x20 DUP3 ADD SWAP1 POP DUP2 DUP2 SUB PUSH1 0x0 DUP4 ADD MSTORE PUSH2 0x2833 DUP2 PUSH2 0x27F7 JUMP JUMPDEST SWAP1 POP SWAP2 SWAP1 POP JUMP JUMPDEST PUSH32 0x416C726561647920726567697374657265640000000000000000000000000000 PUSH1 0x0 DUP3 ADD MSTORE POP JUMP JUMPDEST PUSH1 0x0 PUSH2 0x2870 PUSH1 0x12 DUP4 PUSH2 0x2325 JUMP JUMPDEST SWAP2 POP PUSH2 0x287B DUP3 PUSH2 0x283A JUMP JUMPDEST PUSH1 0x20 DUP3 ADD SWAP1 POP SWAP2 SWAP1 POP JUMP JUMPDEST PUSH1 0x0 PUSH1 0x20 DUP3 ADD SWAP1 POP DUP2 DUP2 SUB PUSH1 0x0 DUP4 ADD MSTORE PUSH2 0x289F DUP2 PUSH2 0x2863 JUMP JUMPDEST SWAP1 POP SWAP2 SWAP1 POP JUMP JUMPDEST PUSH1 0x0 DUP2 SWAP1 POP SWAP3 SWAP2 POP POP JUMP JUMPDEST PUSH1 0x0 PUSH2 0x28BD DUP4 DUP6 PUSH2 0x28A6 JUMP JUMPDEST SWAP4 POP PUSH2 0x28CA DUP4 DUP6 DUP5 PUSH2 0x25EE JUMP JUMPDEST DUP3 DUP5 ADD SWAP1 POP SWAP4 SWAP3 POP POP POP JUMP JUMPDEST PUSH1 0x0 PUSH2 0x28E3 DUP3 DUP5 DUP7 PUSH2 0x28B1 JUMP JUMPDEST SWAP2 POP DUP2 SWAP1 POP SWAP4 SWAP3 POP POP POP JUMP JUMPDEST PUSH32 0x557365726E616D652074616B656E000000000000000000000000000000000000 PUSH1 0x0 DUP3 ADD MSTORE POP JUMP JUMPDEST PUSH1 0x0 PUSH2 0x2925 PUSH1 0xE DUP4 PUSH2 0x2325 JUMP JUMPDEST SWAP2 POP PUSH2 0x2930 DUP3 PUSH2 0x28EF JUMP JUMPDEST PUSH1 0x20 DUP3 ADD SWAP1 POP SWAP2 SWAP1 POP JUMP JUMPDEST PUSH1 0x0 PUSH1 0x20 DUP3 ADD SWAP1 POP DUP2 DUP2 SUB PUSH1 0x0 DUP4 ADD MSTORE PUSH2 0x2954 DUP2 PUSH2 0x2918 JUMP JUMPDEST SWAP1 POP SWAP2 SWAP1 POP JUMP JUMPDEST PUSH32 0x4E487B7100000000000000000000000000000000000000000000000000000000 PUSH1 0x0 MSTORE PUSH1 0x22 PUSH1 0x4 MSTORE PUSH1 0x24 PUSH1 0x0 REVERT JUMPDEST PUSH1 0x0 PUSH1 0x2 DUP3 DIV SWAP1 POP PUSH1 0x1 DUP3 AND DUP1 PUSH2 0x29A2 JUMPI PUSH1 0x7F DUP3 AND SWAP2 POP JUMPDEST PUSH1 0x20 DUP3 LT DUP2 SUB PUSH2 0x29B5 JUMPI PUSH2 0x29B4 PUSH2 0x295B JUMP JUMPDEST JUMPDEST POP SWAP2 SWAP1 POP JUMP JUMPDEST PUSH1 0x0 DUP2 SWAP1 POP DUP2 PUSH1 0x0 MSTORE PUSH1 0x20 PUSH1 0x0 KECCAK256 SWAP1 POP SWAP2 SWAP1 POP JUMP JUMPDEST PUSH1 0x0 PUSH1 0x20 PUSH1 0x1F DUP4 ADD DIV SWAP1 POP SWAP2 SWAP1 POP JUMP JUMPDEST PUSH1 0x0 DUP3 DUP3 SHL SWAP1 POP SWAP3 SWAP2 POP POP JUMP JUMPDEST PUSH1 0x0 PUSH1 0x8 DUP4 MUL PUSH2 0x2A1D PUSH32 0xFFFFFFFFFFFFFFFFFFFFFFFFFFFFFFFFFFFFFFFFFFFFFFFFFFFFFFFFFFFFFFFF DUP3 PUSH2 0x29E0 JUMP JUMPDEST PUSH2 0x2A27 DUP7 DUP4 PUSH2 0x29E0 JUMP JUMPDEST SWAP6 POP DUP1 NOT DUP5 AND SWAP4 POP DUP1 DUP7 AND DUP5 OR SWAP3 POP POP POP SWAP4 SWAP3 POP POP POP JUMP JUMPDEST PUSH1 0x0 DUP2 SWAP1 POP SWAP2 SWAP1 POP JUMP JUMPDEST PUSH1 0x0 PUSH2 0x2A64 PUSH2 0x2A5F PUSH2 0x2A5A DUP5 PUSH2 0x1ED8 JUMP JUMPDEST PUSH2 0x2A3F JUMP JUMPDEST PUSH2 0x1ED8 JUMP JUMPDEST SWAP1 POP SWAP2 SWAP1 POP JUMP JUMPDEST PUSH1 0x0 DUP2 SWAP1 POP SWAP2 SWAP1 POP JUMP JUMPDEST PUSH2 0x2A7E DUP4 PUSH2 0x2A49 JUMP JUMPDEST PUSH2 0x2A92 PUSH2 0x2A8A DUP3 PUSH2 0x2A6B JUMP JUMPDEST DUP5 DUP5 SLOAD PUSH2 0x29ED JUMP JUMPDEST DUP3 SSTORE POP POP POP POP JUMP JUMPDEST PUSH1 0x0 SWAP1 JUMP JUMPDEST PUSH2 0x2AA7 PUSH2 0x2A9A JUMP JUMPDEST PUSH2 0x2AB2 DUP2 DUP5 DUP5 PUSH2 0x2A75 JUMP JUMPDEST POP POP POP JUMP JUMPDEST JUMPDEST DUP2 DUP2 LT ISZERO PUSH2 0x2AD6 JUMPI PUSH2 0x2ACB PUSH1 0x0 DUP3 PUSH2 0x2A9F JUMP JUMPDEST PUSH1 0x1 DUP2 ADD SWAP1 POP PUSH2 0x2AB8 JUMP JUMPDEST POP POP JUMP JUMPDEST PUSH1 0x1F DUP3 GT ISZERO PUSH2 0x2B1B JUMPI PUSH2 0x2AEC DUP2 PUSH2 0x29BB JUMP JUMPDEST PUSH2 0x2AF5 DUP5 PUSH2 0x29D0 JUMP JUMPDEST DUP2 ADD PUSH1 0x20 DUP6 LT ISZERO PUSH2 0x2B04 JUMPI DUP2 SWAP1 POP JUMPDEST PUSH2 0x2B18 PUSH2 0x2B10 DUP6 PUSH2 0x29D0 JUMP JUMPDEST DUP4 ADD DUP3 PUSH2 0x2AB7 JUMP JUMPDEST POP POP JUMPDEST POP POP POP JUMP JUMPDEST PUSH1 0x0 DUP3 DUP3 SHR SWAP1 POP SWAP3 SWAP2 POP POP JUMP JUMPDEST PUSH1 0x0 PUSH2 0x2B3E PUSH1 0x0 NOT DUP5 PUSH1 0x8 MUL PUSH2 0x2B20 JUMP JUMPDEST NOT DUP1 DUP4 AND SWAP2 POP POP SWAP3 SWAP2 POP POP JUMP JUMPDEST PUSH1 0x0 PUSH2 0x2B57 DUP4 DUP4 PUSH2 0x2B2D JUMP JUMPDEST SWAP2 POP DUP3 PUSH1 0x2 MUL DUP3 OR SWAP1 POP SWAP3 SWAP2 POP POP JUMP JUMPDEST PUSH2 0x2B70 DUP3 PUSH2 0x231A JUMP JUMPDEST PUSH8 0xFFFFFFFFFFFFFFFF DUP2 GT ISZERO PUSH2 0x2B89 JUMPI PUSH2 0x2B88 PUSH2 0x2542 JUMP JUMPDEST JUMPDEST PUSH2 0x2B93 DUP3 SLOAD PUSH2 0x298A JUMP JUMPDEST PUSH2 0x2B9E DUP3 DUP3 DUP6 PUSH2 0x2ADA JUMP JUMPDEST PUSH1 0x0 PUSH1 0x20 SWAP1 POP PUSH1 0x1F DUP4 GT PUSH1 0x1 DUP2 EQ PUSH2 0x2BD1 JUMPI PUSH1 0x0 DUP5 ISZERO PUSH2 0x2BBF JUMPI DUP3 DUP8 ADD MLOAD SWAP1 POP JUMPDEST PUSH2 0x2BC9 DUP6 DUP3 PUSH2 0x2B4B JUMP JUMPDEST DUP7 SSTORE POP PUSH2 0x2C31 JUMP JUMPDEST PUSH1 0x1F NOT DUP5 AND PUSH2 0x2BDF DUP7 PUSH2 0x29BB JUMP JUMPDEST PUSH1 0x0 JUMPDEST DUP3 DUP2 LT ISZERO PUSH2 0x2C07 JUMPI DUP5 DUP10 ADD MLOAD DUP3 SSTORE PUSH1 0x1 DUP3 ADD SWAP2 POP PUSH1 0x20 DUP6 ADD SWAP5 POP PUSH1 0x20 DUP2 ADD SWAP1 POP PUSH2 0x2BE2 JUMP JUMPDEST DUP7 DUP4 LT ISZERO PUSH2 0x2C24 JUMPI DUP5 DUP10 ADD MLOAD PUSH2 0x2C20 PUSH1 0x1F DUP10 AND DUP3 PUSH2 0x2B2D JUMP JUMPDEST DUP4 SSTORE POP JUMPDEST PUSH1 0x1 PUSH1 0x2 DUP9 MUL ADD DUP9 SSTORE POP POP POP JUMPDEST POP POP POP POP POP POP JUMP JUMPDEST PUSH1 0x0 PUSH2 0x2C45 DUP4 DUP6 PUSH2 0x2325 JUMP JUMPDEST SWAP4 POP PUSH2 0x2C52 DUP4 DUP6 DUP5 PUSH2 0x25EE JUMP JUMPDEST PUSH2 0x2C5B DUP4 PUSH2 0x2360 JUMP JUMPDEST DUP5 ADD SWAP1 POP SWAP4 SWAP3 POP POP POP JUMP JUMPDEST PUSH1 0x0 PUSH1 0x20 DUP3 ADD SWAP1 POP DUP2 DUP2 SUB PUSH1 0x0 DUP4 ADD MSTORE PUSH2 0x2C81 DUP2 DUP5 DUP7 PUSH2 0x2C39 JUMP JUMPDEST SWAP1 POP SWAP4 SWAP3 POP POP POP JUMP JUMPDEST PUSH32 0x4E487B7100000000000000000000000000000000000000000000000000000000 PUSH1 0x0 MSTORE PUSH1 0x32 PUSH1 0x4 MSTORE PUSH1 0x24 PUSH1 0x0 REVERT JUMPDEST PUSH32 0x4F6E6C79206F776E65722063616E2061646420746F6B656E0000000000000000 PUSH1 0x0 DUP3 ADD MSTORE POP JUMP JUMPDEST PUSH1 0x0 PUSH2 0x2CEF PUSH1 0x18 DUP4 PUSH2 0x2325 JUMP JUMPDEST SWAP2 POP PUSH2 0x2CFA DUP3 PUSH2 0x2CB9 JUMP JUMPDEST PUSH1 0x20 DUP3 ADD SWAP1 POP SWAP2 SWAP1 POP JUMP JUMPDEST PUSH1 0x0 PUSH1 0x20 DUP3 ADD SWAP1 POP DUP2 DUP2 SUB PUSH1 0x0 DUP4 ADD MSTORE PUSH2 0x2D1E DUP2 PUSH2 0x2CE2 JUMP JUMPDEST SWAP1 POP SWAP2 SWAP1 POP JUMP JUMPDEST PUSH32 0x496E76616C696420616464726573730000000000000000000000000000000000 PUSH1 0x0 DUP3 ADD MSTORE POP JUMP JUMPDEST PUSH1 0x0 PUSH2 0x2D5B PUSH1 0xF DUP4 PUSH2 0x2325 JUMP JUMPDEST SWAP2 POP PUSH2 0x2D66 DUP3 PUSH2 0x2D25 JUMP JUMPDEST PUSH1 0x20 DUP3 ADD SWAP1 POP SWAP2 SWAP1 POP JUMP JUMPDEST PUSH1 0x0 PUSH1 0x20 DUP3 ADD SWAP1 POP DUP2 DUP2 SUB PUSH1 0x0 DUP4 ADD MSTORE PUSH2 0x2D8A DUP2 PUSH2 0x2D4E JUMP JUMPDEST SWAP1 POP SWAP2 SWAP1 POP JUMP JUMPDEST PUSH32 0x4E6F7420726567697374657265642061732063726561746F7200000000000000 PUSH1 0x0 DUP3 ADD MSTORE POP JUMP JUMPDEST PUSH1 0x0 PUSH2 0x2DC7 PUSH1 0x19 DUP4 PUSH2 0x2325 JUMP JUMPDEST SWAP2 POP PUSH2 0x2DD2 DUP3 PUSH2 0x2D91 JUMP JUMPDEST PUSH1 0x20 DUP3 ADD SWAP1 POP SWAP2 SWAP1 POP JUMP JUMPDEST PUSH1 0x0 PUSH1 0x20 DUP3 ADD SWAP1 POP DUP2 DUP2 SUB PUSH1 0x0 DUP4 ADD MSTORE PUSH2 0x2DF6 DUP2 PUSH2 0x2DBA JUMP JUMPDEST SWAP1 POP SWAP2 SWAP1 POP JUMP JUMPDEST PUSH1 0x0 DUP3 SWAP1 POP SWAP3 SWAP2 POP POP JUMP JUMPDEST PUSH2 0x2E12 DUP4 DUP4 PUSH2 0x2DFD JUMP JUMPDEST PUSH8 0xFFFFFFFFFFFFFFFF DUP2 GT ISZERO PUSH2 0x2E2B JUMPI PUSH2 0x2E2A PUSH2 0x2542 JUMP JUMPDEST JUMPDEST PUSH2 0x2E35 DUP3 SLOAD PUSH2 0x298A JUMP JUMPDEST PUSH2 0x2E40 DUP3 DUP3 DUP6 PUSH2 0x2ADA JUMP JUMPDEST PUSH1 0x0 PUSH1 0x1F DUP4 GT PUSH1 0x1 DUP2 EQ PUSH2 0x2E6F JUMPI PUSH1 0x0 DUP5 ISZERO PUSH2 0x2E5D JUMPI DUP3 DUP8 ADD CALLDATALOAD SWAP1 POP JUMPDEST PUSH2 0x2E67 DUP6 DUP3 PUSH2 0x2B4B JUMP JUMPDEST DUP7 SSTORE POP PUSH2 0x2ECF JUMP JUMPDEST PUSH1 0x1F NOT DUP5 AND PUSH2 0x2E7D DUP7 PUSH2 0x29BB JUMP JUMPDEST PUSH1 0x0 JUMPDEST DUP3 DUP2 LT ISZERO PUSH2 0x2EA5 JUMPI DUP5 DUP10 ADD CALLDATALOAD DUP3 SSTORE PUSH1 0x1 DUP3 ADD SWAP2 POP PUSH1 0x20 DUP6 ADD SWAP5 POP PUSH1 0x20 DUP2 ADD SWAP1 POP PUSH2 0x2E80 JUMP JUMPDEST DUP7 DUP4 LT ISZERO PUSH2 0x2EC2 JUMPI DUP5 DUP10 ADD CALLDATALOAD PUSH2 0x2EBE PUSH1 0x1F DUP10 AND DUP3 PUSH2 0x2B2D JUMP JUMPDEST DUP4 SSTORE POP JUMPDEST PUSH1 0x1 PUSH1 0x2 DUP9 MUL ADD DUP9 SSTORE POP POP POP JUMPDEST POP POP POP POP POP POP POP JUMP JUMPDEST PUSH1 0x0 PUSH1 0xA0 DUP3 ADD SWAP1 POP DUP2 DUP2 SUB PUSH1 0x0 DUP4 ADD MSTORE PUSH2 0x2EF3 DUP2 DUP12 DUP14 PUSH2 0x2C39 JUMP JUMPDEST SWAP1 POP DUP2 DUP2 SUB PUSH1 0x20 DUP4 ADD MSTORE PUSH2 0x2F08 DUP2 DUP10 DUP12 PUSH2 0x2C39 JUMP JUMPDEST SWAP1 POP DUP2 DUP2 SUB PUSH1 0x40 DUP4 ADD MSTORE PUSH2 0x2F1D DUP2 DUP8 DUP10 PUSH2 0x2C39 JUMP JUMPDEST SWAP1 POP DUP2 DUP2 SUB PUSH1 0x60 DUP4 ADD MSTORE PUSH2 0x2F32 DUP2 DUP6 DUP8 PUSH2 0x2C39 JUMP JUMPDEST SWAP1 POP PUSH2 0x2F41 PUSH1 0x80 DUP4 ADD DUP5 PUSH2 0x246C JUMP JUMPDEST SWAP11 SWAP10 POP POP POP POP POP POP POP POP POP POP JUMP JUMPDEST PUSH32 0x557365726E616D6520616C72656164792074616B656E00000000000000000000 PUSH1 0x0 DUP3 ADD MSTORE POP JUMP JUMPDEST PUSH1 0x0 PUSH2 0x2F85 PUSH1 0x16 DUP4 PUSH2 0x2325 JUMP JUMPDEST SWAP2 POP PUSH2 0x2F90 DUP3 PUSH2 0x2F4F JUMP JUMPDEST PUSH1 0x20 DUP3 ADD SWAP1 POP SWAP2 SWAP1 POP JUMP JUMPDEST PUSH1 0x0 PUSH1 0x20 DUP3 ADD SWAP1 POP DUP2 DUP2 SUB PUSH1 0x0 DUP4 ADD MSTORE PUSH2 0x2FB4 DUP2 PUSH2 0x2F78 JUMP JUMPDEST SWAP1 POP SWAP2 SWAP1 POP JUMP JUMPDEST PUSH1 0x0 PUSH2 0x2FC6 DUP3 PUSH2 0x231A JUMP JUMPDEST PUSH2 0x2FD0 DUP2 DUP6 PUSH2 0x28A6 JUMP JUMPDEST SWAP4 POP PUSH2 0x2FE0 DUP2 DUP6 PUSH1 0x20 DUP7 ADD PUSH2 0x2336 JUMP JUMPDEST DUP1 DUP5 ADD SWAP2 POP POP SWAP3 SWAP2 POP POP JUMP JUMPDEST PUSH1 0x0 PUSH2 0x2FF8 DUP3 DUP5 PUSH2 0x2FBB JUMP JUMPDEST SWAP2 POP DUP2 SWAP1 POP SWAP3 SWAP2 POP POP JUMP JUMPDEST PUSH1 0x0 PUSH1 0x60 DUP3 ADD SWAP1 POP DUP2 DUP2 SUB PUSH1 0x0 DUP4 ADD MSTORE PUSH2 0x301D DUP2 DUP8 PUSH2 0x2371 JUMP JUMPDEST SWAP1 POP DUP2 DUP2 SUB PUSH1 0x20 DUP4 ADD MSTORE PUSH2 0x3032 DUP2 DUP6 DUP8 PUSH2 0x2C39 JUMP JUMPDEST SWAP1 POP PUSH2 0x3041 PUSH1 0x40 DUP4 ADD DUP5 PUSH2 0x246C JUMP JUMPDEST SWAP6 SWAP5 POP POP POP POP POP JUMP JUMPDEST PUSH32 0x43726561746F72206E6F7420666F756E64000000000000000000000000000000 PUSH1 0x0 DUP3 ADD MSTORE POP JUMP JUMPDEST PUSH1 0x0 PUSH2 0x3080 PUSH1 0x11 DUP4 PUSH2 0x2325 JUMP JUMPDEST SWAP2 POP PUSH2 0x308B DUP3 PUSH2 0x304A JUMP JUMPDEST PUSH1 0x20 DUP3 ADD SWAP1 POP SWAP2 SWAP1 POP JUMP JUMPDEST PUSH1 0x0 PUSH1 0x20 DUP3 ADD SWAP1 POP DUP2 DUP2 SUB PUSH1 0x0 DUP4 ADD MSTORE PUSH2 0x30AF DUP2 PUSH2 0x3073 JUMP JUMPDEST SWAP1 POP SWAP2 SWAP1 POP JUMP JUMPDEST PUSH32 0x416D6F756E74206D75737420626520706F736974697665000000000000000000 PUSH1 0x0 DUP3 ADD MSTORE POP JUMP JUMPDEST PUSH1 0x0 PUSH2 0x30EC PUSH1 0x17 DUP4 PUSH2 0x2325 JUMP JUMPDEST SWAP2 POP PUSH2 0x30F7 DUP3 PUSH2 0x30B6 JUMP JUMPDEST PUSH1 0x20 DUP3 ADD SWAP1 POP SWAP2 SWAP1 POP JUMP JUMPDEST PUSH1 0x0 PUSH1 0x20 DUP3 ADD SWAP1 POP DUP2 DUP2 SUB PUSH1 0x0 DUP4 ADD MSTORE PUSH2 0x311B DUP2 PUSH2 0x30DF JUMP JUMPDEST SWAP1 POP SWAP2 SWAP1 POP JUMP JUMPDEST PUSH32 0x546F6B656E206E6F7420737570706F7274656400000000000000000000000000 PUSH1 0x0 DUP3 ADD MSTORE POP JUMP JUMPDEST PUSH1 0x0 PUSH2 0x3158 PUSH1 0x13 DUP4 PUSH2 0x2325 JUMP JUMPDEST SWAP2 POP PUSH2 0x3163 DUP3 PUSH2 0x3122 JUMP JUMPDEST PUSH1 0x20 DUP3 ADD SWAP1 POP SWAP2 SWAP1 POP JUMP JUMPDEST PUSH1 0x0 PUSH1 0x20 DUP3 ADD SWAP1 POP DUP2 DUP2 SUB PUSH1 0x0 DUP4 ADD MSTORE PUSH2 0x3187 DUP2 PUSH2 0x314B JUMP JUMPDEST SWAP1 POP SWAP2 SWAP1 POP JUMP JUMPDEST PUSH32 0x4E487B7100000000000000000000000000000000000000000000000000000000 PUSH1 0x0 MSTORE PUSH1 0x11 PUSH1 0x4 MSTORE PUSH1 0x24 PUSH1 0x0 REVERT JUMPDEST PUSH1 0x0 PUSH2 0x31C8 DUP3 PUSH2 0x1ED8 JUMP JUMPDEST SWAP2 POP PUSH2 0x31D3 DUP4 PUSH2 0x1ED8 JUMP JUMPDEST SWAP3 POP DUP3 DUP3 MUL PUSH2 0x31E1 DUP2 PUSH2 0x1ED8 JUMP JUMPDEST SWAP2 POP DUP3 DUP3 DIV DUP5 EQ DUP4 ISZERO OR PUSH2 0x31F8 JUMPI PUSH2 0x31F7 PUSH2 0x318E JUMP JUMPDEST JUMPDEST POP SWAP3 SWAP2 POP POP JUMP JUMPDEST PUSH32 0x4E487B7100000000000000000000000000000000000000000000000000000000 PUSH1 0x0 MSTORE PUSH1 0x12 PUSH1 0x4 MSTORE PUSH1 0x24 PUSH1 0x0 REVERT JUMPDEST PUSH1 0x0 PUSH2 0x3239 DUP3 PUSH2 0x1ED8 JUMP JUMPDEST SWAP2 POP PUSH2 0x3244 DUP4 PUSH2 0x1ED8 JUMP JUMPDEST SWAP3 POP DUP3 PUSH2 0x3254 JUMPI PUSH2 0x3253 PUSH2 0x31FF JUMP JUMPDEST JUMPDEST DUP3 DUP3 DIV SWAP1 POP SWAP3 SWAP2 POP POP JUMP JUMPDEST PUSH1 0x0 PUSH2 0x326A DUP3 PUSH2 0x1ED8 JUMP JUMPDEST SWAP2 POP PUSH2 0x3275 DUP4 PUSH2 0x1ED8 JUMP JUMPDEST SWAP3 POP DUP3 DUP3 SUB SWAP1 POP DUP2 DUP2 GT ISZERO PUSH2 0x328D JUMPI PUSH2 0x328C PUSH2 0x318E JUMP JUMPDEST JUMPDEST SWAP3 SWAP2 POP POP JUMP JUMPDEST PUSH1 0x0 PUSH2 0x329E DUP3 PUSH2 0x1ED8 JUMP JUMPDEST SWAP2 POP PUSH2 0x32A9 DUP4 PUSH2 0x1ED8 JUMP JUMPDEST SWAP3 POP DUP3 PUSH2 0x32B9 JUMPI PUSH2 0x32B8 PUSH2 0x31FF JUMP JUMPDEST JUMPDEST DUP3 DUP3 MOD SWAP1 POP SWAP3 SWAP2 POP POP JUMP JUMPDEST PUSH1 0x0 PUSH2 0x32CF DUP3 PUSH2 0x1ED8 JUMP JUMPDEST SWAP2 POP PUSH2 0x32DA DUP4 PUSH2 0x1ED8 JUMP JUMPDEST SWAP3 POP DUP3 DUP3 ADD SWAP1 POP DUP1 DUP3 GT ISZERO PUSH2 0x32F2 JUMPI PUSH2 0x32F1 PUSH2 0x318E JUMP JUMPDEST JUMPDEST SWAP3 SWAP2 POP POP JUMP JUMPDEST PUSH1 0x0 PUSH1 0x80 DUP3 ADD SWAP1 POP PUSH2 0x330D PUSH1 0x0 DUP4 ADD DUP9 PUSH2 0x246C JUMP JUMPDEST PUSH2 0x331A PUSH1 0x20 DUP4 ADD DUP8 PUSH2 0x246C JUMP JUMPDEST DUP2 DUP2 SUB PUSH1 0x40 DUP4 ADD MSTORE PUSH2 0x332D DUP2 DUP6 DUP8 PUSH2 0x2C39 JUMP JUMPDEST SWAP1 POP PUSH2 0x333C PUSH1 0x60 DUP4 ADD DUP5 PUSH2 0x246C JUMP JUMPDEST SWAP7 SWAP6 POP POP POP POP POP POP JUMP JUMPDEST PUSH32 0x4F6E6C79206F776E65722063616E207365742066656500000000000000000000 PUSH1 0x0 DUP3 ADD MSTORE POP JUMP JUMPDEST PUSH1 0x0 PUSH2 0x337C PUSH1 0x16 DUP4 PUSH2 0x2325 JUMP JUMPDEST SWAP2 POP PUSH2 0x3387 DUP3 PUSH2 0x3346 JUMP JUMPDEST PUSH1 0x20 DUP3 ADD SWAP1 POP SWAP2 SWAP1 POP JUMP JUMPDEST PUSH1 0x0 PUSH1 0x20 DUP3 ADD SWAP1 POP DUP2 DUP2 SUB PUSH1 0x0 DUP4 ADD MSTORE PUSH2 0x33AB DUP2 PUSH2 0x336F JUMP JUMPDEST SWAP1 POP SWAP2 SWAP1 POP JUMP JUMPDEST PUSH32 0x496E76616C6964206665652072616E6765000000000000000000000000000000 PUSH1 0x0 DUP3 ADD MSTORE POP JUMP JUMPDEST PUSH1 0x0 PUSH2 0x33E8 PUSH1 0x11 DUP4 PUSH2 0x2325 JUMP JUMPDEST SWAP2 POP PUSH2 0x33F3 DUP3 PUSH2 0x33B2 JUMP JUMPDEST PUSH1 0x20 DUP3 ADD SWAP1 POP SWAP2 SWAP1 POP JUMP JUMPDEST PUSH1 0x0 PUSH1 0x20 DUP3 ADD SWAP1 POP DUP2 DUP2 SUB PUSH1 0x0 DUP4 ADD MSTORE PUSH2 0x3417 DUP2 PUSH2 0x33DB JUMP JUMPDEST SWAP1 POP SWAP2 SWAP1 POP JUMP JUMPDEST PUSH32 0x4F6E6C79206F776E65722063616E206368616E676520666F7277617264657200 PUSH1 0x0 DUP3 ADD MSTORE POP JUMP JUMPDEST PUSH1 0x0 PUSH2 0x3454 PUSH1 0x1F DUP4 PUSH2 0x2325 JUMP JUMPDEST SWAP2 POP PUSH2 0x345F DUP3 PUSH2 0x341E JUMP JUMPDEST PUSH1 0x20 DUP3 ADD SWAP1 POP SWAP2 SWAP1 POP JUMP JUMPDEST PUSH1 0x0 PUSH1 0x20 DUP3 ADD SWAP1 POP DUP2 DUP2 SUB PUSH1 0x0 DUP4 ADD MSTORE PUSH2 0x3483 DUP2 PUSH2 0x3447 JUMP JUMPDEST SWAP1 POP SWAP2 SWAP1 POP JUMP JUMPDEST PUSH1 0x0 PUSH1 0x60 DUP3 ADD SWAP1 POP PUSH2 0x349F PUSH1 0x0 DUP4 ADD DUP7 PUSH2 0x22F0 JUMP JUMPDEST PUSH2 0x34AC PUSH1 0x20 DUP4 ADD DUP6 PUSH2 0x22F0 JUMP JUMPDEST PUSH2 0x34B9 PUSH1 0x40 DUP4 ADD DUP5 PUSH2 0x246C JUMP JUMPDEST SWAP5 SWAP4 POP POP POP POP JUMP JUMPDEST PUSH1 0x0 PUSH1 0x40 DUP3 ADD SWAP1 POP PUSH2 0x34D6 PUSH1 0x0 DUP4 ADD DUP6 PUSH2 0x22F0 JUMP JUMPDEST PUSH2 0x34E3 PUSH1 0x20 DUP4 ADD DUP5 PUSH2 0x246C JUMP JUMPDEST SWAP4 SWAP3 POP POP POP JUMP JUMPDEST PUSH1 0x0 DUP1 REVERT JUMPDEST PUSH1 0x0 DUP1 REVERT JUMPDEST PUSH1 0x0 DUP1 DUP6 DUP6 GT ISZERO PUSH2 0x3508 JUMPI PUSH2 0x3507 PUSH2 0x34EA JUMP JUMPDEST JUMPDEST DUP4 DUP7 GT ISZERO PUSH2 0x3519 JUMPI PUSH2 0x3518 PUSH2 0x34EF JUMP JUMPDEST JUMPDEST PUSH1 0x1 DUP6 MUL DUP4 ADD SWAP2 POP DUP5 DUP7 SUB SWAP1 POP SWAP5 POP SWAP5 SWAP3 POP POP POP JUMP JUMPDEST PUSH1 0x0 DUP3 SWAP1 POP SWAP3 SWAP2 POP POP JUMP JUMPDEST PUSH1 0x0 PUSH32 0xFFFFFFFFFFFFFFFFFFFFFFFFFFFFFFFFFFFFFFFF000000000000000000000000 DUP3 AND SWAP1 POP SWAP2 SWAP1 POP JUMP JUMPDEST PUSH1 0x0 PUSH2 0x3572 DUP4 DUP4 PUSH2 0x352F JUMP JUMPDEST DUP3 PUSH2 0x357D DUP2 CALLDATALOAD PUSH2 0x353A JUMP JUMPDEST SWAP3 POP PUSH1 0x14 DUP3 LT ISZERO PUSH2 0x35BD JUMPI PUSH2 0x35B8 PUSH32 0xFFFFFFFFFFFFFFFFFFFFFFFFFFFFFFFFFFFFFFFF000000000000000000000000 DUP4 PUSH1 0x14 SUB PUSH1 0x8 MUL PUSH2 0x29E0 JUMP JUMPDEST DUP4 AND SWAP3 POP JUMPDEST POP POP SWAP3 SWAP2 POP POP JUMP INVALID LOG2 PUSH5 0x6970667358 0x22 SLT KECCAK256 0x2C 0x2F 0xD8 0xE7 0x4C 0xD7 0xEC CREATE 0x23 SWAP12 PUSH0 PUSH5 0x497CA3C030 0x24 PUSH14 0xA0D14C5778A0BE385CE99D280764 PUSH20 0x6F6C634300081C00330000000000000000000000 "
        },
        "methodIdentifiers": {
          "addAllowedToken(address)": "4178617f",
          "allowedTokens(address)": "e744092e",
          "changeUsername(string)": "77c846af",
          "creators(address)": "933166e1",
          "donateToCreator(address,uint256,address,string)": "b6605063",
          "editCreatorProfile(string,string,string,string)": "66c74fb4",
          "fee()": "ddca3f43",
          "getCreator(address)": "a0210309",
          "isTrustedForwarder(address)": "572b6c05",
          "owners(uint256)": "025e7c27",
          "setFee(uint8)": "cb122a09",
          "setTrustedForwarder(address)": "da742228",
          "signupCreator(string,string,string,string,string)": "2a7fe0cc",
          "trustedForwarder()": "7da0a877",
          "usernames(string)": "aaee301f"
        }
      }
    }
  }
}