{
  "_format": "hh-sol-artifact-1",
  "contractName": "HertanateDonate",
  "sourceName": "contracts/HertanateDonate.sol",
  "abi": [
    {
      "inputs": [
        {
          "internalType": "address",
          "name": "initialForwarder",
          "type": "address"
        },
        {
          "internalType": "address[]",
          "name": "_initialAllowedTokens",
          "type": "address[]"
        },
        {
          "internalType": "address[]",
          "name": "_initialOwners",
          "type": "address[]"
        }
      ],
      "stateMutability": "nonpayable",
      "type": "constructor"
    },
    {
      "inputs": [
        {
          "internalType": "address",
          "name": "token",
          "type": "address"
        }
      ],
      "name": "SafeERC20FailedOperation",
      "type": "error"
    },
    {
      "anonymous": false,
      "inputs": [
        {
          "indexed": false,
          "internalType": "address",
          "name": "token",
          "type": "address"
        }
      ],
      "name": "AllowedTokenAdded",
      "type": "event"
    },
    {
      "anonymous": false,
      "inputs": [
        {
          "indexed": true,
          "internalType": "address",
          "name": "creator",
          "type": "address"
        },
        {
          "indexed": false,
          "internalType": "string",
          "name": "name",
          "type": "string"
        },
        {
          "indexed": false,
          "internalType": "string",
          "name": "image",
          "type": "string"
        },
        {
          "indexed": false,
          "internalType": "string",
          "name": "bio",
          "type": "string"
        },
        {
          "indexed": false,
          "internalType": "string",
          "name": "socials",
          "type": "string"
        },
        {
          "indexed": false,
          "internalType": "uint256",
          "name": "timestamp",
          "type": "uint256"
        }
      ],
      "name": "CreatorProfileUpdated",
      "type": "event"
    },
    {
      "anonymous": false,
      "inputs": [
        {
          "indexed": true,
          "internalType": "address",
          "name": "creator",
          "type": "address"
        },
        {
          "indexed": false,
          "internalType": "string",
          "name": "username",
          "type": "string"
        }
      ],
      "name": "CreatorRegistered",
      "type": "event"
    },
    {
      "anonymous": false,
      "inputs": [
        {
          "indexed": true,
          "internalType": "address",
          "name": "from",
          "type": "address"
        },
        {
          "indexed": true,
          "internalType": "address",
          "name": "creator",
          "type": "address"
        },
        {
          "indexed": false,
          "internalType": "uint256",
          "name": "amount",
          "type": "uint256"
        },
        {
          "indexed": false,
          "internalType": "uint256",
          "name": "feeAmount",
          "type": "uint256"
        },
        {
          "indexed": false,
          "internalType": "string",
          "name": "message",
          "type": "string"
        },
        {
          "indexed": false,
          "internalType": "uint256",
          "name": "timestamp",
          "type": "uint256"
        }
      ],
      "name": "DonationSent",
      "type": "event"
    },
    {
      "anonymous": false,
      "inputs": [
        {
          "indexed": false,
          "internalType": "uint8",
          "name": "oldFee",
          "type": "uint8"
        },
        {
          "indexed": false,
          "internalType": "uint8",
          "name": "newFee",
          "type": "uint8"
        }
      ],
      "name": "FeeChanged",
      "type": "event"
    },
    {
      "anonymous": false,
      "inputs": [
        {
          "indexed": false,
          "internalType": "address",
          "name": "oldForwader",
          "type": "address"
        },
        {
          "indexed": false,
          "internalType": "address",
          "name": "newForwarder",
          "type": "address"
        }
      ],
      "name": "TrustedForwarderChanged",
      "type": "event"
    },
    {
      "anonymous": false,
      "inputs": [
        {
          "indexed": true,
          "internalType": "address",
          "name": "creator",
          "type": "address"
        },
        {
          "indexed": false,
          "internalType": "string",
          "name": "oldUsername",
          "type": "string"
        },
        {
          "indexed": false,
          "internalType": "string",
          "name": "newUsername",
          "type": "string"
        },
        {
          "indexed": false,
          "internalType": "uint256",
          "name": "timestamp",
          "type": "uint256"
        }
      ],
      "name": "UsernameChanged",
      "type": "event"
    },
    {
      "inputs": [
        {
          "internalType": "address",
          "name": "_token",
          "type": "address"
        }
      ],
      "name": "addAllowedToken",
      "outputs": [],
      "stateMutability": "nonpayable",
      "type": "function"
    },
    {
      "inputs": [
        {
          "internalType": "address",
          "name": "",
          "type": "address"
        }
      ],
      "name": "allowedTokens",
      "outputs": [
        {
          "internalType": "bool",
          "name": "",
          "type": "bool"
        }
      ],
      "stateMutability": "view",
      "type": "function"
    },
    {
      "inputs": [
        {
          "internalType": "string",
          "name": "_newUsername",
          "type": "string"
        }
      ],
      "name": "changeUsername",
      "outputs": [],
      "stateMutability": "nonpayable",
      "type": "function"
    },
    {
      "inputs": [
        {
          "internalType": "address",
          "name": "",
          "type": "address"
        }
      ],
      "name": "creators",
      "outputs": [
        {
          "internalType": "string",
          "name": "username",
          "type": "string"
        },
        {
          "components": [
            {
              "internalType": "string",
              "name": "image",
              "type": "string"
            },
            {
              "internalType": "string",
              "name": "name",
              "type": "string"
            },
            {
              "internalType": "string",
              "name": "bio",
              "type": "string"
            },
            {
              "internalType": "string",
              "name": "socials",
              "type": "string"
            }
          ],
          "internalType": "struct HertanateDonate.CreatorDetail",
          "name": "detail",
          "type": "tuple"
        },
        {
          "internalType": "uint256",
          "name": "totalReceived",
          "type": "uint256"
        },
        {
          "internalType": "bool",
          "name": "isActive",
          "type": "bool"
        }
      ],
      "stateMutability": "view",
      "type": "function"
    },
    {
      "inputs": [
        {
          "internalType": "address",
          "name": "_creator",
          "type": "address"
        },
        {
          "internalType": "uint256",
          "name": "_amount",
          "type": "uint256"
        },
        {
          "internalType": "address",
          "name": "_token",
          "type": "address"
        },
        {
          "internalType": "string",
          "name": "_message",
          "type": "string"
        }
      ],
      "name": "donateToCreator",
      "outputs": [],
      "stateMutability": "payable",
      "type": "function"
    },
    {
      "inputs": [
        {
          "internalType": "string",
          "name": "_name",
          "type": "string"
        },
        {
          "internalType": "string",
          "name": "_image",
          "type": "string"
        },
        {
          "internalType": "string",
          "name": "_bio",
          "type": "string"
        },
        {
          "internalType": "string",
          "name": "_socials",
          "type": "string"
        }
      ],
      "name": "editCreatorProfile",
      "outputs": [],
      "stateMutability": "nonpayable",
      "type": "function"
    },
    {
      "inputs": [],
      "name": "fee",
      "outputs": [
        {
          "internalType": "uint8",
          "name": "",
          "type": "uint8"
        }
      ],
      "stateMutability": "view",
      "type": "function"
    },
    {
      "inputs": [
        {
          "internalType": "address",
          "name": "_creator",
          "type": "address"
        }
      ],
      "name": "getCreator",
      "outputs": [
        {
          "internalType": "string",
          "name": "username",
          "type": "string"
        },
        {
          "internalType": "string",
          "name": "name",
          "type": "string"
        },
        {
          "internalType": "string",
          "name": "bio",
          "type": "string"
        },
        {
          "internalType": "string",
          "name": "socials",
          "type": "string"
        },
        {
          "internalType": "uint256",
          "name": "totalReceived",
          "type": "uint256"
        }
      ],
      "stateMutability": "view",
      "type": "function"
    },
    {
      "inputs": [
        {
          "internalType": "address",
          "name": "forwarder",
          "type": "address"
        }
      ],
      "name": "isTrustedForwarder",
      "outputs": [
        {
          "internalType": "bool",
          "name": "",
          "type": "bool"
        }
      ],
      "stateMutability": "view",
      "type": "function"
    },
    {
      "inputs": [
        {
          "internalType": "uint256",
          "name": "",
          "type": "uint256"
        }
      ],
      "name": "owners",
      "outputs": [
        {
          "internalType": "address payable",
          "name": "",
          "type": "address"
        }
      ],
      "stateMutability": "view",
      "type": "function"
    },
    {
      "inputs": [
        {
          "internalType": "uint8",
          "name": "_newFee",
          "type": "uint8"
        }
      ],
      "name": "setFee",
      "outputs": [],
      "stateMutability": "nonpayable",
      "type": "function"
    },
    {
      "inputs": [
        {
          "internalType": "address",
          "name": "newForwarder",
          "type": "address"
        }
      ],
      "name": "setTrustedForwarder",
      "outputs": [],
      "stateMutability": "nonpayable",
      "type": "function"
    },
    {
      "inputs": [
        {
          "internalType": "string",
          "name": "_username",
          "type": "string"
        },
        {
          "internalType": "string",
          "name": "_name",
          "type": "string"
        },
        {
          "internalType": "string",
          "name": "_image",
          "type": "string"
        },
        {
          "internalType": "string",
          "name": "_bio",
          "type": "string"
        },
        {
          "internalType": "string",
          "name": "_socials",
          "type": "string"
        }
      ],
      "name": "signupCreator",
      "outputs": [],
      "stateMutability": "nonpayable",
      "type": "function"
    },
    {
      "inputs": [],
      "name": "trustedForwarder",
      "outputs": [
        {
          "internalType": "address",
          "name": "",
          "type": "address"
        }
      ],
      "stateMutability": "view",
      "type": "function"
    },
    {
      "inputs": [
        {
          "internalType": "string",
          "name": "",
          "type": "string"
        }
      ],
      "name": "usernames",
      "outputs": [
        {
          "internalType": "bool",
          "name": "",
          "type": "bool"
        }
      ],
      "stateMutability": "view",
      "type": "function"
    }
  ],
  "bytecode": "0x60a06040526005600160006101000a81548160ff021916908360ff16021790555034801561002c57600080fd5b50604051613dc8380380613dc8833981810160405281019061004e9190610510565b828073ffffffffffffffffffffffffffffffffffffffff1660808173ffffffffffffffffffffffffffffffffffffffff16815250505060008151116100c8576040517f08c379a00000000000000000000000000000000000000000000000000000000081526004016100bf906105f8565b60405180910390fd5b826001806101000a81548173ffffffffffffffffffffffffffffffffffffffff021916908373ffffffffffffffffffffffffffffffffffffffff16021790555060005b815181101561022757600073ffffffffffffffffffffffffffffffffffffffff1682828151811061013f5761013e610618565b5b602002602001015173ffffffffffffffffffffffffffffffffffffffff160361019d576040517f08c379a000000000000000000000000000000000000000000000000000000000815260040161019490610693565b60405180910390fd5b60008282815181106101b2576101b1610618565b5b60200260200101519080600181540180825580915050600190039060005260206000200160009091909190916101000a81548173ffffffffffffffffffffffffffffffffffffffff021916908373ffffffffffffffffffffffffffffffffffffffff160217905550808060010191505061010b565b5060005b825181101561033c57600073ffffffffffffffffffffffffffffffffffffffff1683828151811061025f5761025e610618565b5b602002602001015173ffffffffffffffffffffffffffffffffffffffff16036102bd576040517f08c379a00000000000000000000000000000000000000000000000000000000081526004016102b4906106ff565b60405180910390fd5b6001600460008584815181106102d6576102d5610618565b5b602002602001015173ffffffffffffffffffffffffffffffffffffffff1673ffffffffffffffffffffffffffffffffffffffff16815260200190815260200160002060006101000a81548160ff021916908315150217905550808060010191505061022b565b5050505061071f565b6000604051905090565b600080fd5b600080fd5b600073ffffffffffffffffffffffffffffffffffffffff82169050919050565b600061038482610359565b9050919050565b61039481610379565b811461039f57600080fd5b50565b6000815190506103b18161038b565b92915050565b600080fd5b6000601f19601f8301169050919050565b7f4e487b7100000000000000000000000000000000000000000000000000000000600052604160045260246000fd5b610405826103bc565b810181811067ffffffffffffffff82111715610424576104236103cd565b5b80604052505050565b6000610437610345565b905061044382826103fc565b919050565b600067ffffffffffffffff821115610463576104626103cd565b5b602082029050602081019050919050565b600080fd5b600061048c61048784610448565b61042d565b905080838252602082019050602084028301858111156104af576104ae610474565b5b835b818110156104d857806104c488826103a2565b8452602084019350506020810190506104b1565b5050509392505050565b600082601f8301126104f7576104f66103b7565b5b8151610507848260208601610479565b91505092915050565b6000806000606084860312156105295761052861034f565b5b6000610537868287016103a2565b935050602084015167ffffffffffffffff81111561055857610557610354565b5b610564868287016104e2565b925050604084015167ffffffffffffffff81111561058557610584610354565b5b610591868287016104e2565b9150509250925092565b600082825260208201905092915050565b7f4174206c65617374206f6e65206f776e65720000000000000000000000000000600082015250565b60006105e260128361059b565b91506105ed826105ac565b602082019050919050565b60006020820190508181036000830152610611816105d5565b9050919050565b7f4e487b7100000000000000000000000000000000000000000000000000000000600052603260045260246000fd5b7f496e76616c6964206f776e657200000000000000000000000000000000000000600082015250565b600061067d600d8361059b565b915061068882610647565b602082019050919050565b600060208201905081810360008301526106ac81610670565b9050919050565b7f496e76616c696420746f6b656e00000000000000000000000000000000000000600082015250565b60006106e9600d8361059b565b91506106f4826106b3565b602082019050919050565b60006020820190508181036000830152610718816106dc565b9050919050565b60805161368e61073a6000396000610f7a015261368e6000f3fe6080604052600436106100e85760003560e01c8063933166e11161008a578063cb122a0911610059578063cb122a0914610310578063da74222814610339578063ddca3f4314610362578063e744092e1461038d576100e8565b8063933166e114610236578063a021030914610276578063aaee301f146102b7578063b6605063146102f4576100e8565b8063572b6c05116100c6578063572b6c051461017c57806366c74fb4146101b957806377c846af146101e25780637da0a8771461020b576100e8565b8063025e7c27146100ed5780632a7fe0cc1461012a5780634178617f14610153575b600080fd5b3480156100f957600080fd5b50610114600480360381019061010f9190611fbb565b6103ca565b6040516101219190612029565b60405180910390f35b34801561013657600080fd5b50610151600480360381019061014c91906120a9565b610409565b005b34801561015f57600080fd5b5061017a60048036038101906101759190612204565b610875565b005b34801561018857600080fd5b506101a3600480360381019061019e9190612204565b610a29565b6040516101b0919061224c565b60405180910390f35b3480156101c557600080fd5b506101e060048036038101906101db9190612267565b610a81565b005b3480156101ee57600080fd5b5061020960048036038101906102049190612350565b610c2d565b005b34801561021757600080fd5b50610220610f76565b60405161022d91906123ac565b60405180910390f35b34801561024257600080fd5b5061025d60048036038101906102589190612204565b610f9e565b60405161026d9493929190612528565b60405180910390f35b34801561028257600080fd5b5061029d60048036038101906102989190612204565b6112b5565b6040516102ae95949392919061257b565b60405180910390f35b3480156102c357600080fd5b506102de60048036038101906102d9919061271a565b6115f1565b6040516102eb919061224c565b60405180910390f35b61030e60048036038101906103099190612763565b611627565b005b34801561031c57600080fd5b5061033760048036038101906103329190612824565b6119ce565b005b34801561034557600080fd5b50610360600480360381019061035b9190612204565b611b42565b005b34801561036e57600080fd5b50610377611d06565b6040516103849190612860565b60405180910390f35b34801561039957600080fd5b506103b460048036038101906103af9190612204565b611d19565b6040516103c1919061224c565b60405180910390f35b600081815481106103da57600080fd5b906000526020600020016000915054906101000a900473ffffffffffffffffffffffffffffffffffffffff1681565b60008a8a90501161044f576040517f08c379a0000000000000000000000000000000000000000000000000000000008152600401610446906128c7565b60405180910390fd5b6002600061045b611d39565b73ffffffffffffffffffffffffffffffffffffffff1673ffffffffffffffffffffffffffffffffffffffff16815260200190815260200160002060060160009054906101000a900460ff16156104e6576040517f08c379a00000000000000000000000000000000000000000000000000000000081526004016104dd90612933565b60405180910390fd5b60038a8a6040516104f8929190612983565b908152602001604051809103902060009054906101000a900460ff1615610554576040517f08c379a000000000000000000000000000000000000000000000000000000000815260040161054b906129e8565b60405180910390fd5b60405180608001604052808b8b8080601f016020809104026020016040519081016040528093929190818152602001838380828437600081840152601f19601f820116905080830192505050505050508152602001604051806080016040528089898080601f016020809104026020016040519081016040528093929190818152602001838380828437600081840152601f19601f8201169050808301925050505050505081526020018b8b8080601f016020809104026020016040519081016040528093929190818152602001838380828437600081840152601f19601f82011690508083019250505050505050815260200187878080601f016020809104026020016040519081016040528093929190818152602001838380828437600081840152601f19601f82011690508083019250505050505050815260200185858080601f016020809104026020016040519081016040528093929190818152602001838380828437600081840152601f19601f8201169050808301925050505050505081525081526020016000815260200160011515815250600260006106f9611d39565b73ffffffffffffffffffffffffffffffffffffffff1673ffffffffffffffffffffffffffffffffffffffff16815260200190815260200160002060008201518160000190816107489190612c14565b5060208201518160010160008201518160000190816107679190612c14565b50602082015181600101908161077d9190612c14565b5060408201518160020190816107939190612c14565b5060608201518160030190816107a99190612c14565b5050506040820151816005015560608201518160060160006101000a81548160ff021916908315150217905550905050600160038b8b6040516107ed929190612983565b908152602001604051809103902060006101000a81548160ff02191690831515021790555061081a611d39565b73ffffffffffffffffffffffffffffffffffffffff167f436a110767b6510e398091d7e698dbc3a574692ec743e8e40f4fb1ccefc00fc88b8b604051610861929190612d13565b60405180910390a250505050505050505050565b6000808154811061088957610888612d37565b5b9060005260206000200160009054906101000a900473ffffffffffffffffffffffffffffffffffffffff1673ffffffffffffffffffffffffffffffffffffffff166108d2611d39565b73ffffffffffffffffffffffffffffffffffffffff1614610928576040517f08c379a000000000000000000000000000000000000000000000000000000000815260040161091f90612db2565b60405180910390fd5b600073ffffffffffffffffffffffffffffffffffffffff168173ffffffffffffffffffffffffffffffffffffffff1603610997576040517f08c379a000000000000000000000000000000000000000000000000000000000815260040161098e90612e1e565b60405180910390fd5b6001600460008373ffffffffffffffffffffffffffffffffffffffff1673ffffffffffffffffffffffffffffffffffffffff16815260200190815260200160002060006101000a81548160ff0219169083151502179055507ff849d00bc67e9e4bf072df9680646c59b8c5380160834c2e1d4896ce5ec81f7581604051610a1e91906123ac565b60405180910390a150565b600060018054906101000a900473ffffffffffffffffffffffffffffffffffffffff1673ffffffffffffffffffffffffffffffffffffffff168273ffffffffffffffffffffffffffffffffffffffff16149050919050565b60026000610a8d611d39565b73ffffffffffffffffffffffffffffffffffffffff1673ffffffffffffffffffffffffffffffffffffffff16815260200190815260200160002060060160009054906101000a900460ff16610b17576040517f08c379a0000000000000000000000000000000000000000000000000000000008152600401610b0e90612e8a565b60405180910390fd5b600060026000610b25611d39565b73ffffffffffffffffffffffffffffffffffffffff1673ffffffffffffffffffffffffffffffffffffffff16815260200190815260200160002090508888826001016001019182610b77929190612eb5565b508686826001016000019182610b8e929190612eb5565b508484826001016002019182610ba5929190612eb5565b508282826001016003019182610bbc929190612eb5565b50610bc5611d39565b73ffffffffffffffffffffffffffffffffffffffff167f07110c32e00f50dcdaa7b59af3e326ffd2df520373d7e74fbc3f05a91a4e4a388a8a8a8a8a8a8a8a42604051610c1a99989796959493929190612f85565b60405180910390a2505050505050505050565b60008282905011610c73576040517f08c379a0000000000000000000000000000000000000000000000000000000008152600401610c6a906128c7565b60405180910390fd5b60026000610c7f611d39565b73ffffffffffffffffffffffffffffffffffffffff1673ffffffffffffffffffffffffffffffffffffffff16815260200190815260200160002060060160009054906101000a900460ff16610d09576040517f08c379a0000000000000000000000000000000000000000000000000000000008152600401610d0090612e8a565b60405180910390fd5b60038282604051610d1b929190612983565b908152602001604051809103902060009054906101000a900460ff1615610d77576040517f08c379a0000000000000000000000000000000000000000000000000000000008152600401610d6e90613048565b60405180910390fd5b600060026000610d85611d39565b73ffffffffffffffffffffffffffffffffffffffff1673ffffffffffffffffffffffffffffffffffffffff1681526020019081526020016000206000018054610dcd90612a37565b80601f0160208091040260200160405190810160405280929190818152602001828054610df990612a37565b8015610e465780601f10610e1b57610100808354040283529160200191610e46565b820191906000526020600020905b815481529060010190602001808311610e2957829003601f168201915b505050505090506000600382604051610e5f9190613099565b908152602001604051809103902060006101000a81548160ff021916908315150217905550828260026000610e92611d39565b73ffffffffffffffffffffffffffffffffffffffff1673ffffffffffffffffffffffffffffffffffffffff1681526020019081526020016000206000019182610edc929190612eb5565b50600160038484604051610ef1929190612983565b908152602001604051809103902060006101000a81548160ff021916908315150217905550610f1e611d39565b73ffffffffffffffffffffffffffffffffffffffff167f81b7c40eb5c177b2597ea463def0a1737f3689c6ae06b5d350bd97348a1e000782858542604051610f6994939291906130b0565b60405180910390a2505050565b60007f0000000000000000000000000000000000000000000000000000000000000000905090565b6002602052806000526040600020600091509050806000018054610fc190612a37565b80601f0160208091040260200160405190810160405280929190818152602001828054610fed90612a37565b801561103a5780601f1061100f5761010080835404028352916020019161103a565b820191906000526020600020905b81548152906001019060200180831161101d57829003601f168201915b5050505050908060010160405180608001604052908160008201805461105f90612a37565b80601f016020809104026020016040519081016040528092919081815260200182805461108b90612a37565b80156110d85780601f106110ad576101008083540402835291602001916110d8565b820191906000526020600020905b8154815290600101906020018083116110bb57829003601f168201915b505050505081526020016001820180546110f190612a37565b80601f016020809104026020016040519081016040528092919081815260200182805461111d90612a37565b801561116a5780601f1061113f5761010080835404028352916020019161116a565b820191906000526020600020905b81548152906001019060200180831161114d57829003601f168201915b5050505050815260200160028201805461118390612a37565b80601f01602080910402602001604051908101604052809291908181526020018280546111af90612a37565b80156111fc5780601f106111d1576101008083540402835291602001916111fc565b820191906000526020600020905b8154815290600101906020018083116111df57829003601f168201915b5050505050815260200160038201805461121590612a37565b80601f016020809104026020016040519081016040528092919081815260200182805461124190612a37565b801561128e5780601f106112635761010080835404028352916020019161128e565b820191906000526020600020905b81548152906001019060200180831161127157829003601f168201915b505050505081525050908060050154908060060160009054906101000a900460ff16905084565b6060806060806000600260008773ffffffffffffffffffffffffffffffffffffffff1673ffffffffffffffffffffffffffffffffffffffff16815260200190815260200160002060060160009054906101000a900460ff1661134c576040517f08c379a000000000000000000000000000000000000000000000000000000000815260040161134390613143565b60405180910390fd5b6000600260008873ffffffffffffffffffffffffffffffffffffffff1673ffffffffffffffffffffffffffffffffffffffff16815260200190815260200160002090508060000181600101600101826001016002018360010160030184600501548480546113b990612a37565b80601f01602080910402602001604051908101604052809291908181526020018280546113e590612a37565b80156114325780601f1061140757610100808354040283529160200191611432565b820191906000526020600020905b81548152906001019060200180831161141557829003601f168201915b5050505050945083805461144590612a37565b80601f016020809104026020016040519081016040528092919081815260200182805461147190612a37565b80156114be5780601f10611493576101008083540402835291602001916114be565b820191906000526020600020905b8154815290600101906020018083116114a157829003601f168201915b505050505093508280546114d190612a37565b80601f01602080910402602001604051908101604052809291908181526020018280546114fd90612a37565b801561154a5780601f1061151f5761010080835404028352916020019161154a565b820191906000526020600020905b81548152906001019060200180831161152d57829003601f168201915b5050505050925081805461155d90612a37565b80601f016020809104026020016040519081016040528092919081815260200182805461158990612a37565b80156115d65780601f106115ab576101008083540402835291602001916115d6565b820191906000526020600020905b8154815290600101906020018083116115b957829003601f168201915b50505050509150955095509550955095505091939590929450565b6003818051602081018201805184825260208301602085012081835280955050505050506000915054906101000a900460ff1681565b600260008673ffffffffffffffffffffffffffffffffffffffff1673ffffffffffffffffffffffffffffffffffffffff16815260200190815260200160002060060160009054906101000a900460ff166116b6576040517f08c379a00000000000000000000000000000000000000000000000000000000081526004016116ad90613143565b60405180910390fd5b600084116116f9576040517f08c379a00000000000000000000000000000000000000000000000000000000081526004016116f0906131af565b60405180910390fd5b600460008473ffffffffffffffffffffffffffffffffffffffff1673ffffffffffffffffffffffffffffffffffffffff16815260200190815260200160002060009054906101000a900460ff16611785576040517f08c379a000000000000000000000000000000000000000000000000000000000815260040161177c9061321b565b60405180910390fd5b60008390506117be611795611d39565b30878473ffffffffffffffffffffffffffffffffffffffff16611d48909392919063ffffffff16565b60006064600160009054906101000a900460ff1660ff16876117e0919061326a565b6117ea91906132db565b9050600081876117fa919061330c565b905061182788828573ffffffffffffffffffffffffffffffffffffffff16611dca9092919063ffffffff16565b600080805490508361183991906132db565b9050600080805490508461184d9190613340565b905060005b6000805490508110156118f457600080821461186e578361187b565b828461187a9190613371565b5b90506118e66000838154811061189457611893612d37565b5b9060005260206000200160009054906101000a900473ffffffffffffffffffffffffffffffffffffffff16828973ffffffffffffffffffffffffffffffffffffffff16611dca9092919063ffffffff16565b508080600101915050611852565b5082600260008c73ffffffffffffffffffffffffffffffffffffffff1673ffffffffffffffffffffffffffffffffffffffff16815260200190815260200160002060050160008282546119479190613371565b925050819055508973ffffffffffffffffffffffffffffffffffffffff1661196d611d39565b73ffffffffffffffffffffffffffffffffffffffff167f28a9fd849105f4b4cc8f3312fd943a75051e466bd1b800c8a4ad91b2c7ccaa268b878b8b426040516119ba9594939291906133a5565b60405180910390a350505050505050505050565b600080815481106119e2576119e1612d37565b5b9060005260206000200160009054906101000a900473ffffffffffffffffffffffffffffffffffffffff1673ffffffffffffffffffffffffffffffffffffffff16611a2b611d39565b73ffffffffffffffffffffffffffffffffffffffff1614611a81576040517f08c379a0000000000000000000000000000000000000000000000000000000008152600401611a789061343f565b60405180910390fd5b60008160ff16118015611a97575060648160ff16105b611ad6576040517f08c379a0000000000000000000000000000000000000000000000000000000008152600401611acd906134ab565b60405180910390fd5b6000600160009054906101000a900460ff16905081600160006101000a81548160ff021916908360ff1602179055507f5ae87c6c78c85ead638fc9795e07688ecf06bcb57baa9b08b28a3e02826b3d0e8183604051611b369291906134cb565b60405180910390a15050565b60008081548110611b5657611b55612d37565b5b9060005260206000200160009054906101000a900473ffffffffffffffffffffffffffffffffffffffff1673ffffffffffffffffffffffffffffffffffffffff16611b9f611d39565b73ffffffffffffffffffffffffffffffffffffffff1614611bf5576040517f08c379a0000000000000000000000000000000000000000000000000000000008152600401611bec9061343f565b60405180910390fd5b600073ffffffffffffffffffffffffffffffffffffffff168173ffffffffffffffffffffffffffffffffffffffff1603611c64576040517f08c379a0000000000000000000000000000000000000000000000000000000008152600401611c5b90612e1e565b60405180910390fd5b600060018054906101000a900473ffffffffffffffffffffffffffffffffffffffff169050816001806101000a81548173ffffffffffffffffffffffffffffffffffffffff021916908373ffffffffffffffffffffffffffffffffffffffff1602179055507f06dff7401eb7fb04d241246ade7f817c7ad512b1bed61c18aedd9bc51eec04758183604051611cfa9291906134f4565b60405180910390a15050565b600160009054906101000a900460ff1681565b60046020528060005260406000206000915054906101000a900460ff1681565b6000611d43611e49565b905090565b611dc4848573ffffffffffffffffffffffffffffffffffffffff166323b872dd868686604051602401611d7d9392919061351d565b604051602081830303815290604052915060e01b6020820180517bffffffffffffffffffffffffffffffffffffffffffffffffffffffff8381831617835250505050611ebe565b50505050565b611e44838473ffffffffffffffffffffffffffffffffffffffff1663a9059cbb8585604051602401611dfd929190613554565b604051602081830303815290604052915060e01b6020820180517bffffffffffffffffffffffffffffffffffffffffffffffffffffffff8381831617835250505050611ebe565b505050565b600080600036905090506000611e5d611f60565b9050611e6833610a29565b8015611e745750808210155b15611eae576000368284611e88919061330c565b908092611e9793929190613587565b90611ea291906135f9565b60601c92505050611ebb565b611eb6611f69565b925050505b90565b600080602060008451602086016000885af180611ee1576040513d6000823e3d81fd5b3d925060005191505060008214611efc576001811415611f18565b60008473ffffffffffffffffffffffffffffffffffffffff163b145b15611f5a57836040517f5274afe7000000000000000000000000000000000000000000000000000000008152600401611f5191906123ac565b60405180910390fd5b50505050565b60006014905090565b600033905090565b6000604051905090565b600080fd5b600080fd5b6000819050919050565b611f9881611f85565b8114611fa357600080fd5b50565b600081359050611fb581611f8f565b92915050565b600060208284031215611fd157611fd0611f7b565b5b6000611fdf84828501611fa6565b91505092915050565b600073ffffffffffffffffffffffffffffffffffffffff82169050919050565b600061201382611fe8565b9050919050565b61202381612008565b82525050565b600060208201905061203e600083018461201a565b92915050565b600080fd5b600080fd5b600080fd5b60008083601f84011261206957612068612044565b5b8235905067ffffffffffffffff81111561208657612085612049565b5b6020830191508360018202830111156120a2576120a161204e565b5b9250929050565b60008060008060008060008060008060a08b8d0312156120cc576120cb611f7b565b5b60008b013567ffffffffffffffff8111156120ea576120e9611f80565b5b6120f68d828e01612053565b9a509a505060208b013567ffffffffffffffff81111561211957612118611f80565b5b6121258d828e01612053565b985098505060408b013567ffffffffffffffff81111561214857612147611f80565b5b6121548d828e01612053565b965096505060608b013567ffffffffffffffff81111561217757612176611f80565b5b6121838d828e01612053565b945094505060808b013567ffffffffffffffff8111156121a6576121a5611f80565b5b6121b28d828e01612053565b92509250509295989b9194979a5092959850565b60006121d182611fe8565b9050919050565b6121e1816121c6565b81146121ec57600080fd5b50565b6000813590506121fe816121d8565b92915050565b60006020828403121561221a57612219611f7b565b5b6000612228848285016121ef565b91505092915050565b60008115159050919050565b61224681612231565b82525050565b6000602082019050612261600083018461223d565b92915050565b6000806000806000806000806080898b03121561228757612286611f7b565b5b600089013567ffffffffffffffff8111156122a5576122a4611f80565b5b6122b18b828c01612053565b9850985050602089013567ffffffffffffffff8111156122d4576122d3611f80565b5b6122e08b828c01612053565b9650965050604089013567ffffffffffffffff81111561230357612302611f80565b5b61230f8b828c01612053565b9450945050606089013567ffffffffffffffff81111561233257612331611f80565b5b61233e8b828c01612053565b92509250509295985092959890939650565b6000806020838503121561236757612366611f7b565b5b600083013567ffffffffffffffff81111561238557612384611f80565b5b61239185828601612053565b92509250509250929050565b6123a6816121c6565b82525050565b60006020820190506123c1600083018461239d565b92915050565b600081519050919050565b600082825260208201905092915050565b60005b838110156124015780820151818401526020810190506123e6565b60008484015250505050565b6000601f19601f8301169050919050565b6000612429826123c7565b61243381856123d2565b93506124438185602086016123e3565b61244c8161240d565b840191505092915050565b600082825260208201905092915050565b6000612473826123c7565b61247d8185612457565b935061248d8185602086016123e3565b6124968161240d565b840191505092915050565b600060808301600083015184820360008601526124be8282612468565b915050602083015184820360208601526124d88282612468565b915050604083015184820360408601526124f28282612468565b9150506060830151848203606086015261250c8282612468565b9150508091505092915050565b61252281611f85565b82525050565b60006080820190508181036000830152612542818761241e565b9050818103602083015261255681866124a1565b90506125656040830185612519565b612572606083018461223d565b95945050505050565b600060a0820190508181036000830152612595818861241e565b905081810360208301526125a9818761241e565b905081810360408301526125bd818661241e565b905081810360608301526125d1818561241e565b90506125e06080830184612519565b9695505050505050565b600080fd5b7f4e487b7100000000000000000000000000000000000000000000000000000000600052604160045260246000fd5b6126278261240d565b810181811067ffffffffffffffff82111715612646576126456125ef565b5b80604052505050565b6000612659611f71565b9050612665828261261e565b919050565b600067ffffffffffffffff821115612685576126846125ef565b5b61268e8261240d565b9050602081019050919050565b82818337600083830152505050565b60006126bd6126b88461266a565b61264f565b9050828152602081018484840111156126d9576126d86125ea565b5b6126e484828561269b565b509392505050565b600082601f83011261270157612700612044565b5b81356127118482602086016126aa565b91505092915050565b6000602082840312156127305761272f611f7b565b5b600082013567ffffffffffffffff81111561274e5761274d611f80565b5b61275a848285016126ec565b91505092915050565b60008060008060006080868803121561277f5761277e611f7b565b5b600061278d888289016121ef565b955050602061279e88828901611fa6565b94505060406127af888289016121ef565b935050606086013567ffffffffffffffff8111156127d0576127cf611f80565b5b6127dc88828901612053565b92509250509295509295909350565b600060ff82169050919050565b612801816127eb565b811461280c57600080fd5b50565b60008135905061281e816127f8565b92915050565b60006020828403121561283a57612839611f7b565b5b60006128488482850161280f565b91505092915050565b61285a816127eb565b82525050565b60006020820190506128756000830184612851565b92915050565b7f557365726e616d652063616e6e6f7420626520656d7074790000000000000000600082015250565b60006128b16018836123d2565b91506128bc8261287b565b602082019050919050565b600060208201905081810360008301526128e0816128a4565b9050919050565b7f416c726561647920726567697374657265640000000000000000000000000000600082015250565b600061291d6012836123d2565b9150612928826128e7565b602082019050919050565b6000602082019050818103600083015261294c81612910565b9050919050565b600081905092915050565b600061296a8385612953565b935061297783858461269b565b82840190509392505050565b600061299082848661295e565b91508190509392505050565b7f557365726e616d652074616b656e000000000000000000000000000000000000600082015250565b60006129d2600e836123d2565b91506129dd8261299c565b602082019050919050565b60006020820190508181036000830152612a01816129c5565b9050919050565b7f4e487b7100000000000000000000000000000000000000000000000000000000600052602260045260246000fd5b60006002820490506001821680612a4f57607f821691505b602082108103612a6257612a61612a08565b5b50919050565b60008190508160005260206000209050919050565b60006020601f8301049050919050565b600082821b905092915050565b600060088302612aca7fffffffffffffffffffffffffffffffffffffffffffffffffffffffffffffffff82612a8d565b612ad48683612a8d565b95508019841693508086168417925050509392505050565b6000819050919050565b6000612b11612b0c612b0784611f85565b612aec565b611f85565b9050919050565b6000819050919050565b612b2b83612af6565b612b3f612b3782612b18565b848454612a9a565b825550505050565b600090565b612b54612b47565b612b5f818484612b22565b505050565b5b81811015612b8357612b78600082612b4c565b600181019050612b65565b5050565b601f821115612bc857612b9981612a68565b612ba284612a7d565b81016020851015612bb1578190505b612bc5612bbd85612a7d565b830182612b64565b50505b505050565b600082821c905092915050565b6000612beb60001984600802612bcd565b1980831691505092915050565b6000612c048383612bda565b9150826002028217905092915050565b612c1d826123c7565b67ffffffffffffffff811115612c3657612c356125ef565b5b612c408254612a37565b612c4b828285612b87565b600060209050601f831160018114612c7e5760008415612c6c578287015190505b612c768582612bf8565b865550612cde565b601f198416612c8c86612a68565b60005b82811015612cb457848901518255600182019150602085019450602081019050612c8f565b86831015612cd15784890151612ccd601f891682612bda565b8355505b6001600288020188555050505b505050505050565b6000612cf283856123d2565b9350612cff83858461269b565b612d088361240d565b840190509392505050565b60006020820190508181036000830152612d2e818486612ce6565b90509392505050565b7f4e487b7100000000000000000000000000000000000000000000000000000000600052603260045260246000fd5b7f4f6e6c79206f776e65722063616e2061646420746f6b656e0000000000000000600082015250565b6000612d9c6018836123d2565b9150612da782612d66565b602082019050919050565b60006020820190508181036000830152612dcb81612d8f565b9050919050565b7f496e76616c696420616464726573730000000000000000000000000000000000600082015250565b6000612e08600f836123d2565b9150612e1382612dd2565b602082019050919050565b60006020820190508181036000830152612e3781612dfb565b9050919050565b7f4e6f7420726567697374657265642061732063726561746f7200000000000000600082015250565b6000612e746019836123d2565b9150612e7f82612e3e565b602082019050919050565b60006020820190508181036000830152612ea381612e67565b9050919050565b600082905092915050565b612ebf8383612eaa565b67ffffffffffffffff811115612ed857612ed76125ef565b5b612ee28254612a37565b612eed828285612b87565b6000601f831160018114612f1c5760008415612f0a578287013590505b612f148582612bf8565b865550612f7c565b601f198416612f2a86612a68565b60005b82811015612f5257848901358255600182019150602085019450602081019050612f2d565b86831015612f6f5784890135612f6b601f891682612bda565b8355505b6001600288020188555050505b50505050505050565b600060a0820190508181036000830152612fa0818b8d612ce6565b90508181036020830152612fb581898b612ce6565b90508181036040830152612fca818789612ce6565b90508181036060830152612fdf818587612ce6565b9050612fee6080830184612519565b9a9950505050505050505050565b7f557365726e616d6520616c72656164792074616b656e00000000000000000000600082015250565b60006130326016836123d2565b915061303d82612ffc565b602082019050919050565b6000602082019050818103600083015261306181613025565b9050919050565b6000613073826123c7565b61307d8185612953565b935061308d8185602086016123e3565b80840191505092915050565b60006130a58284613068565b915081905092915050565b600060608201905081810360008301526130ca818761241e565b905081810360208301526130df818587612ce6565b90506130ee6040830184612519565b95945050505050565b7f43726561746f72206e6f7420666f756e64000000000000000000000000000000600082015250565b600061312d6011836123d2565b9150613138826130f7565b602082019050919050565b6000602082019050818103600083015261315c81613120565b9050919050565b7f416d6f756e74206d75737420626520706f736974697665000000000000000000600082015250565b60006131996017836123d2565b91506131a482613163565b602082019050919050565b600060208201905081810360008301526131c88161318c565b9050919050565b7f546f6b656e206e6f7420737570706f7274656400000000000000000000000000600082015250565b60006132056013836123d2565b9150613210826131cf565b602082019050919050565b60006020820190508181036000830152613234816131f8565b9050919050565b7f4e487b7100000000000000000000000000000000000000000000000000000000600052601160045260246000fd5b600061327582611f85565b915061328083611f85565b925082820261328e81611f85565b915082820484148315176132a5576132a461323b565b5b5092915050565b7f4e487b7100000000000000000000000000000000000000000000000000000000600052601260045260246000fd5b60006132e682611f85565b91506132f183611f85565b925082613301576133006132ac565b5b828204905092915050565b600061331782611f85565b915061332283611f85565b925082820390508181111561333a5761333961323b565b5b92915050565b600061334b82611f85565b915061335683611f85565b925082613366576133656132ac565b5b828206905092915050565b600061337c82611f85565b915061338783611f85565b925082820190508082111561339f5761339e61323b565b5b92915050565b60006080820190506133ba6000830188612519565b6133c76020830187612519565b81810360408301526133da818587612ce6565b90506133e96060830184612519565b9695505050505050565b7f4f6e6c79206f776e657200000000000000000000000000000000000000000000600082015250565b6000613429600a836123d2565b9150613434826133f3565b602082019050919050565b600060208201905081810360008301526134588161341c565b9050919050565b7f496e76616c6964206665652072616e6765000000000000000000000000000000600082015250565b60006134956011836123d2565b91506134a08261345f565b602082019050919050565b600060208201905081810360008301526134c481613488565b9050919050565b60006040820190506134e06000830185612851565b6134ed6020830184612851565b9392505050565b6000604082019050613509600083018561239d565b613516602083018461239d565b9392505050565b6000606082019050613532600083018661239d565b61353f602083018561239d565b61354c6040830184612519565b949350505050565b6000604082019050613569600083018561239d565b6135766020830184612519565b9392505050565b600080fd5b600080fd5b6000808585111561359b5761359a61357d565b5b838611156135ac576135ab613582565b5b6001850283019150848603905094509492505050565b600082905092915050565b60007fffffffffffffffffffffffffffffffffffffffff00000000000000000000000082169050919050565b600061360583836135c2565b8261361081356135cd565b925060148210156136505761364b7fffffffffffffffffffffffffffffffffffffffff00000000000000000000000083601403600802612a8d565b831692505b50509291505056fea26469706673582212209bf5e7f956dd973c828e52509a560d9d43c1728d4a29abba88a69663656174eb64736f6c634300081c0033",
  "linkReferences": {},
  "deployedLinkReferences": {}
}