{
  "_format": "hh-sol-artifact-1",
  "contractName": "HertanateContract",
  "sourceName": "contracts/Hertanate.sol",
  "abi": [
    {
      "inputs": [
        {
          "internalType": "address",
          "name": "initialForwarder",
          "type": "address"
        },
        {
          "internalType": "address[]",
          "name": "_initialAllowedTokens",
          "type": "address[]"
        },
        {
          "internalType": "address[]",
          "name": "_initialOwners",
          "type": "address[]"
        }
      ],
      "stateMutability": "nonpayable",
      "type": "constructor"
    },
    {
      "inputs": [
        {
          "internalType": "address",
          "name": "token",
          "type": "address"
        }
      ],
      "name": "SafeERC20FailedOperation",
      "type": "error"
    },
    {
      "anonymous": false,
      "inputs": [
        {
          "indexed": false,
          "internalType": "address",
          "name": "token",
          "type": "address"
        }
      ],
      "name": "AllowedTokenAdded",
      "type": "event"
    },
    {
      "anonymous": false,
      "inputs": [
        {
          "indexed": true,
          "internalType": "address",
          "name": "creator",
          "type": "address"
        },
        {
          "indexed": false,
          "internalType": "string",
          "name": "name",
          "type": "string"
        },
        {
          "indexed": false,
          "internalType": "string",
          "name": "image",
          "type": "string"
        },
        {
          "indexed": false,
          "internalType": "string",
          "name": "bio",
          "type": "string"
        },
        {
          "indexed": false,
          "internalType": "string",
          "name": "socials",
          "type": "string"
        },
        {
          "indexed": false,
          "internalType": "uint256",
          "name": "timestamp",
          "type": "uint256"
        }
      ],
      "name": "CreatorProfileUpdated",
      "type": "event"
    },
    {
      "anonymous": false,
      "inputs": [
        {
          "indexed": true,
          "internalType": "address",
          "name": "creator",
          "type": "address"
        },
        {
          "indexed": false,
          "internalType": "string",
          "name": "username",
          "type": "string"
        }
      ],
      "name": "CreatorRegistered",
      "type": "event"
    },
    {
      "anonymous": false,
      "inputs": [
        {
          "indexed": true,
          "internalType": "address",
          "name": "from",
          "type": "address"
        },
        {
          "indexed": true,
          "internalType": "address",
          "name": "creator",
          "type": "address"
        },
        {
          "indexed": true,
          "internalType": "address",
          "name": "token",
          "type": "address"
        },
        {
          "indexed": false,
          "internalType": "uint256",
          "name": "amount",
          "type": "uint256"
        },
        {
          "indexed": false,
          "internalType": "uint256",
          "name": "feeAmount",
          "type": "uint256"
        },
        {
          "indexed": false,
          "internalType": "string",
          "name": "message",
          "type": "string"
        },
        {
          "indexed": false,
          "internalType": "uint256",
          "name": "timestamp",
          "type": "uint256"
        }
      ],
      "name": "DonationSent",
      "type": "event"
    },
    {
      "anonymous": false,
      "inputs": [
        {
          "indexed": false,
          "internalType": "uint8",
          "name": "oldFee",
          "type": "uint8"
        },
        {
          "indexed": false,
          "internalType": "uint8",
          "name": "newFee",
          "type": "uint8"
        }
      ],
      "name": "FeeChanged",
      "type": "event"
    },
    {
      "anonymous": false,
      "inputs": [
        {
          "indexed": false,
          "internalType": "address",
          "name": "oldForwarder",
          "type": "address"
        },
        {
          "indexed": false,
          "internalType": "address",
          "name": "newForwarder",
          "type": "address"
        }
      ],
      "name": "TrustedForwarderChanged",
      "type": "event"
    },
    {
      "anonymous": false,
      "inputs": [
        {
          "indexed": true,
          "internalType": "address",
          "name": "creator",
          "type": "address"
        },
        {
          "indexed": false,
          "internalType": "string",
          "name": "oldUsername",
          "type": "string"
        },
        {
          "indexed": false,
          "internalType": "string",
          "name": "newUsername",
          "type": "string"
        },
        {
          "indexed": false,
          "internalType": "uint256",
          "name": "timestamp",
          "type": "uint256"
        }
      ],
      "name": "UsernameChanged",
      "type": "event"
    },
    {
      "inputs": [
        {
          "internalType": "address",
          "name": "_token",
          "type": "address"
        }
      ],
      "name": "addAllowedToken",
      "outputs": [],
      "stateMutability": "nonpayable",
      "type": "function"
    },
    {
      "inputs": [
        {
          "internalType": "address",
          "name": "",
          "type": "address"
        }
      ],
      "name": "allowedTokens",
      "outputs": [
        {
          "internalType": "bool",
          "name": "",
          "type": "bool"
        }
      ],
      "stateMutability": "view",
      "type": "function"
    },
    {
      "inputs": [
        {
          "internalType": "string",
          "name": "_newUsername",
          "type": "string"
        }
      ],
      "name": "changeUsername",
      "outputs": [],
      "stateMutability": "nonpayable",
      "type": "function"
    },
    {
      "inputs": [
        {
          "internalType": "address",
          "name": "_creator",
          "type": "address"
        },
        {
          "internalType": "uint256",
          "name": "_amount",
          "type": "uint256"
        },
        {
          "internalType": "address",
          "name": "_token",
          "type": "address"
        },
        {
          "internalType": "string",
          "name": "_message",
          "type": "string"
        }
      ],
      "name": "donateToCreator",
      "outputs": [],
      "stateMutability": "nonpayable",
      "type": "function"
    },
    {
      "inputs": [
        {
          "internalType": "string",
          "name": "_name",
          "type": "string"
        },
        {
          "internalType": "string",
          "name": "_image",
          "type": "string"
        },
        {
          "internalType": "string",
          "name": "_bio",
          "type": "string"
        },
        {
          "internalType": "string",
          "name": "_socials",
          "type": "string"
        }
      ],
      "name": "editCreatorProfile",
      "outputs": [],
      "stateMutability": "nonpayable",
      "type": "function"
    },
    {
      "inputs": [],
      "name": "fee",
      "outputs": [
        {
          "internalType": "uint8",
          "name": "",
          "type": "uint8"
        }
      ],
      "stateMutability": "view",
      "type": "function"
    },
    {
      "inputs": [
        {
          "internalType": "address",
          "name": "_creator",
          "type": "address"
        }
      ],
      "name": "getCreatorByAddress",
      "outputs": [
        {
          "components": [
            {
              "internalType": "address",
              "name": "creatorAddress",
              "type": "address"
            },
            {
              "internalType": "string",
              "name": "username",
              "type": "string"
            },
            {
              "components": [
                {
                  "internalType": "string",
                  "name": "image",
                  "type": "string"
                },
                {
                  "internalType": "string",
                  "name": "name",
                  "type": "string"
                },
                {
                  "internalType": "string",
                  "name": "bio",
                  "type": "string"
                },
                {
                  "internalType": "string",
                  "name": "socials",
                  "type": "string"
                }
              ],
              "internalType": "struct HertanateContract.CreatorDetail",
              "name": "detail",
              "type": "tuple"
            },
            {
              "internalType": "uint256",
              "name": "totalReceived",
              "type": "uint256"
            },
            {
              "internalType": "bool",
              "name": "isActive",
              "type": "bool"
            }
          ],
          "internalType": "struct HertanateContract.Creator",
          "name": "",
          "type": "tuple"
        }
      ],
      "stateMutability": "view",
      "type": "function"
    },
    {
      "inputs": [
        {
          "internalType": "string",
          "name": "_username",
          "type": "string"
        }
      ],
      "name": "getCreatorByUsername",
      "outputs": [
        {
          "components": [
            {
              "internalType": "address",
              "name": "creatorAddress",
              "type": "address"
            },
            {
              "internalType": "string",
              "name": "username",
              "type": "string"
            },
            {
              "components": [
                {
                  "internalType": "string",
                  "name": "image",
                  "type": "string"
                },
                {
                  "internalType": "string",
                  "name": "name",
                  "type": "string"
                },
                {
                  "internalType": "string",
                  "name": "bio",
                  "type": "string"
                },
                {
                  "internalType": "string",
                  "name": "socials",
                  "type": "string"
                }
              ],
              "internalType": "struct HertanateContract.CreatorDetail",
              "name": "detail",
              "type": "tuple"
            },
            {
              "internalType": "uint256",
              "name": "totalReceived",
              "type": "uint256"
            },
            {
              "internalType": "bool",
              "name": "isActive",
              "type": "bool"
            }
          ],
          "internalType": "struct HertanateContract.Creator",
          "name": "",
          "type": "tuple"
        }
      ],
      "stateMutability": "view",
      "type": "function"
    },
    {
      "inputs": [
        {
          "internalType": "address",
          "name": "forwarder",
          "type": "address"
        }
      ],
      "name": "isTrustedForwarder",
      "outputs": [
        {
          "internalType": "bool",
          "name": "",
          "type": "bool"
        }
      ],
      "stateMutability": "view",
      "type": "function"
    },
    {
      "inputs": [
        {
          "internalType": "uint256",
          "name": "",
          "type": "uint256"
        }
      ],
      "name": "owners",
      "outputs": [
        {
          "internalType": "address payable",
          "name": "",
          "type": "address"
        }
      ],
      "stateMutability": "view",
      "type": "function"
    },
    {
      "inputs": [
        {
          "internalType": "uint8",
          "name": "_newFee",
          "type": "uint8"
        }
      ],
      "name": "setFee",
      "outputs": [],
      "stateMutability": "nonpayable",
      "type": "function"
    },
    {
      "inputs": [
        {
          "internalType": "address",
          "name": "newForwarder",
          "type": "address"
        }
      ],
      "name": "setTrustedForwarder",
      "outputs": [],
      "stateMutability": "nonpayable",
      "type": "function"
    },
    {
      "inputs": [
        {
          "internalType": "string",
          "name": "_username",
          "type": "string"
        },
        {
          "internalType": "string",
          "name": "_name",
          "type": "string"
        },
        {
          "internalType": "string",
          "name": "_image",
          "type": "string"
        },
        {
          "internalType": "string",
          "name": "_bio",
          "type": "string"
        },
        {
          "internalType": "string",
          "name": "_socials",
          "type": "string"
        }
      ],
      "name": "signupCreator",
      "outputs": [],
      "stateMutability": "nonpayable",
      "type": "function"
    },
    {
      "inputs": [],
      "name": "trustedForwarder",
      "outputs": [
        {
          "internalType": "address",
          "name": "",
          "type": "address"
        }
      ],
      "stateMutability": "view",
      "type": "function"
    },
    {
      "inputs": [
        {
          "internalType": "string",
          "name": "",
          "type": "string"
        }
      ],
      "name": "usernames",
      "outputs": [
        {
          "internalType": "bool",
          "name": "",
          "type": "bool"
        }
      ],
      "stateMutability": "view",
      "type": "function"
    }
  ],
  "bytecode": "0x60a06040526005600160006101000a81548160ff021916908360ff16021790555034801561002c57600080fd5b50604051614793380380614793833981810160405281019061004e9190610510565b828073ffffffffffffffffffffffffffffffffffffffff1660808173ffffffffffffffffffffffffffffffffffffffff16815250505060008151116100c8576040517f08c379a00000000000000000000000000000000000000000000000000000000081526004016100bf906105f8565b60405180910390fd5b826001806101000a81548173ffffffffffffffffffffffffffffffffffffffff021916908373ffffffffffffffffffffffffffffffffffffffff16021790555060005b815181101561022757600073ffffffffffffffffffffffffffffffffffffffff1682828151811061013f5761013e610618565b5b602002602001015173ffffffffffffffffffffffffffffffffffffffff160361019d576040517f08c379a000000000000000000000000000000000000000000000000000000000815260040161019490610693565b60405180910390fd5b60008282815181106101b2576101b1610618565b5b60200260200101519080600181540180825580915050600190039060005260206000200160009091909190916101000a81548173ffffffffffffffffffffffffffffffffffffffff021916908373ffffffffffffffffffffffffffffffffffffffff160217905550808060010191505061010b565b5060005b825181101561033c57600073ffffffffffffffffffffffffffffffffffffffff1683828151811061025f5761025e610618565b5b602002602001015173ffffffffffffffffffffffffffffffffffffffff16036102bd576040517f08c379a00000000000000000000000000000000000000000000000000000000081526004016102b4906106ff565b60405180910390fd5b6001600560008584815181106102d6576102d5610618565b5b602002602001015173ffffffffffffffffffffffffffffffffffffffff1673ffffffffffffffffffffffffffffffffffffffff16815260200190815260200160002060006101000a81548160ff021916908315150217905550808060010191505061022b565b5050505061071f565b6000604051905090565b600080fd5b600080fd5b600073ffffffffffffffffffffffffffffffffffffffff82169050919050565b600061038482610359565b9050919050565b61039481610379565b811461039f57600080fd5b50565b6000815190506103b18161038b565b92915050565b600080fd5b6000601f19601f8301169050919050565b7f4e487b7100000000000000000000000000000000000000000000000000000000600052604160045260246000fd5b610405826103bc565b810181811067ffffffffffffffff82111715610424576104236103cd565b5b80604052505050565b6000610437610345565b905061044382826103fc565b919050565b600067ffffffffffffffff821115610463576104626103cd565b5b602082029050602081019050919050565b600080fd5b600061048c61048784610448565b61042d565b905080838252602082019050602084028301858111156104af576104ae610474565b5b835b818110156104d857806104c488826103a2565b8452602084019350506020810190506104b1565b5050509392505050565b600082601f8301126104f7576104f66103b7565b5b8151610507848260208601610479565b91505092915050565b6000806000606084860312156105295761052861034f565b5b6000610537868287016103a2565b935050602084015167ffffffffffffffff81111561055857610557610354565b5b610564868287016104e2565b925050604084015167ffffffffffffffff81111561058557610584610354565b5b610591868287016104e2565b9150509250925092565b600082825260208201905092915050565b7f4174206c65617374206f6e65206f776e65720000000000000000000000000000600082015250565b60006105e260128361059b565b91506105ed826105ac565b602082019050919050565b60006020820190508181036000830152610611816105d5565b9050919050565b7f4e487b7100000000000000000000000000000000000000000000000000000000600052603260045260246000fd5b7f496e76616c6964206f776e657200000000000000000000000000000000000000600082015250565b600061067d600d8361059b565b915061068882610647565b602082019050919050565b600060208201905081810360008301526106ac81610670565b9050919050565b7f496e76616c696420746f6b656e00000000000000000000000000000000000000600082015250565b60006106e9600d8361059b565b91506106f4826106b3565b602082019050919050565b60006020820190508181036000830152610718816106dc565b9050919050565b60805161405961073a6000396000611dd801526140596000f3fe608060405234801561001057600080fd5b50600436106100f55760003560e01c806377c846af11610097578063cb122a0911610066578063cb122a0914610294578063da742228146102b0578063ddca3f43146102cc578063e744092e146102ea576100f5565b806377c846af1461020e5780637da0a8771461022a578063aaee301f14610248578063b660506314610278576100f5565b80634178617f116100d35780634178617f146101765780634a0a0a1b14610192578063572b6c05146101c257806366c74fb4146101f2576100f5565b8063025e7c27146100fa57806317b16a591461012a5780632a7fe0cc1461015a575b600080fd5b610114600480360381019061010f9190612910565b61031a565b604051610121919061297e565b60405180910390f35b610144600480360381019061013f9190612adf565b610359565b6040516101519190612ce7565b60405180910390f35b610174600480360381019061016f9190612d69565b610768565b005b610190600480360381019061018b9190612eb2565b610c72565b005b6101ac60048036038101906101a79190612eb2565b610e26565b6040516101b99190612ce7565b60405180910390f35b6101dc60048036038101906101d79190612eb2565b6112d8565b6040516101e99190612eee565b60405180910390f35b61020c60048036038101906102079190612f09565b611330565b005b61022860048036038101906102239190612ff2565b611536565b005b610232611dd4565b60405161023f919061304e565b60405180910390f35b610262600480360381019061025d9190612adf565b611dfc565b60405161026f9190612eee565b60405180910390f35b610292600480360381019061028d9190613069565b611e32565b005b6102ae60048036038101906102a9919061312a565b612251565b005b6102ca60048036038101906102c59190612eb2565b6123c5565b005b6102d4612589565b6040516102e19190613166565b60405180910390f35b61030460048036038101906102ff9190612eb2565b61259c565b6040516103119190612eee565b60405180910390f35b6000818154811061032a57600080fd5b906000526020600020016000915054906101000a900473ffffffffffffffffffffffffffffffffffffffff1681565b6103616127f4565b60028260405161037191906131bd565b908152602001604051809103902060070160009054906101000a900460ff166103cf576040517f08c379a00000000000000000000000000000000000000000000000000000000081526004016103c690613231565b60405180910390fd5b6002826040516103df91906131bd565b90815260200160405180910390206040518060a00160405290816000820160009054906101000a900473ffffffffffffffffffffffffffffffffffffffff1673ffffffffffffffffffffffffffffffffffffffff1673ffffffffffffffffffffffffffffffffffffffff16815260200160018201805461045e90613280565b80601f016020809104026020016040519081016040528092919081815260200182805461048a90613280565b80156104d75780601f106104ac576101008083540402835291602001916104d7565b820191906000526020600020905b8154815290600101906020018083116104ba57829003601f168201915b505050505081526020016002820160405180608001604052908160008201805461050090613280565b80601f016020809104026020016040519081016040528092919081815260200182805461052c90613280565b80156105795780601f1061054e57610100808354040283529160200191610579565b820191906000526020600020905b81548152906001019060200180831161055c57829003601f168201915b5050505050815260200160018201805461059290613280565b80601f01602080910402602001604051908101604052809291908181526020018280546105be90613280565b801561060b5780601f106105e05761010080835404028352916020019161060b565b820191906000526020600020905b8154815290600101906020018083116105ee57829003601f168201915b5050505050815260200160028201805461062490613280565b80601f016020809104026020016040519081016040528092919081815260200182805461065090613280565b801561069d5780601f106106725761010080835404028352916020019161069d565b820191906000526020600020905b81548152906001019060200180831161068057829003601f168201915b505050505081526020016003820180546106b690613280565b80601f01602080910402602001604051908101604052809291908181526020018280546106e290613280565b801561072f5780601f106107045761010080835404028352916020019161072f565b820191906000526020600020905b81548152906001019060200180831161071257829003601f168201915b5050505050815250508152602001600682015481526020016007820160009054906101000a900460ff1615151515815250509050919050565b60008a8a9050116107ae576040517f08c379a00000000000000000000000000000000000000000000000000000000081526004016107a5906132fd565b60405180910390fd5b60048a8a6040516107c0929190613342565b908152602001604051809103902060009054906101000a900460ff161561081c576040517f08c379a0000000000000000000000000000000000000000000000000000000008152600401610813906133a7565b60405180910390fd5b60006003600061082a6125bc565b73ffffffffffffffffffffffffffffffffffffffff1673ffffffffffffffffffffffffffffffffffffffff168152602001908152602001600020805461086f90613280565b9050146108b1576040517f08c379a00000000000000000000000000000000000000000000000000000000081526004016108a890613413565b60405180910390fd5b60006040518060a001604052806108c66125bc565b73ffffffffffffffffffffffffffffffffffffffff1681526020018c8c8080601f016020809104026020016040519081016040528093929190818152602001838380828437600081840152601f19601f82011690508083019250505050505050815260200160405180608001604052808a8a8080601f016020809104026020016040519081016040528093929190818152602001838380828437600081840152601f19601f8201169050808301925050505050505081526020018c8c8080601f016020809104026020016040519081016040528093929190818152602001838380828437600081840152601f19601f82011690508083019250505050505050815260200188888080601f016020809104026020016040519081016040528093929190818152602001838380828437600081840152601f19601f82011690508083019250505050505050815260200186868080601f016020809104026020016040519081016040528093929190818152602001838380828437600081840152601f19601f820116905080830192505050505050508152508152602001600081526020016001151581525090508060028c8c604051610a84929190613342565b908152602001604051809103902060008201518160000160006101000a81548173ffffffffffffffffffffffffffffffffffffffff021916908373ffffffffffffffffffffffffffffffffffffffff1602179055506020820151816001019081610aee91906135df565b506040820151816002016000820151816000019081610b0d91906135df565b506020820151816001019081610b2391906135df565b506040820151816002019081610b3991906135df565b506060820151816003019081610b4f91906135df565b5050506060820151816006015560808201518160070160006101000a81548160ff0219169083151502179055509050508a8a60036000610b8d6125bc565b73ffffffffffffffffffffffffffffffffffffffff1673ffffffffffffffffffffffffffffffffffffffff1681526020019081526020016000209182610bd49291906136bc565b50600160048c8c604051610be9929190613342565b908152602001604051809103902060006101000a81548160ff021916908315150217905550610c166125bc565b73ffffffffffffffffffffffffffffffffffffffff167f436a110767b6510e398091d7e698dbc3a574692ec743e8e40f4fb1ccefc00fc88c8c604051610c5d9291906137b9565b60405180910390a25050505050505050505050565b60008081548110610c8657610c856137dd565b5b9060005260206000200160009054906101000a900473ffffffffffffffffffffffffffffffffffffffff1673ffffffffffffffffffffffffffffffffffffffff16610ccf6125bc565b73ffffffffffffffffffffffffffffffffffffffff1614610d25576040517f08c379a0000000000000000000000000000000000000000000000000000000008152600401610d1c90613858565b60405180910390fd5b600073ffffffffffffffffffffffffffffffffffffffff168173ffffffffffffffffffffffffffffffffffffffff1603610d94576040517f08c379a0000000000000000000000000000000000000000000000000000000008152600401610d8b906138c4565b60405180910390fd5b6001600560008373ffffffffffffffffffffffffffffffffffffffff1673ffffffffffffffffffffffffffffffffffffffff16815260200190815260200160002060006101000a81548160ff0219169083151502179055507ff849d00bc67e9e4bf072df9680646c59b8c5380160834c2e1d4896ce5ec81f7581604051610e1b919061304e565b60405180910390a150565b610e2e6127f4565b6000600360008473ffffffffffffffffffffffffffffffffffffffff1673ffffffffffffffffffffffffffffffffffffffff1681526020019081526020016000208054610e7a90613280565b80601f0160208091040260200160405190810160405280929190818152602001828054610ea690613280565b8015610ef35780601f10610ec857610100808354040283529160200191610ef3565b820191906000526020600020905b815481529060010190602001808311610ed657829003601f168201915b505050505090506000815111610f3e576040517f08c379a0000000000000000000000000000000000000000000000000000000008152600401610f3590613930565b60405180910390fd5b600281604051610f4e91906131bd565b90815260200160405180910390206040518060a00160405290816000820160009054906101000a900473ffffffffffffffffffffffffffffffffffffffff1673ffffffffffffffffffffffffffffffffffffffff1673ffffffffffffffffffffffffffffffffffffffff168152602001600182018054610fcd90613280565b80601f0160208091040260200160405190810160405280929190818152602001828054610ff990613280565b80156110465780601f1061101b57610100808354040283529160200191611046565b820191906000526020600020905b81548152906001019060200180831161102957829003601f168201915b505050505081526020016002820160405180608001604052908160008201805461106f90613280565b80601f016020809104026020016040519081016040528092919081815260200182805461109b90613280565b80156110e85780601f106110bd576101008083540402835291602001916110e8565b820191906000526020600020905b8154815290600101906020018083116110cb57829003601f168201915b5050505050815260200160018201805461110190613280565b80601f016020809104026020016040519081016040528092919081815260200182805461112d90613280565b801561117a5780601f1061114f5761010080835404028352916020019161117a565b820191906000526020600020905b81548152906001019060200180831161115d57829003601f168201915b5050505050815260200160028201805461119390613280565b80601f01602080910402602001604051908101604052809291908181526020018280546111bf90613280565b801561120c5780601f106111e15761010080835404028352916020019161120c565b820191906000526020600020905b8154815290600101906020018083116111ef57829003601f168201915b5050505050815260200160038201805461122590613280565b80601f016020809104026020016040519081016040528092919081815260200182805461125190613280565b801561129e5780601f106112735761010080835404028352916020019161129e565b820191906000526020600020905b81548152906001019060200180831161128157829003601f168201915b5050505050815250508152602001600682015481526020016007820160009054906101000a900460ff161515151581525050915050919050565b600060018054906101000a900473ffffffffffffffffffffffffffffffffffffffff1673ffffffffffffffffffffffffffffffffffffffff168273ffffffffffffffffffffffffffffffffffffffff16149050919050565b60006003600061133e6125bc565b73ffffffffffffffffffffffffffffffffffffffff1673ffffffffffffffffffffffffffffffffffffffff168152602001908152602001600020805461138390613280565b80601f01602080910402602001604051908101604052809291908181526020018280546113af90613280565b80156113fc5780601f106113d1576101008083540402835291602001916113fc565b820191906000526020600020905b8154815290600101906020018083116113df57829003601f168201915b505050505090506000815111611447576040517f08c379a000000000000000000000000000000000000000000000000000000000815260040161143e9061399c565b60405180910390fd5b600060028260405161145991906131bd565b90815260200160405180910390209050898982600201600101918261147f9291906136bc565b5087878260020160000191826114969291906136bc565b5085858260020160020191826114ad9291906136bc565b5083838260020160030191826114c49291906136bc565b506114cd6125bc565b73ffffffffffffffffffffffffffffffffffffffff167f07110c32e00f50dcdaa7b59af3e326ffd2df520373d7e74fbc3f05a91a4e4a388b8b8b8b8b8b8b8b42604051611522999897969594939291906139cb565b60405180910390a250505050505050505050565b6000828290501161157c576040517f08c379a0000000000000000000000000000000000000000000000000000000008152600401611573906132fd565b60405180910390fd5b6004828260405161158e929190613342565b908152602001604051809103902060009054906101000a900460ff16156115ea576040517f08c379a00000000000000000000000000000000000000000000000000000000081526004016115e1906133a7565b60405180910390fd5b6000600360006115f86125bc565b73ffffffffffffffffffffffffffffffffffffffff1673ffffffffffffffffffffffffffffffffffffffff168152602001908152602001600020805461163d90613280565b80601f016020809104026020016040519081016040528092919081815260200182805461166990613280565b80156116b65780601f1061168b576101008083540402835291602001916116b6565b820191906000526020600020905b81548152906001019060200180831161169957829003601f168201915b505050505090506000815111611701576040517f08c379a00000000000000000000000000000000000000000000000000000000081526004016116f89061399c565b60405180910390fd5b600060028260405161171391906131bd565b90815260200160405180910390206040518060a00160405290816000820160009054906101000a900473ffffffffffffffffffffffffffffffffffffffff1673ffffffffffffffffffffffffffffffffffffffff1673ffffffffffffffffffffffffffffffffffffffff16815260200160018201805461179290613280565b80601f01602080910402602001604051908101604052809291908181526020018280546117be90613280565b801561180b5780601f106117e05761010080835404028352916020019161180b565b820191906000526020600020905b8154815290600101906020018083116117ee57829003601f168201915b505050505081526020016002820160405180608001604052908160008201805461183490613280565b80601f016020809104026020016040519081016040528092919081815260200182805461186090613280565b80156118ad5780601f10611882576101008083540402835291602001916118ad565b820191906000526020600020905b81548152906001019060200180831161189057829003601f168201915b505050505081526020016001820180546118c690613280565b80601f01602080910402602001604051908101604052809291908181526020018280546118f290613280565b801561193f5780601f106119145761010080835404028352916020019161193f565b820191906000526020600020905b81548152906001019060200180831161192257829003601f168201915b5050505050815260200160028201805461195890613280565b80601f016020809104026020016040519081016040528092919081815260200182805461198490613280565b80156119d15780601f106119a6576101008083540402835291602001916119d1565b820191906000526020600020905b8154815290600101906020018083116119b457829003601f168201915b505050505081526020016003820180546119ea90613280565b80601f0160208091040260200160405190810160405280929190818152602001828054611a1690613280565b8015611a635780601f10611a3857610100808354040283529160200191611a63565b820191906000526020600020905b815481529060010190602001808311611a4657829003601f168201915b5050505050815250508152602001600682015481526020016007820160009054906101000a900460ff161515151581525050905083838080601f016020809104026020016040519081016040528093929190818152602001838380828437600081840152601f19601f8201169050808301925050505050505081602001819052508060028585604051611af7929190613342565b908152602001604051809103902060008201518160000160006101000a81548173ffffffffffffffffffffffffffffffffffffffff021916908373ffffffffffffffffffffffffffffffffffffffff1602179055506020820151816001019081611b6191906135df565b506040820151816002016000820151816000019081611b8091906135df565b506020820151816001019081611b9691906135df565b506040820151816002019081611bac91906135df565b506060820151816003019081611bc291906135df565b5050506060820151816006015560808201518160070160006101000a81548160ff021916908315150217905550905050600282604051611c0291906131bd565b9081526020016040518091039020600080820160006101000a81549073ffffffffffffffffffffffffffffffffffffffff0219169055600182016000611c489190612841565b6002820160008082016000611c5d9190612841565b600182016000611c6d9190612841565b600282016000611c7d9190612841565b600382016000611c8d9190612841565b505060068201600090556007820160006101000a81549060ff02191690555050838360036000611cbb6125bc565b73ffffffffffffffffffffffffffffffffffffffff1673ffffffffffffffffffffffffffffffffffffffff1681526020019081526020016000209182611d029291906136bc565b506000600483604051611d1591906131bd565b908152602001604051809103902060006101000a81548160ff021916908315150217905550600160048585604051611d4e929190613342565b908152602001604051809103902060006101000a81548160ff021916908315150217905550611d7b6125bc565b73ffffffffffffffffffffffffffffffffffffffff167f81b7c40eb5c177b2597ea463def0a1737f3689c6ae06b5d350bd97348a1e000783868642604051611dc69493929190613a7b565b60405180910390a250505050565b60007f0000000000000000000000000000000000000000000000000000000000000000905090565b6004818051602081018201805184825260208301602085012081835280955050505050506000915054906101000a900460ff1681565b6000600360008773ffffffffffffffffffffffffffffffffffffffff1673ffffffffffffffffffffffffffffffffffffffff1681526020019081526020016000208054611e7e90613280565b80601f0160208091040260200160405190810160405280929190818152602001828054611eaa90613280565b8015611ef75780601f10611ecc57610100808354040283529160200191611ef7565b820191906000526020600020905b815481529060010190602001808311611eda57829003601f168201915b505050505090506000815111611f42576040517f08c379a0000000000000000000000000000000000000000000000000000000008152600401611f3990613b0e565b60405180910390fd5b60008511611f85576040517f08c379a0000000000000000000000000000000000000000000000000000000008152600401611f7c90613b7a565b60405180910390fd5b600560008573ffffffffffffffffffffffffffffffffffffffff1673ffffffffffffffffffffffffffffffffffffffff16815260200190815260200160002060009054906101000a900460ff16612011576040517f08c379a000000000000000000000000000000000000000000000000000000000815260040161200890613be6565b60405180910390fd5b600084905061204a6120216125bc565b30888473ffffffffffffffffffffffffffffffffffffffff166125cb909392919063ffffffff16565b60006064600160009054906101000a900460ff1660ff168861206c9190613c35565b6120769190613ca6565b9050600081886120869190613cd7565b90506120b389828573ffffffffffffffffffffffffffffffffffffffff1661264d9092919063ffffffff16565b60008080549050836120c59190613ca6565b905060008080549050846120d99190613d0b565b905060005b6000805490508110156121805760008082146120fa5783612107565b82846121069190613d3c565b5b9050612172600083815481106121205761211f6137dd565b5b9060005260206000200160009054906101000a900473ffffffffffffffffffffffffffffffffffffffff16828973ffffffffffffffffffffffffffffffffffffffff1661264d9092919063ffffffff16565b5080806001019150506120de565b508260028760405161219291906131bd565b908152602001604051809103902060060160008282546121b29190613d3c565b925050819055508873ffffffffffffffffffffffffffffffffffffffff168b73ffffffffffffffffffffffffffffffffffffffff166121ef6125bc565b73ffffffffffffffffffffffffffffffffffffffff167f8b172b1d968216c310ec70cea1a7cc3d0b7df72d55d5793839335c134d2bf4268d888d8d4260405161223c959493929190613d70565b60405180910390a45050505050505050505050565b60008081548110612265576122646137dd565b5b9060005260206000200160009054906101000a900473ffffffffffffffffffffffffffffffffffffffff1673ffffffffffffffffffffffffffffffffffffffff166122ae6125bc565b73ffffffffffffffffffffffffffffffffffffffff1614612304576040517f08c379a00000000000000000000000000000000000000000000000000000000081526004016122fb90613858565b60405180910390fd5b60008160ff1611801561231a575060648160ff16105b612359576040517f08c379a000000000000000000000000000000000000000000000000000000000815260040161235090613e0a565b60405180910390fd5b6000600160009054906101000a900460ff16905081600160006101000a81548160ff021916908360ff1602179055507f5ae87c6c78c85ead638fc9795e07688ecf06bcb57baa9b08b28a3e02826b3d0e81836040516123b9929190613e2a565b60405180910390a15050565b600080815481106123d9576123d86137dd565b5b9060005260206000200160009054906101000a900473ffffffffffffffffffffffffffffffffffffffff1673ffffffffffffffffffffffffffffffffffffffff166124226125bc565b73ffffffffffffffffffffffffffffffffffffffff1614612478576040517f08c379a000000000000000000000000000000000000000000000000000000000815260040161246f90613858565b60405180910390fd5b600073ffffffffffffffffffffffffffffffffffffffff168173ffffffffffffffffffffffffffffffffffffffff16036124e7576040517f08c379a00000000000000000000000000000000000000000000000000000000081526004016124de90613e9f565b60405180910390fd5b600060018054906101000a900473ffffffffffffffffffffffffffffffffffffffff169050816001806101000a81548173ffffffffffffffffffffffffffffffffffffffff021916908373ffffffffffffffffffffffffffffffffffffffff1602179055507f06dff7401eb7fb04d241246ade7f817c7ad512b1bed61c18aedd9bc51eec0475818360405161257d929190613ebf565b60405180910390a15050565b600160009054906101000a900460ff1681565b60056020528060005260406000206000915054906101000a900460ff1681565b60006125c66126cc565b905090565b612647848573ffffffffffffffffffffffffffffffffffffffff166323b872dd86868660405160240161260093929190613ee8565b604051602081830303815290604052915060e01b6020820180517bffffffffffffffffffffffffffffffffffffffffffffffffffffffff8381831617835250505050612741565b50505050565b6126c7838473ffffffffffffffffffffffffffffffffffffffff1663a9059cbb8585604051602401612680929190613f1f565b604051602081830303815290604052915060e01b6020820180517bffffffffffffffffffffffffffffffffffffffffffffffffffffffff8381831617835250505050612741565b505050565b6000806000369050905060006126e06127e3565b90506126eb336112d8565b80156126f75750808210155b1561273157600036828461270b9190613cd7565b90809261271a93929190613f52565b906127259190613fc4565b60601c9250505061273e565b6127396127ec565b925050505b90565b600080602060008451602086016000885af180612764576040513d6000823e3d81fd5b3d92506000519150506000821461277f57600181141561279b565b60008473ffffffffffffffffffffffffffffffffffffffff163b145b156127dd57836040517f5274afe70000000000000000000000000000000000000000000000000000000081526004016127d4919061304e565b60405180910390fd5b50505050565b60006014905090565b600033905090565b6040518060a00160405280600073ffffffffffffffffffffffffffffffffffffffff1681526020016060815260200161282b612881565b8152602001600081526020016000151581525090565b50805461284d90613280565b6000825580601f1061285f575061287e565b601f01602090049060005260206000209081019061287d91906128a9565b5b50565b6040518060800160405280606081526020016060815260200160608152602001606081525090565b5b808211156128c25760008160009055506001016128aa565b5090565b6000604051905090565b600080fd5b600080fd5b6000819050919050565b6128ed816128da565b81146128f857600080fd5b50565b60008135905061290a816128e4565b92915050565b600060208284031215612926576129256128d0565b5b6000612934848285016128fb565b91505092915050565b600073ffffffffffffffffffffffffffffffffffffffff82169050919050565b60006129688261293d565b9050919050565b6129788161295d565b82525050565b6000602082019050612993600083018461296f565b92915050565b600080fd5b600080fd5b6000601f19601f8301169050919050565b7f4e487b7100000000000000000000000000000000000000000000000000000000600052604160045260246000fd5b6129ec826129a3565b810181811067ffffffffffffffff82111715612a0b57612a0a6129b4565b5b80604052505050565b6000612a1e6128c6565b9050612a2a82826129e3565b919050565b600067ffffffffffffffff821115612a4a57612a496129b4565b5b612a53826129a3565b9050602081019050919050565b82818337600083830152505050565b6000612a82612a7d84612a2f565b612a14565b905082815260208101848484011115612a9e57612a9d61299e565b5b612aa9848285612a60565b509392505050565b600082601f830112612ac657612ac5612999565b5b8135612ad6848260208601612a6f565b91505092915050565b600060208284031215612af557612af46128d0565b5b600082013567ffffffffffffffff811115612b1357612b126128d5565b5b612b1f84828501612ab1565b91505092915050565b6000612b338261293d565b9050919050565b612b4381612b28565b82525050565b600081519050919050565b600082825260208201905092915050565b60005b83811015612b83578082015181840152602081019050612b68565b60008484015250505050565b6000612b9a82612b49565b612ba48185612b54565b9350612bb4818560208601612b65565b612bbd816129a3565b840191505092915050565b60006080830160008301518482036000860152612be58282612b8f565b91505060208301518482036020860152612bff8282612b8f565b91505060408301518482036040860152612c198282612b8f565b91505060608301518482036060860152612c338282612b8f565b9150508091505092915050565b612c49816128da565b82525050565b60008115159050919050565b612c6481612c4f565b82525050565b600060a083016000830151612c826000860182612b3a565b5060208301518482036020860152612c9a8282612b8f565b91505060408301518482036040860152612cb48282612bc8565b9150506060830151612cc96060860182612c40565b506080830151612cdc6080860182612c5b565b508091505092915050565b60006020820190508181036000830152612d018184612c6a565b905092915050565b600080fd5b600080fd5b60008083601f840112612d2957612d28612999565b5b8235905067ffffffffffffffff811115612d4657612d45612d09565b5b602083019150836001820283011115612d6257612d61612d0e565b5b9250929050565b60008060008060008060008060008060a08b8d031215612d8c57612d8b6128d0565b5b60008b013567ffffffffffffffff811115612daa57612da96128d5565b5b612db68d828e01612d13565b9a509a505060208b013567ffffffffffffffff811115612dd957612dd86128d5565b5b612de58d828e01612d13565b985098505060408b013567ffffffffffffffff811115612e0857612e076128d5565b5b612e148d828e01612d13565b965096505060608b013567ffffffffffffffff811115612e3757612e366128d5565b5b612e438d828e01612d13565b945094505060808b013567ffffffffffffffff811115612e6657612e656128d5565b5b612e728d828e01612d13565b92509250509295989b9194979a5092959850565b612e8f81612b28565b8114612e9a57600080fd5b50565b600081359050612eac81612e86565b92915050565b600060208284031215612ec857612ec76128d0565b5b6000612ed684828501612e9d565b91505092915050565b612ee881612c4f565b82525050565b6000602082019050612f036000830184612edf565b92915050565b6000806000806000806000806080898b031215612f2957612f286128d0565b5b600089013567ffffffffffffffff811115612f4757612f466128d5565b5b612f538b828c01612d13565b9850985050602089013567ffffffffffffffff811115612f7657612f756128d5565b5b612f828b828c01612d13565b9650965050604089013567ffffffffffffffff811115612fa557612fa46128d5565b5b612fb18b828c01612d13565b9450945050606089013567ffffffffffffffff811115612fd457612fd36128d5565b5b612fe08b828c01612d13565b92509250509295985092959890939650565b60008060208385031215613009576130086128d0565b5b600083013567ffffffffffffffff811115613027576130266128d5565b5b61303385828601612d13565b92509250509250929050565b61304881612b28565b82525050565b6000602082019050613063600083018461303f565b92915050565b600080600080600060808688031215613085576130846128d0565b5b600061309388828901612e9d565b95505060206130a4888289016128fb565b94505060406130b588828901612e9d565b935050606086013567ffffffffffffffff8111156130d6576130d56128d5565b5b6130e288828901612d13565b92509250509295509295909350565b600060ff82169050919050565b613107816130f1565b811461311257600080fd5b50565b600081359050613124816130fe565b92915050565b6000602082840312156131405761313f6128d0565b5b600061314e84828501613115565b91505092915050565b613160816130f1565b82525050565b600060208201905061317b6000830184613157565b92915050565b600081905092915050565b600061319782612b49565b6131a18185613181565b93506131b1818560208601612b65565b80840191505092915050565b60006131c9828461318c565b915081905092915050565b600082825260208201905092915050565b7f43726561746f72206e6f7420666f756e64000000000000000000000000000000600082015250565b600061321b6011836131d4565b9150613226826131e5565b602082019050919050565b6000602082019050818103600083015261324a8161320e565b9050919050565b7f4e487b7100000000000000000000000000000000000000000000000000000000600052602260045260246000fd5b6000600282049050600182168061329857607f821691505b6020821081036132ab576132aa613251565b5b50919050565b7f557365726e616d65207265717569726564000000000000000000000000000000600082015250565b60006132e76011836131d4565b91506132f2826132b1565b602082019050919050565b60006020820190508181036000830152613316816132da565b9050919050565b60006133298385613181565b9350613336838584612a60565b82840190509392505050565b600061334f82848661331d565b91508190509392505050565b7f557365726e616d652074616b656e000000000000000000000000000000000000600082015250565b6000613391600e836131d4565b915061339c8261335b565b602082019050919050565b600060208201905081810360008301526133c081613384565b9050919050565b7f416c726561647920726567697374657265640000000000000000000000000000600082015250565b60006133fd6012836131d4565b9150613408826133c7565b602082019050919050565b6000602082019050818103600083015261342c816133f0565b9050919050565b60008190508160005260206000209050919050565b60006020601f8301049050919050565b600082821b905092915050565b6000600883026134957fffffffffffffffffffffffffffffffffffffffffffffffffffffffffffffffff82613458565b61349f8683613458565b95508019841693508086168417925050509392505050565b6000819050919050565b60006134dc6134d76134d2846128da565b6134b7565b6128da565b9050919050565b6000819050919050565b6134f6836134c1565b61350a613502826134e3565b848454613465565b825550505050565b600090565b61351f613512565b61352a8184846134ed565b505050565b5b8181101561354e57613543600082613517565b600181019050613530565b5050565b601f8211156135935761356481613433565b61356d84613448565b8101602085101561357c578190505b61359061358885613448565b83018261352f565b50505b505050565b600082821c905092915050565b60006135b660001984600802613598565b1980831691505092915050565b60006135cf83836135a5565b9150826002028217905092915050565b6135e882612b49565b67ffffffffffffffff811115613601576136006129b4565b5b61360b8254613280565b613616828285613552565b600060209050601f8311600181146136495760008415613637578287015190505b61364185826135c3565b8655506136a9565b601f19841661365786613433565b60005b8281101561367f5784890151825560018201915060208501945060208101905061365a565b8683101561369c5784890151613698601f8916826135a5565b8355505b6001600288020188555050505b505050505050565b600082905092915050565b6136c683836136b1565b67ffffffffffffffff8111156136df576136de6129b4565b5b6136e98254613280565b6136f4828285613552565b6000601f8311600181146137235760008415613711578287013590505b61371b85826135c3565b865550613783565b601f19841661373186613433565b60005b8281101561375957848901358255600182019150602085019450602081019050613734565b868310156137765784890135613772601f8916826135a5565b8355505b6001600288020188555050505b50505050505050565b600061379883856131d4565b93506137a5838584612a60565b6137ae836129a3565b840190509392505050565b600060208201905081810360008301526137d481848661378c565b90509392505050565b7f4e487b7100000000000000000000000000000000000000000000000000000000600052603260045260246000fd5b7f4f6e6c7920496e697469616c206f776e65720000000000000000000000000000600082015250565b60006138426012836131d4565b915061384d8261380c565b602082019050919050565b6000602082019050818103600083015261387181613835565b9050919050565b7f496e76616c696420746f6b656e00000000000000000000000000000000000000600082015250565b60006138ae600d836131d4565b91506138b982613878565b602082019050919050565b600060208201905081810360008301526138dd816138a1565b9050919050565b7f4e6f7420612063726561746f7200000000000000000000000000000000000000600082015250565b600061391a600d836131d4565b9150613925826138e4565b602082019050919050565b600060208201905081810360008301526139498161390d565b9050919050565b7f4e6f742072656769737465726564000000000000000000000000000000000000600082015250565b6000613986600e836131d4565b915061399182613950565b602082019050919050565b600060208201905081810360008301526139b581613979565b9050919050565b6139c5816128da565b82525050565b600060a08201905081810360008301526139e6818b8d61378c565b905081810360208301526139fb81898b61378c565b90508181036040830152613a1081878961378c565b90508181036060830152613a2581858761378c565b9050613a3460808301846139bc565b9a9950505050505050505050565b6000613a4d82612b49565b613a5781856131d4565b9350613a67818560208601612b65565b613a70816129a3565b840191505092915050565b60006060820190508181036000830152613a958187613a42565b90508181036020830152613aaa81858761378c565b9050613ab960408301846139bc565b95945050505050565b7f43726561746f72206e6f74207265676973746572656400000000000000000000600082015250565b6000613af86016836131d4565b9150613b0382613ac2565b602082019050919050565b60006020820190508181036000830152613b2781613aeb565b9050919050565b7f416d6f756e74206d75737420626520706f736974697665000000000000000000600082015250565b6000613b646017836131d4565b9150613b6f82613b2e565b602082019050919050565b60006020820190508181036000830152613b9381613b57565b9050919050565b7f546f6b656e206e6f7420737570706f7274656400000000000000000000000000600082015250565b6000613bd06013836131d4565b9150613bdb82613b9a565b602082019050919050565b60006020820190508181036000830152613bff81613bc3565b9050919050565b7f4e487b7100000000000000000000000000000000000000000000000000000000600052601160045260246000fd5b6000613c40826128da565b9150613c4b836128da565b9250828202613c59816128da565b91508282048414831517613c7057613c6f613c06565b5b5092915050565b7f4e487b7100000000000000000000000000000000000000000000000000000000600052601260045260246000fd5b6000613cb1826128da565b9150613cbc836128da565b925082613ccc57613ccb613c77565b5b828204905092915050565b6000613ce2826128da565b9150613ced836128da565b9250828203905081811115613d0557613d04613c06565b5b92915050565b6000613d16826128da565b9150613d21836128da565b925082613d3157613d30613c77565b5b828206905092915050565b6000613d47826128da565b9150613d52836128da565b9250828201905080821115613d6a57613d69613c06565b5b92915050565b6000608082019050613d8560008301886139bc565b613d9260208301876139bc565b8181036040830152613da581858761378c565b9050613db460608301846139bc565b9695505050505050565b7f496e76616c6964206665652072616e6765000000000000000000000000000000600082015250565b6000613df46011836131d4565b9150613dff82613dbe565b602082019050919050565b60006020820190508181036000830152613e2381613de7565b9050919050565b6000604082019050613e3f6000830185613157565b613e4c6020830184613157565b9392505050565b7f496e76616c696420616464726573730000000000000000000000000000000000600082015250565b6000613e89600f836131d4565b9150613e9482613e53565b602082019050919050565b60006020820190508181036000830152613eb881613e7c565b9050919050565b6000604082019050613ed4600083018561303f565b613ee1602083018461303f565b9392505050565b6000606082019050613efd600083018661303f565b613f0a602083018561303f565b613f1760408301846139bc565b949350505050565b6000604082019050613f34600083018561303f565b613f4160208301846139bc565b9392505050565b600080fd5b600080fd5b60008085851115613f6657613f65613f48565b5b83861115613f7757613f76613f4d565b5b6001850283019150848603905094509492505050565b600082905092915050565b60007fffffffffffffffffffffffffffffffffffffffff00000000000000000000000082169050919050565b6000613fd08383613f8d565b82613fdb8135613f98565b9250601482101561401b576140167fffffffffffffffffffffffffffffffffffffffff00000000000000000000000083601403600802613458565b831692505b50509291505056fea26469706673582212200ec87f14ba4eef555595a1e9e4962bf0ef7e6ee2afa0eda68607240b739b662f64736f6c634300081c0033",
  "linkReferences": {},
  "deployedLinkReferences": {}
}